{
	"solidity01/src/main/java/org/example/sol/Ex5/Ex5_1.sol": {
		"Ex5_1": {
			"abi": [
				{
					"inputs": [
						{
							"internalType": "address",
							"name": "_key",
							"type": "address"
						},
						{
							"internalType": "uint256",
							"name": "_amount",
							"type": "uint256"
						}
					],
					"name": "addMapping",
					"outputs": [],
					"stateMutability": "nonpayable",
					"type": "function"
				},
				{
					"inputs": [
						{
							"internalType": "uint256",
							"name": "_val",
							"type": "uint256"
						},
						{
							"internalType": "string",
							"name": "_value",
							"type": "string"
						}
					],
					"name": "addarray1",
					"outputs": [],
					"stateMutability": "nonpayable",
					"type": "function"
				},
				{
					"inputs": [
						{
							"internalType": "uint256",
							"name": "",
							"type": "uint256"
						}
					],
					"name": "array",
					"outputs": [
						{
							"internalType": "string",
							"name": "",
							"type": "string"
						}
					],
					"stateMutability": "view",
					"type": "function"
				},
				{
					"inputs": [
						{
							"internalType": "address",
							"name": "",
							"type": "address"
						}
					],
					"name": "balances",
					"outputs": [
						{
							"internalType": "uint256",
							"name": "",
							"type": "uint256"
						}
					],
					"stateMutability": "view",
					"type": "function"
				},
				{
					"inputs": [
						{
							"internalType": "address",
							"name": "_key",
							"type": "address"
						}
					],
					"name": "deleteMapping1",
					"outputs": [],
					"stateMutability": "nonpayable",
					"type": "function"
				},
				{
					"inputs": [
						{
							"internalType": "address",
							"name": "_key",
							"type": "address"
						}
					],
					"name": "deleteMapping2",
					"outputs": [],
					"stateMutability": "nonpayable",
					"type": "function"
				},
				{
					"inputs": [
						{
							"internalType": "address",
							"name": "_key",
							"type": "address"
						}
					],
					"name": "getMapping",
					"outputs": [
						{
							"internalType": "uint256",
							"name": "",
							"type": "uint256"
						}
					],
					"stateMutability": "view",
					"type": "function"
				}
			],
			"devdoc": {
				"kind": "dev",
				"methods": {},
				"version": 1
			},
			"evm": {
				"assembly": "    /* \"solidity01/src/main/java/org/example/sol/Ex5/Ex5_1.sol\":74:728  contract Ex5_1{\r... */\n  mstore(0x40, 0x80)\n    /* \"solidity01/src/main/java/org/example/sol/Ex5/Ex5_1.sol\":531:584  string[5] public array = [\"apple\",\"banana\",\"coconut\"] */\n  mload(0x40)\n  dup1\n  0x60\n  add\n  0x40\n  mstore\n  dup1\n  mload(0x40)\n  dup1\n  0x40\n  add\n  0x40\n  mstore\n  dup1\n  0x05\n  dup2\n  mstore\n  0x20\n  add\n  0x6170706c65000000000000000000000000000000000000000000000000000000\n  dup2\n  mstore\n  pop\n  dup2\n  mstore\n  0x20\n  add\n  mload(0x40)\n  dup1\n  0x40\n  add\n  0x40\n  mstore\n  dup1\n  0x06\n  dup2\n  mstore\n  0x20\n  add\n  0x62616e616e610000000000000000000000000000000000000000000000000000\n  dup2\n  mstore\n  pop\n  dup2\n  mstore\n  0x20\n  add\n  mload(0x40)\n  dup1\n  0x40\n  add\n  0x40\n  mstore\n  dup1\n  0x07\n  dup2\n  mstore\n  0x20\n  add\n  0x636f636f6e757400000000000000000000000000000000000000000000000000\n  dup2\n  mstore\n  pop\n  dup2\n  mstore\n  pop\n  0x01\n  swap1\n  0x03\n  tag_1\n  swap3\n  swap2\n  swap1\n  tag_2\n  jump\t// in\ntag_1:\n  pop\n    /* \"solidity01/src/main/java/org/example/sol/Ex5/Ex5_1.sol\":74:728  contract Ex5_1{\r... */\n  callvalue\n  dup1\n  iszero\n  tag_3\n  jumpi\n  0x00\n  dup1\n  revert\ntag_3:\n  pop\n  jump(tag_4)\ntag_2:\n  dup3\n  0x05\n  dup2\n  add\n  swap3\n  dup3\n  iszero\n  tag_5\n  jumpi\n  swap2\n  0x20\n  mul\n  dup3\n  add\ntag_6:\n  dup3\n  dup2\n  gt\n  iszero\n  tag_7\n  jumpi\n  dup3\n  mload\n  dup3\n  swap1\n  dup1\n  mload\n  swap1\n  0x20\n  add\n  swap1\n  tag_8\n  swap3\n  swap2\n  swap1\n  tag_9\n  jump\t// in\ntag_8:\n  pop\n  swap2\n  0x20\n  add\n  swap2\n  swap1\n  0x01\n  add\n  swap1\n  jump(tag_6)\ntag_7:\ntag_5:\n  pop\n  swap1\n  pop\n  tag_10\n  swap2\n  swap1\n  tag_11\n  jump\t// in\ntag_10:\n  pop\n  swap1\n  jump\t// out\ntag_9:\n  dup3\n  dup1\n  sload\n  tag_12\n  swap1\n  tag_13\n  jump\t// in\ntag_12:\n  swap1\n  0x00\n  mstore\n  keccak256(0x00, 0x20)\n  swap1\n  0x1f\n  add\n  0x20\n  swap1\n  div\n  dup2\n  add\n  swap3\n  dup3\n  tag_15\n  jumpi\n  0x00\n  dup6\n  sstore\n  jump(tag_14)\ntag_15:\n  dup3\n  0x1f\n  lt\n  tag_16\n  jumpi\n  dup1\n  mload\n  not(0xff)\n  and\n  dup4\n  dup1\n  add\n  or\n  dup6\n  sstore\n  jump(tag_14)\ntag_16:\n  dup3\n  dup1\n  add\n  0x01\n  add\n  dup6\n  sstore\n  dup3\n  iszero\n  tag_14\n  jumpi\n  swap2\n  dup3\n  add\ntag_17:\n  dup3\n  dup2\n  gt\n  iszero\n  tag_18\n  jumpi\n  dup3\n  mload\n  dup3\n  sstore\n  swap2\n  0x20\n  add\n  swap2\n  swap1\n  0x01\n  add\n  swap1\n  jump(tag_17)\ntag_18:\ntag_14:\n  pop\n  swap1\n  pop\n  tag_19\n  swap2\n  swap1\n  tag_20\n  jump\t// in\ntag_19:\n  pop\n  swap1\n  jump\t// out\ntag_11:\ntag_21:\n  dup1\n  dup3\n  gt\n  iszero\n  tag_22\n  jumpi\n  0x00\n  dup2\n  dup2\n  tag_23\n  swap2\n  swap1\n  tag_24\n  jump\t// in\ntag_23:\n  pop\n  0x01\n  add\n  jump(tag_21)\ntag_22:\n  pop\n  swap1\n  jump\t// out\ntag_20:\ntag_25:\n  dup1\n  dup3\n  gt\n  iszero\n  tag_26\n  jumpi\n  0x00\n  dup2\n  0x00\n  swap1\n  sstore\n  pop\n  0x01\n  add\n  jump(tag_25)\ntag_26:\n  pop\n  swap1\n  jump\t// out\ntag_24:\n  pop\n  dup1\n  sload\n  tag_27\n  swap1\n  tag_13\n  jump\t// in\ntag_27:\n  0x00\n  dup3\n  sstore\n  dup1\n  0x1f\n  lt\n  tag_29\n  jumpi\n  pop\n  jump(tag_28)\ntag_29:\n  0x1f\n  add\n  0x20\n  swap1\n  div\n  swap1\n  0x00\n  mstore\n  keccak256(0x00, 0x20)\n  swap1\n  dup2\n  add\n  swap1\n  tag_30\n  swap2\n  swap1\n  tag_20\n  jump\t// in\ntag_30:\ntag_28:\n  pop\n  jump\t// out\n    /* \"#utility.yul\":7:327   */\ntag_13:\n    /* \"#utility.yul\":51:57   */\n  0x00\n    /* \"#utility.yul\":88:89   */\n  0x02\n    /* \"#utility.yul\":82:86   */\n  dup3\n    /* \"#utility.yul\":78:90   */\n  div\n    /* \"#utility.yul\":68:90   */\n  swap1\n  pop\n    /* \"#utility.yul\":135:136   */\n  0x01\n    /* \"#utility.yul\":129:133   */\n  dup3\n    /* \"#utility.yul\":125:137   */\n  and\n    /* \"#utility.yul\":156:174   */\n  dup1\n    /* \"#utility.yul\":146:227   */\n  tag_33\n  jumpi\n    /* \"#utility.yul\":212:216   */\n  0x7f\n    /* \"#utility.yul\":204:210   */\n  dup3\n    /* \"#utility.yul\":200:217   */\n  and\n    /* \"#utility.yul\":190:217   */\n  swap2\n  pop\n    /* \"#utility.yul\":146:227   */\ntag_33:\n    /* \"#utility.yul\":274:276   */\n  0x20\n    /* \"#utility.yul\":266:272   */\n  dup3\n    /* \"#utility.yul\":263:277   */\n  lt\n    /* \"#utility.yul\":243:261   */\n  dup2\n    /* \"#utility.yul\":240:278   */\n  eq\n    /* \"#utility.yul\":237:321   */\n  iszero\n  tag_34\n  jumpi\n    /* \"#utility.yul\":293:311   */\n  tag_35\n  tag_36\n  jump\t// in\ntag_35:\n    /* \"#utility.yul\":237:321   */\ntag_34:\n    /* \"#utility.yul\":58:327   */\n  pop\n    /* \"#utility.yul\":7:327   */\n  swap2\n  swap1\n  pop\n  jump\t// out\n    /* \"#utility.yul\":333:513   */\ntag_36:\n    /* \"#utility.yul\":381:458   */\n  0x4e487b7100000000000000000000000000000000000000000000000000000000\n    /* \"#utility.yul\":378:379   */\n  0x00\n    /* \"#utility.yul\":371:459   */\n  mstore\n    /* \"#utility.yul\":478:482   */\n  0x22\n    /* \"#utility.yul\":475:476   */\n  0x04\n    /* \"#utility.yul\":468:483   */\n  mstore\n    /* \"#utility.yul\":502:506   */\n  0x24\n    /* \"#utility.yul\":499:500   */\n  0x00\n    /* \"#utility.yul\":492:507   */\n  revert\n    /* \"solidity01/src/main/java/org/example/sol/Ex5/Ex5_1.sol\":74:728  contract Ex5_1{\r... */\ntag_4:\n  dataSize(sub_0)\n  dup1\n  dataOffset(sub_0)\n  0x00\n  codecopy\n  0x00\n  return\nstop\n\nsub_0: assembly {\n        /* \"solidity01/src/main/java/org/example/sol/Ex5/Ex5_1.sol\":74:728  contract Ex5_1{\r... */\n      mstore(0x40, 0x80)\n      callvalue\n      dup1\n      iszero\n      tag_1\n      jumpi\n      0x00\n      dup1\n      revert\n    tag_1:\n      pop\n      jumpi(tag_2, lt(calldatasize, 0x04))\n      shr(0xe0, calldataload(0x00))\n      dup1\n      0x2b9ef281\n      gt\n      tag_10\n      jumpi\n      dup1\n      0x2b9ef281\n      eq\n      tag_6\n      jumpi\n      dup1\n      0x35f5dcf4\n      eq\n      tag_7\n      jumpi\n      dup1\n      0x38d94193\n      eq\n      tag_8\n      jumpi\n      dup1\n      0x72233c5e\n      eq\n      tag_9\n      jumpi\n      jump(tag_2)\n    tag_10:\n      dup1\n      0x14a0bdb3\n      eq\n      tag_3\n      jumpi\n      dup1\n      0x215fef2f\n      eq\n      tag_4\n      jumpi\n      dup1\n      0x27e235e3\n      eq\n      tag_5\n      jumpi\n    tag_2:\n      0x00\n      dup1\n      revert\n        /* \"solidity01/src/main/java/org/example/sol/Ex5/Ex5_1.sol\":142:240  function addMapping(address _key, uint _amount) public {\r... */\n    tag_3:\n      tag_11\n      0x04\n      dup1\n      calldatasize\n      sub\n      dup2\n      add\n      swap1\n      tag_12\n      swap2\n      swap1\n      tag_13\n      jump\t// in\n    tag_12:\n      tag_14\n      jump\t// in\n    tag_11:\n      stop\n        /* \"solidity01/src/main/java/org/example/sol/Ex5/Ex5_1.sol\":351:437  function deleteMapping1(address _key) public {\r... */\n    tag_4:\n      tag_15\n      0x04\n      dup1\n      calldatasize\n      sub\n      dup2\n      add\n      swap1\n      tag_16\n      swap2\n      swap1\n      tag_17\n      jump\t// in\n    tag_16:\n      tag_18\n      jump\t// in\n    tag_15:\n      stop\n        /* \"solidity01/src/main/java/org/example/sol/Ex5/Ex5_1.sol\":95:133  mapping(address=>uint) public balances */\n    tag_5:\n      tag_19\n      0x04\n      dup1\n      calldatasize\n      sub\n      dup2\n      add\n      swap1\n      tag_20\n      swap2\n      swap1\n      tag_17\n      jump\t// in\n    tag_20:\n      tag_21\n      jump\t// in\n    tag_19:\n      mload(0x40)\n      tag_22\n      swap2\n      swap1\n      tag_23\n      jump\t// in\n    tag_22:\n      mload(0x40)\n      dup1\n      swap2\n      sub\n      swap1\n      return\n        /* \"solidity01/src/main/java/org/example/sol/Ex5/Ex5_1.sol\":591:719  function addarray1(uint _val,string memory _value) public {\r... */\n    tag_6:\n      tag_24\n      0x04\n      dup1\n      calldatasize\n      sub\n      dup2\n      add\n      swap1\n      tag_25\n      swap2\n      swap1\n      tag_26\n      jump\t// in\n    tag_25:\n      tag_27\n      jump\t// in\n    tag_24:\n      stop\n        /* \"solidity01/src/main/java/org/example/sol/Ex5/Ex5_1.sol\":443:523  function deleteMapping2(address _key) public{\r... */\n    tag_7:\n      tag_28\n      0x04\n      dup1\n      calldatasize\n      sub\n      dup2\n      add\n      swap1\n      tag_29\n      swap2\n      swap1\n      tag_17\n      jump\t// in\n    tag_29:\n      tag_30\n      jump\t// in\n    tag_28:\n      stop\n        /* \"solidity01/src/main/java/org/example/sol/Ex5/Ex5_1.sol\":531:584  string[5] public array = [\"apple\",\"banana\",\"coconut\"] */\n    tag_8:\n      tag_31\n      0x04\n      dup1\n      calldatasize\n      sub\n      dup2\n      add\n      swap1\n      tag_32\n      swap2\n      swap1\n      tag_33\n      jump\t// in\n    tag_32:\n      tag_34\n      jump\t// in\n    tag_31:\n      mload(0x40)\n      tag_35\n      swap2\n      swap1\n      tag_36\n      jump\t// in\n    tag_35:\n      mload(0x40)\n      dup1\n      swap2\n      sub\n      swap1\n      return\n        /* \"solidity01/src/main/java/org/example/sol/Ex5/Ex5_1.sol\":246:345  function getMapping(address _key) public view returns(uint){\r... */\n    tag_9:\n      tag_37\n      0x04\n      dup1\n      calldatasize\n      sub\n      dup2\n      add\n      swap1\n      tag_38\n      swap2\n      swap1\n      tag_17\n      jump\t// in\n    tag_38:\n      tag_39\n      jump\t// in\n    tag_37:\n      mload(0x40)\n      tag_40\n      swap2\n      swap1\n      tag_23\n      jump\t// in\n    tag_40:\n      mload(0x40)\n      dup1\n      swap2\n      sub\n      swap1\n      return\n        /* \"solidity01/src/main/java/org/example/sol/Ex5/Ex5_1.sol\":142:240  function addMapping(address _key, uint _amount) public {\r... */\n    tag_14:\n        /* \"solidity01/src/main/java/org/example/sol/Ex5/Ex5_1.sol\":225:232  _amount */\n      dup1\n        /* \"solidity01/src/main/java/org/example/sol/Ex5/Ex5_1.sol\":208:216  balances */\n      0x00\n        /* \"solidity01/src/main/java/org/example/sol/Ex5/Ex5_1.sol\":208:222  balances[_key] */\n      dup1\n        /* \"solidity01/src/main/java/org/example/sol/Ex5/Ex5_1.sol\":217:221  _key */\n      dup5\n        /* \"solidity01/src/main/java/org/example/sol/Ex5/Ex5_1.sol\":208:222  balances[_key] */\n      0xffffffffffffffffffffffffffffffffffffffff\n      and\n      0xffffffffffffffffffffffffffffffffffffffff\n      and\n      dup2\n      mstore\n      0x20\n      add\n      swap1\n      dup2\n      mstore\n      0x20\n      add\n      0x00\n      keccak256\n        /* \"solidity01/src/main/java/org/example/sol/Ex5/Ex5_1.sol\":208:232  balances[_key] = _amount */\n      dup2\n      swap1\n      sstore\n      pop\n        /* \"solidity01/src/main/java/org/example/sol/Ex5/Ex5_1.sol\":142:240  function addMapping(address _key, uint _amount) public {\r... */\n      pop\n      pop\n      jump\t// out\n        /* \"solidity01/src/main/java/org/example/sol/Ex5/Ex5_1.sol\":351:437  function deleteMapping1(address _key) public {\r... */\n    tag_18:\n        /* \"solidity01/src/main/java/org/example/sol/Ex5/Ex5_1.sol\":414:422  balances */\n      0x00\n        /* \"solidity01/src/main/java/org/example/sol/Ex5/Ex5_1.sol\":414:428  balances[_key] */\n      dup1\n        /* \"solidity01/src/main/java/org/example/sol/Ex5/Ex5_1.sol\":423:427  _key */\n      dup3\n        /* \"solidity01/src/main/java/org/example/sol/Ex5/Ex5_1.sol\":414:428  balances[_key] */\n      0xffffffffffffffffffffffffffffffffffffffff\n      and\n      0xffffffffffffffffffffffffffffffffffffffff\n      and\n      dup2\n      mstore\n      0x20\n      add\n      swap1\n      dup2\n      mstore\n      0x20\n      add\n      0x00\n      keccak256\n        /* \"solidity01/src/main/java/org/example/sol/Ex5/Ex5_1.sol\":407:429  delete(balances[_key]) */\n      0x00\n      swap1\n      sstore\n        /* \"solidity01/src/main/java/org/example/sol/Ex5/Ex5_1.sol\":351:437  function deleteMapping1(address _key) public {\r... */\n      pop\n      jump\t// out\n        /* \"solidity01/src/main/java/org/example/sol/Ex5/Ex5_1.sol\":95:133  mapping(address=>uint) public balances */\n    tag_21:\n      mstore(0x20, 0x00)\n      dup1\n      0x00\n      mstore\n      keccak256(0x00, 0x40)\n      0x00\n      swap2\n      pop\n      swap1\n      pop\n      sload\n      dup2\n      jump\t// out\n        /* \"solidity01/src/main/java/org/example/sol/Ex5/Ex5_1.sol\":591:719  function addarray1(uint _val,string memory _value) public {\r... */\n    tag_27:\n        /* \"solidity01/src/main/java/org/example/sol/Ex5/Ex5_1.sol\":674:680  _value */\n      dup1\n        /* \"solidity01/src/main/java/org/example/sol/Ex5/Ex5_1.sol\":660:665  array */\n      0x01\n        /* \"solidity01/src/main/java/org/example/sol/Ex5/Ex5_1.sol\":666:670  _val */\n      dup4\n        /* \"solidity01/src/main/java/org/example/sol/Ex5/Ex5_1.sol\":660:671  array[_val] */\n      0x05\n      dup2\n      lt\n      tag_44\n      jumpi\n      tag_45\n      tag_46\n      jump\t// in\n    tag_45:\n    tag_44:\n      add\n        /* \"solidity01/src/main/java/org/example/sol/Ex5/Ex5_1.sol\":660:680  array[_val] = _value */\n      swap1\n      dup1\n      mload\n      swap1\n      0x20\n      add\n      swap1\n      tag_48\n      swap3\n      swap2\n      swap1\n      tag_49\n      jump\t// in\n    tag_48:\n      pop\n        /* \"solidity01/src/main/java/org/example/sol/Ex5/Ex5_1.sol\":705:711  _value */\n      dup1\n        /* \"solidity01/src/main/java/org/example/sol/Ex5/Ex5_1.sol\":691:696  array */\n      0x01\n        /* \"solidity01/src/main/java/org/example/sol/Ex5/Ex5_1.sol\":697:701  _val */\n      dup4\n        /* \"solidity01/src/main/java/org/example/sol/Ex5/Ex5_1.sol\":691:702  array[_val] */\n      0x05\n      dup2\n      lt\n      tag_50\n      jumpi\n      tag_51\n      tag_46\n      jump\t// in\n    tag_51:\n    tag_50:\n      add\n        /* \"solidity01/src/main/java/org/example/sol/Ex5/Ex5_1.sol\":691:711  array[_val] = _value */\n      swap1\n      dup1\n      mload\n      swap1\n      0x20\n      add\n      swap1\n      tag_53\n      swap3\n      swap2\n      swap1\n      tag_49\n      jump\t// in\n    tag_53:\n      pop\n        /* \"solidity01/src/main/java/org/example/sol/Ex5/Ex5_1.sol\":591:719  function addarray1(uint _val,string memory _value) public {\r... */\n      pop\n      pop\n      jump\t// out\n        /* \"solidity01/src/main/java/org/example/sol/Ex5/Ex5_1.sol\":443:523  function deleteMapping2(address _key) public{\r... */\n    tag_30:\n        /* \"solidity01/src/main/java/org/example/sol/Ex5/Ex5_1.sol\":514:515  0 */\n      0x00\n        /* \"solidity01/src/main/java/org/example/sol/Ex5/Ex5_1.sol\":498:506  balances */\n      dup1\n        /* \"solidity01/src/main/java/org/example/sol/Ex5/Ex5_1.sol\":498:512  balances[_key] */\n      0x00\n        /* \"solidity01/src/main/java/org/example/sol/Ex5/Ex5_1.sol\":507:511  _key */\n      dup4\n        /* \"solidity01/src/main/java/org/example/sol/Ex5/Ex5_1.sol\":498:512  balances[_key] */\n      0xffffffffffffffffffffffffffffffffffffffff\n      and\n      0xffffffffffffffffffffffffffffffffffffffff\n      and\n      dup2\n      mstore\n      0x20\n      add\n      swap1\n      dup2\n      mstore\n      0x20\n      add\n      0x00\n      keccak256\n        /* \"solidity01/src/main/java/org/example/sol/Ex5/Ex5_1.sol\":498:515  balances[_key] =0 */\n      dup2\n      swap1\n      sstore\n      pop\n        /* \"solidity01/src/main/java/org/example/sol/Ex5/Ex5_1.sol\":443:523  function deleteMapping2(address _key) public{\r... */\n      pop\n      jump\t// out\n        /* \"solidity01/src/main/java/org/example/sol/Ex5/Ex5_1.sol\":531:584  string[5] public array = [\"apple\",\"banana\",\"coconut\"] */\n    tag_34:\n      0x01\n      dup2\n      0x05\n      dup2\n      lt\n      tag_55\n      jumpi\n      0x00\n      dup1\n      revert\n    tag_55:\n      add\n      0x00\n      swap2\n      pop\n      swap1\n      pop\n      dup1\n      sload\n      tag_57\n      swap1\n      tag_58\n      jump\t// in\n    tag_57:\n      dup1\n      0x1f\n      add\n      0x20\n      dup1\n      swap2\n      div\n      mul\n      0x20\n      add\n      mload(0x40)\n      swap1\n      dup2\n      add\n      0x40\n      mstore\n      dup1\n      swap3\n      swap2\n      swap1\n      dup2\n      dup2\n      mstore\n      0x20\n      add\n      dup3\n      dup1\n      sload\n      tag_59\n      swap1\n      tag_58\n      jump\t// in\n    tag_59:\n      dup1\n      iszero\n      tag_60\n      jumpi\n      dup1\n      0x1f\n      lt\n      tag_61\n      jumpi\n      0x0100\n      dup1\n      dup4\n      sload\n      div\n      mul\n      dup4\n      mstore\n      swap2\n      0x20\n      add\n      swap2\n      jump(tag_60)\n    tag_61:\n      dup3\n      add\n      swap2\n      swap1\n      0x00\n      mstore\n      keccak256(0x00, 0x20)\n      swap1\n    tag_62:\n      dup2\n      sload\n      dup2\n      mstore\n      swap1\n      0x01\n      add\n      swap1\n      0x20\n      add\n      dup1\n      dup4\n      gt\n      tag_62\n      jumpi\n      dup3\n      swap1\n      sub\n      0x1f\n      and\n      dup3\n      add\n      swap2\n    tag_60:\n      pop\n      pop\n      pop\n      pop\n      pop\n      dup2\n      jump\t// out\n        /* \"solidity01/src/main/java/org/example/sol/Ex5/Ex5_1.sol\":246:345  function getMapping(address _key) public view returns(uint){\r... */\n    tag_39:\n        /* \"solidity01/src/main/java/org/example/sol/Ex5/Ex5_1.sol\":300:304  uint */\n      0x00\n        /* \"solidity01/src/main/java/org/example/sol/Ex5/Ex5_1.sol\":323:331  balances */\n      dup1\n        /* \"solidity01/src/main/java/org/example/sol/Ex5/Ex5_1.sol\":323:337  balances[_key] */\n      0x00\n        /* \"solidity01/src/main/java/org/example/sol/Ex5/Ex5_1.sol\":332:336  _key */\n      dup4\n        /* \"solidity01/src/main/java/org/example/sol/Ex5/Ex5_1.sol\":323:337  balances[_key] */\n      0xffffffffffffffffffffffffffffffffffffffff\n      and\n      0xffffffffffffffffffffffffffffffffffffffff\n      and\n      dup2\n      mstore\n      0x20\n      add\n      swap1\n      dup2\n      mstore\n      0x20\n      add\n      0x00\n      keccak256\n      sload\n        /* \"solidity01/src/main/java/org/example/sol/Ex5/Ex5_1.sol\":316:337  return balances[_key] */\n      swap1\n      pop\n        /* \"solidity01/src/main/java/org/example/sol/Ex5/Ex5_1.sol\":246:345  function getMapping(address _key) public view returns(uint){\r... */\n      swap2\n      swap1\n      pop\n      jump\t// out\n    tag_49:\n      dup3\n      dup1\n      sload\n      tag_64\n      swap1\n      tag_58\n      jump\t// in\n    tag_64:\n      swap1\n      0x00\n      mstore\n      keccak256(0x00, 0x20)\n      swap1\n      0x1f\n      add\n      0x20\n      swap1\n      div\n      dup2\n      add\n      swap3\n      dup3\n      tag_66\n      jumpi\n      0x00\n      dup6\n      sstore\n      jump(tag_65)\n    tag_66:\n      dup3\n      0x1f\n      lt\n      tag_67\n      jumpi\n      dup1\n      mload\n      not(0xff)\n      and\n      dup4\n      dup1\n      add\n      or\n      dup6\n      sstore\n      jump(tag_65)\n    tag_67:\n      dup3\n      dup1\n      add\n      0x01\n      add\n      dup6\n      sstore\n      dup3\n      iszero\n      tag_65\n      jumpi\n      swap2\n      dup3\n      add\n    tag_68:\n      dup3\n      dup2\n      gt\n      iszero\n      tag_69\n      jumpi\n      dup3\n      mload\n      dup3\n      sstore\n      swap2\n      0x20\n      add\n      swap2\n      swap1\n      0x01\n      add\n      swap1\n      jump(tag_68)\n    tag_69:\n    tag_65:\n      pop\n      swap1\n      pop\n      tag_70\n      swap2\n      swap1\n      tag_71\n      jump\t// in\n    tag_70:\n      pop\n      swap1\n      jump\t// out\n    tag_71:\n    tag_72:\n      dup1\n      dup3\n      gt\n      iszero\n      tag_73\n      jumpi\n      0x00\n      dup2\n      0x00\n      swap1\n      sstore\n      pop\n      0x01\n      add\n      jump(tag_72)\n    tag_73:\n      pop\n      swap1\n      jump\t// out\n        /* \"#utility.yul\":7:419   */\n    tag_75:\n        /* \"#utility.yul\":85:90   */\n      0x00\n        /* \"#utility.yul\":110:176   */\n      tag_77\n        /* \"#utility.yul\":126:175   */\n      tag_78\n        /* \"#utility.yul\":168:174   */\n      dup5\n        /* \"#utility.yul\":126:175   */\n      tag_79\n      jump\t// in\n    tag_78:\n        /* \"#utility.yul\":110:176   */\n      tag_80\n      jump\t// in\n    tag_77:\n        /* \"#utility.yul\":101:176   */\n      swap1\n      pop\n        /* \"#utility.yul\":199:205   */\n      dup3\n        /* \"#utility.yul\":192:197   */\n      dup2\n        /* \"#utility.yul\":185:206   */\n      mstore\n        /* \"#utility.yul\":237:241   */\n      0x20\n        /* \"#utility.yul\":230:235   */\n      dup2\n        /* \"#utility.yul\":226:242   */\n      add\n        /* \"#utility.yul\":275:278   */\n      dup5\n        /* \"#utility.yul\":266:272   */\n      dup5\n        /* \"#utility.yul\":261:264   */\n      dup5\n        /* \"#utility.yul\":257:273   */\n      add\n        /* \"#utility.yul\":254:279   */\n      gt\n        /* \"#utility.yul\":251:363   */\n      iszero\n      tag_81\n      jumpi\n        /* \"#utility.yul\":282:361   */\n      tag_82\n      tag_83\n      jump\t// in\n    tag_82:\n        /* \"#utility.yul\":251:363   */\n    tag_81:\n        /* \"#utility.yul\":372:413   */\n      tag_84\n        /* \"#utility.yul\":406:412   */\n      dup5\n        /* \"#utility.yul\":401:404   */\n      dup3\n        /* \"#utility.yul\":396:399   */\n      dup6\n        /* \"#utility.yul\":372:413   */\n      tag_85\n      jump\t// in\n    tag_84:\n        /* \"#utility.yul\":91:419   */\n      pop\n        /* \"#utility.yul\":7:419   */\n      swap4\n      swap3\n      pop\n      pop\n      pop\n      jump\t// out\n        /* \"#utility.yul\":425:564   */\n    tag_86:\n        /* \"#utility.yul\":471:476   */\n      0x00\n        /* \"#utility.yul\":509:515   */\n      dup2\n        /* \"#utility.yul\":496:516   */\n      calldataload\n        /* \"#utility.yul\":487:516   */\n      swap1\n      pop\n        /* \"#utility.yul\":525:558   */\n      tag_88\n        /* \"#utility.yul\":552:557   */\n      dup2\n        /* \"#utility.yul\":525:558   */\n      tag_89\n      jump\t// in\n    tag_88:\n        /* \"#utility.yul\":425:564   */\n      swap3\n      swap2\n      pop\n      pop\n      jump\t// out\n        /* \"#utility.yul\":584:924   */\n    tag_90:\n        /* \"#utility.yul\":640:645   */\n      0x00\n        /* \"#utility.yul\":689:692   */\n      dup3\n        /* \"#utility.yul\":682:686   */\n      0x1f\n        /* \"#utility.yul\":674:680   */\n      dup4\n        /* \"#utility.yul\":670:687   */\n      add\n        /* \"#utility.yul\":666:693   */\n      slt\n        /* \"#utility.yul\":656:778   */\n      tag_92\n      jumpi\n        /* \"#utility.yul\":697:776   */\n      tag_93\n      tag_94\n      jump\t// in\n    tag_93:\n        /* \"#utility.yul\":656:778   */\n    tag_92:\n        /* \"#utility.yul\":814:820   */\n      dup2\n        /* \"#utility.yul\":801:821   */\n      calldataload\n        /* \"#utility.yul\":839:918   */\n      tag_95\n        /* \"#utility.yul\":914:917   */\n      dup5\n        /* \"#utility.yul\":906:912   */\n      dup3\n        /* \"#utility.yul\":899:903   */\n      0x20\n        /* \"#utility.yul\":891:897   */\n      dup7\n        /* \"#utility.yul\":887:904   */\n      add\n        /* \"#utility.yul\":839:918   */\n      tag_75\n      jump\t// in\n    tag_95:\n        /* \"#utility.yul\":830:918   */\n      swap2\n      pop\n        /* \"#utility.yul\":646:924   */\n      pop\n        /* \"#utility.yul\":584:924   */\n      swap3\n      swap2\n      pop\n      pop\n      jump\t// out\n        /* \"#utility.yul\":930:1069   */\n    tag_96:\n        /* \"#utility.yul\":976:981   */\n      0x00\n        /* \"#utility.yul\":1014:1020   */\n      dup2\n        /* \"#utility.yul\":1001:1021   */\n      calldataload\n        /* \"#utility.yul\":992:1021   */\n      swap1\n      pop\n        /* \"#utility.yul\":1030:1063   */\n      tag_98\n        /* \"#utility.yul\":1057:1062   */\n      dup2\n        /* \"#utility.yul\":1030:1063   */\n      tag_99\n      jump\t// in\n    tag_98:\n        /* \"#utility.yul\":930:1069   */\n      swap3\n      swap2\n      pop\n      pop\n      jump\t// out\n        /* \"#utility.yul\":1075:1404   */\n    tag_17:\n        /* \"#utility.yul\":1134:1140   */\n      0x00\n        /* \"#utility.yul\":1183:1185   */\n      0x20\n        /* \"#utility.yul\":1171:1180   */\n      dup3\n        /* \"#utility.yul\":1162:1169   */\n      dup5\n        /* \"#utility.yul\":1158:1181   */\n      sub\n        /* \"#utility.yul\":1154:1186   */\n      slt\n        /* \"#utility.yul\":1151:1270   */\n      iszero\n      tag_101\n      jumpi\n        /* \"#utility.yul\":1189:1268   */\n      tag_102\n      tag_103\n      jump\t// in\n    tag_102:\n        /* \"#utility.yul\":1151:1270   */\n    tag_101:\n        /* \"#utility.yul\":1309:1310   */\n      0x00\n        /* \"#utility.yul\":1334:1387   */\n      tag_104\n        /* \"#utility.yul\":1379:1386   */\n      dup5\n        /* \"#utility.yul\":1370:1376   */\n      dup3\n        /* \"#utility.yul\":1359:1368   */\n      dup6\n        /* \"#utility.yul\":1355:1377   */\n      add\n        /* \"#utility.yul\":1334:1387   */\n      tag_86\n      jump\t// in\n    tag_104:\n        /* \"#utility.yul\":1324:1387   */\n      swap2\n      pop\n        /* \"#utility.yul\":1280:1397   */\n      pop\n        /* \"#utility.yul\":1075:1404   */\n      swap3\n      swap2\n      pop\n      pop\n      jump\t// out\n        /* \"#utility.yul\":1410:1884   */\n    tag_13:\n        /* \"#utility.yul\":1478:1484   */\n      0x00\n        /* \"#utility.yul\":1486:1492   */\n      dup1\n        /* \"#utility.yul\":1535:1537   */\n      0x40\n        /* \"#utility.yul\":1523:1532   */\n      dup4\n        /* \"#utility.yul\":1514:1521   */\n      dup6\n        /* \"#utility.yul\":1510:1533   */\n      sub\n        /* \"#utility.yul\":1506:1538   */\n      slt\n        /* \"#utility.yul\":1503:1622   */\n      iszero\n      tag_106\n      jumpi\n        /* \"#utility.yul\":1541:1620   */\n      tag_107\n      tag_103\n      jump\t// in\n    tag_107:\n        /* \"#utility.yul\":1503:1622   */\n    tag_106:\n        /* \"#utility.yul\":1661:1662   */\n      0x00\n        /* \"#utility.yul\":1686:1739   */\n      tag_108\n        /* \"#utility.yul\":1731:1738   */\n      dup6\n        /* \"#utility.yul\":1722:1728   */\n      dup3\n        /* \"#utility.yul\":1711:1720   */\n      dup7\n        /* \"#utility.yul\":1707:1729   */\n      add\n        /* \"#utility.yul\":1686:1739   */\n      tag_86\n      jump\t// in\n    tag_108:\n        /* \"#utility.yul\":1676:1739   */\n      swap3\n      pop\n        /* \"#utility.yul\":1632:1749   */\n      pop\n        /* \"#utility.yul\":1788:1790   */\n      0x20\n        /* \"#utility.yul\":1814:1867   */\n      tag_109\n        /* \"#utility.yul\":1859:1866   */\n      dup6\n        /* \"#utility.yul\":1850:1856   */\n      dup3\n        /* \"#utility.yul\":1839:1848   */\n      dup7\n        /* \"#utility.yul\":1835:1857   */\n      add\n        /* \"#utility.yul\":1814:1867   */\n      tag_96\n      jump\t// in\n    tag_109:\n        /* \"#utility.yul\":1804:1867   */\n      swap2\n      pop\n        /* \"#utility.yul\":1759:1877   */\n      pop\n        /* \"#utility.yul\":1410:1884   */\n      swap3\n      pop\n      swap3\n      swap1\n      pop\n      jump\t// out\n        /* \"#utility.yul\":1890:2219   */\n    tag_33:\n        /* \"#utility.yul\":1949:1955   */\n      0x00\n        /* \"#utility.yul\":1998:2000   */\n      0x20\n        /* \"#utility.yul\":1986:1995   */\n      dup3\n        /* \"#utility.yul\":1977:1984   */\n      dup5\n        /* \"#utility.yul\":1973:1996   */\n      sub\n        /* \"#utility.yul\":1969:2001   */\n      slt\n        /* \"#utility.yul\":1966:2085   */\n      iszero\n      tag_111\n      jumpi\n        /* \"#utility.yul\":2004:2083   */\n      tag_112\n      tag_103\n      jump\t// in\n    tag_112:\n        /* \"#utility.yul\":1966:2085   */\n    tag_111:\n        /* \"#utility.yul\":2124:2125   */\n      0x00\n        /* \"#utility.yul\":2149:2202   */\n      tag_113\n        /* \"#utility.yul\":2194:2201   */\n      dup5\n        /* \"#utility.yul\":2185:2191   */\n      dup3\n        /* \"#utility.yul\":2174:2183   */\n      dup6\n        /* \"#utility.yul\":2170:2192   */\n      add\n        /* \"#utility.yul\":2149:2202   */\n      tag_96\n      jump\t// in\n    tag_113:\n        /* \"#utility.yul\":2139:2202   */\n      swap2\n      pop\n        /* \"#utility.yul\":2095:2212   */\n      pop\n        /* \"#utility.yul\":1890:2219   */\n      swap3\n      swap2\n      pop\n      pop\n      jump\t// out\n        /* \"#utility.yul\":2225:2879   */\n    tag_26:\n        /* \"#utility.yul\":2303:2309   */\n      0x00\n        /* \"#utility.yul\":2311:2317   */\n      dup1\n        /* \"#utility.yul\":2360:2362   */\n      0x40\n        /* \"#utility.yul\":2348:2357   */\n      dup4\n        /* \"#utility.yul\":2339:2346   */\n      dup6\n        /* \"#utility.yul\":2335:2358   */\n      sub\n        /* \"#utility.yul\":2331:2363   */\n      slt\n        /* \"#utility.yul\":2328:2447   */\n      iszero\n      tag_115\n      jumpi\n        /* \"#utility.yul\":2366:2445   */\n      tag_116\n      tag_103\n      jump\t// in\n    tag_116:\n        /* \"#utility.yul\":2328:2447   */\n    tag_115:\n        /* \"#utility.yul\":2486:2487   */\n      0x00\n        /* \"#utility.yul\":2511:2564   */\n      tag_117\n        /* \"#utility.yul\":2556:2563   */\n      dup6\n        /* \"#utility.yul\":2547:2553   */\n      dup3\n        /* \"#utility.yul\":2536:2545   */\n      dup7\n        /* \"#utility.yul\":2532:2554   */\n      add\n        /* \"#utility.yul\":2511:2564   */\n      tag_96\n      jump\t// in\n    tag_117:\n        /* \"#utility.yul\":2501:2564   */\n      swap3\n      pop\n        /* \"#utility.yul\":2457:2574   */\n      pop\n        /* \"#utility.yul\":2641:2643   */\n      0x20\n        /* \"#utility.yul\":2630:2639   */\n      dup4\n        /* \"#utility.yul\":2626:2644   */\n      add\n        /* \"#utility.yul\":2613:2645   */\n      calldataload\n        /* \"#utility.yul\":2672:2690   */\n      0xffffffffffffffff\n        /* \"#utility.yul\":2664:2670   */\n      dup2\n        /* \"#utility.yul\":2661:2691   */\n      gt\n        /* \"#utility.yul\":2658:2775   */\n      iszero\n      tag_118\n      jumpi\n        /* \"#utility.yul\":2694:2773   */\n      tag_119\n      tag_120\n      jump\t// in\n    tag_119:\n        /* \"#utility.yul\":2658:2775   */\n    tag_118:\n        /* \"#utility.yul\":2799:2862   */\n      tag_121\n        /* \"#utility.yul\":2854:2861   */\n      dup6\n        /* \"#utility.yul\":2845:2851   */\n      dup3\n        /* \"#utility.yul\":2834:2843   */\n      dup7\n        /* \"#utility.yul\":2830:2852   */\n      add\n        /* \"#utility.yul\":2799:2862   */\n      tag_90\n      jump\t// in\n    tag_121:\n        /* \"#utility.yul\":2789:2862   */\n      swap2\n      pop\n        /* \"#utility.yul\":2584:2872   */\n      pop\n        /* \"#utility.yul\":2225:2879   */\n      swap3\n      pop\n      swap3\n      swap1\n      pop\n      jump\t// out\n        /* \"#utility.yul\":2885:3249   */\n    tag_122:\n        /* \"#utility.yul\":2973:2976   */\n      0x00\n        /* \"#utility.yul\":3001:3040   */\n      tag_124\n        /* \"#utility.yul\":3034:3039   */\n      dup3\n        /* \"#utility.yul\":3001:3040   */\n      tag_125\n      jump\t// in\n    tag_124:\n        /* \"#utility.yul\":3056:3127   */\n      tag_126\n        /* \"#utility.yul\":3120:3126   */\n      dup2\n        /* \"#utility.yul\":3115:3118   */\n      dup6\n        /* \"#utility.yul\":3056:3127   */\n      tag_127\n      jump\t// in\n    tag_126:\n        /* \"#utility.yul\":3049:3127   */\n      swap4\n      pop\n        /* \"#utility.yul\":3136:3188   */\n      tag_128\n        /* \"#utility.yul\":3181:3187   */\n      dup2\n        /* \"#utility.yul\":3176:3179   */\n      dup6\n        /* \"#utility.yul\":3169:3173   */\n      0x20\n        /* \"#utility.yul\":3162:3167   */\n      dup7\n        /* \"#utility.yul\":3158:3174   */\n      add\n        /* \"#utility.yul\":3136:3188   */\n      tag_129\n      jump\t// in\n    tag_128:\n        /* \"#utility.yul\":3213:3242   */\n      tag_130\n        /* \"#utility.yul\":3235:3241   */\n      dup2\n        /* \"#utility.yul\":3213:3242   */\n      tag_131\n      jump\t// in\n    tag_130:\n        /* \"#utility.yul\":3208:3211   */\n      dup5\n        /* \"#utility.yul\":3204:3243   */\n      add\n        /* \"#utility.yul\":3197:3243   */\n      swap2\n      pop\n        /* \"#utility.yul\":2977:3249   */\n      pop\n        /* \"#utility.yul\":2885:3249   */\n      swap3\n      swap2\n      pop\n      pop\n      jump\t// out\n        /* \"#utility.yul\":3255:3373   */\n    tag_132:\n        /* \"#utility.yul\":3342:3366   */\n      tag_134\n        /* \"#utility.yul\":3360:3365   */\n      dup2\n        /* \"#utility.yul\":3342:3366   */\n      tag_135\n      jump\t// in\n    tag_134:\n        /* \"#utility.yul\":3337:3340   */\n      dup3\n        /* \"#utility.yul\":3330:3367   */\n      mstore\n        /* \"#utility.yul\":3255:3373   */\n      pop\n      pop\n      jump\t// out\n        /* \"#utility.yul\":3379:3692   */\n    tag_36:\n        /* \"#utility.yul\":3492:3496   */\n      0x00\n        /* \"#utility.yul\":3530:3532   */\n      0x20\n        /* \"#utility.yul\":3519:3528   */\n      dup3\n        /* \"#utility.yul\":3515:3533   */\n      add\n        /* \"#utility.yul\":3507:3533   */\n      swap1\n      pop\n        /* \"#utility.yul\":3579:3588   */\n      dup2\n        /* \"#utility.yul\":3573:3577   */\n      dup2\n        /* \"#utility.yul\":3569:3589   */\n      sub\n        /* \"#utility.yul\":3565:3566   */\n      0x00\n        /* \"#utility.yul\":3554:3563   */\n      dup4\n        /* \"#utility.yul\":3550:3567   */\n      add\n        /* \"#utility.yul\":3543:3590   */\n      mstore\n        /* \"#utility.yul\":3607:3685   */\n      tag_137\n        /* \"#utility.yul\":3680:3684   */\n      dup2\n        /* \"#utility.yul\":3671:3677   */\n      dup5\n        /* \"#utility.yul\":3607:3685   */\n      tag_122\n      jump\t// in\n    tag_137:\n        /* \"#utility.yul\":3599:3685   */\n      swap1\n      pop\n        /* \"#utility.yul\":3379:3692   */\n      swap3\n      swap2\n      pop\n      pop\n      jump\t// out\n        /* \"#utility.yul\":3698:3920   */\n    tag_23:\n        /* \"#utility.yul\":3791:3795   */\n      0x00\n        /* \"#utility.yul\":3829:3831   */\n      0x20\n        /* \"#utility.yul\":3818:3827   */\n      dup3\n        /* \"#utility.yul\":3814:3832   */\n      add\n        /* \"#utility.yul\":3806:3832   */\n      swap1\n      pop\n        /* \"#utility.yul\":3842:3913   */\n      tag_139\n        /* \"#utility.yul\":3910:3911   */\n      0x00\n        /* \"#utility.yul\":3899:3908   */\n      dup4\n        /* \"#utility.yul\":3895:3912   */\n      add\n        /* \"#utility.yul\":3886:3892   */\n      dup5\n        /* \"#utility.yul\":3842:3913   */\n      tag_132\n      jump\t// in\n    tag_139:\n        /* \"#utility.yul\":3698:3920   */\n      swap3\n      swap2\n      pop\n      pop\n      jump\t// out\n        /* \"#utility.yul\":3926:4055   */\n    tag_80:\n        /* \"#utility.yul\":3960:3966   */\n      0x00\n        /* \"#utility.yul\":3987:4007   */\n      tag_141\n      tag_142\n      jump\t// in\n    tag_141:\n        /* \"#utility.yul\":3977:4007   */\n      swap1\n      pop\n        /* \"#utility.yul\":4016:4049   */\n      tag_143\n        /* \"#utility.yul\":4044:4048   */\n      dup3\n        /* \"#utility.yul\":4036:4042   */\n      dup3\n        /* \"#utility.yul\":4016:4049   */\n      tag_144\n      jump\t// in\n    tag_143:\n        /* \"#utility.yul\":3926:4055   */\n      swap2\n      swap1\n      pop\n      jump\t// out\n        /* \"#utility.yul\":4061:4136   */\n    tag_142:\n        /* \"#utility.yul\":4094:4100   */\n      0x00\n        /* \"#utility.yul\":4127:4129   */\n      0x40\n        /* \"#utility.yul\":4121:4130   */\n      mload\n        /* \"#utility.yul\":4111:4130   */\n      swap1\n      pop\n        /* \"#utility.yul\":4061:4136   */\n      swap1\n      jump\t// out\n        /* \"#utility.yul\":4142:4450   */\n    tag_79:\n        /* \"#utility.yul\":4204:4208   */\n      0x00\n        /* \"#utility.yul\":4294:4312   */\n      0xffffffffffffffff\n        /* \"#utility.yul\":4286:4292   */\n      dup3\n        /* \"#utility.yul\":4283:4313   */\n      gt\n        /* \"#utility.yul\":4280:4336   */\n      iszero\n      tag_147\n      jumpi\n        /* \"#utility.yul\":4316:4334   */\n      tag_148\n      tag_149\n      jump\t// in\n    tag_148:\n        /* \"#utility.yul\":4280:4336   */\n    tag_147:\n        /* \"#utility.yul\":4354:4383   */\n      tag_150\n        /* \"#utility.yul\":4376:4382   */\n      dup3\n        /* \"#utility.yul\":4354:4383   */\n      tag_131\n      jump\t// in\n    tag_150:\n        /* \"#utility.yul\":4346:4383   */\n      swap1\n      pop\n        /* \"#utility.yul\":4438:4442   */\n      0x20\n        /* \"#utility.yul\":4432:4436   */\n      dup2\n        /* \"#utility.yul\":4428:4443   */\n      add\n        /* \"#utility.yul\":4420:4443   */\n      swap1\n      pop\n        /* \"#utility.yul\":4142:4450   */\n      swap2\n      swap1\n      pop\n      jump\t// out\n        /* \"#utility.yul\":4456:4555   */\n    tag_125:\n        /* \"#utility.yul\":4508:4514   */\n      0x00\n        /* \"#utility.yul\":4542:4547   */\n      dup2\n        /* \"#utility.yul\":4536:4548   */\n      mload\n        /* \"#utility.yul\":4526:4548   */\n      swap1\n      pop\n        /* \"#utility.yul\":4456:4555   */\n      swap2\n      swap1\n      pop\n      jump\t// out\n        /* \"#utility.yul\":4561:4730   */\n    tag_127:\n        /* \"#utility.yul\":4645:4656   */\n      0x00\n        /* \"#utility.yul\":4679:4685   */\n      dup3\n        /* \"#utility.yul\":4674:4677   */\n      dup3\n        /* \"#utility.yul\":4667:4686   */\n      mstore\n        /* \"#utility.yul\":4719:4723   */\n      0x20\n        /* \"#utility.yul\":4714:4717   */\n      dup3\n        /* \"#utility.yul\":4710:4724   */\n      add\n        /* \"#utility.yul\":4695:4724   */\n      swap1\n      pop\n        /* \"#utility.yul\":4561:4730   */\n      swap3\n      swap2\n      pop\n      pop\n      jump\t// out\n        /* \"#utility.yul\":4736:4832   */\n    tag_153:\n        /* \"#utility.yul\":4773:4780   */\n      0x00\n        /* \"#utility.yul\":4802:4826   */\n      tag_155\n        /* \"#utility.yul\":4820:4825   */\n      dup3\n        /* \"#utility.yul\":4802:4826   */\n      tag_156\n      jump\t// in\n    tag_155:\n        /* \"#utility.yul\":4791:4826   */\n      swap1\n      pop\n        /* \"#utility.yul\":4736:4832   */\n      swap2\n      swap1\n      pop\n      jump\t// out\n        /* \"#utility.yul\":4838:4964   */\n    tag_156:\n        /* \"#utility.yul\":4875:4882   */\n      0x00\n        /* \"#utility.yul\":4915:4957   */\n      0xffffffffffffffffffffffffffffffffffffffff\n        /* \"#utility.yul\":4908:4913   */\n      dup3\n        /* \"#utility.yul\":4904:4958   */\n      and\n        /* \"#utility.yul\":4893:4958   */\n      swap1\n      pop\n        /* \"#utility.yul\":4838:4964   */\n      swap2\n      swap1\n      pop\n      jump\t// out\n        /* \"#utility.yul\":4970:5047   */\n    tag_135:\n        /* \"#utility.yul\":5007:5014   */\n      0x00\n        /* \"#utility.yul\":5036:5041   */\n      dup2\n        /* \"#utility.yul\":5025:5041   */\n      swap1\n      pop\n        /* \"#utility.yul\":4970:5047   */\n      swap2\n      swap1\n      pop\n      jump\t// out\n        /* \"#utility.yul\":5053:5207   */\n    tag_85:\n        /* \"#utility.yul\":5137:5143   */\n      dup3\n        /* \"#utility.yul\":5132:5135   */\n      dup2\n        /* \"#utility.yul\":5127:5130   */\n      dup4\n        /* \"#utility.yul\":5114:5144   */\n      calldatacopy\n        /* \"#utility.yul\":5199:5200   */\n      0x00\n        /* \"#utility.yul\":5190:5196   */\n      dup4\n        /* \"#utility.yul\":5185:5188   */\n      dup4\n        /* \"#utility.yul\":5181:5197   */\n      add\n        /* \"#utility.yul\":5174:5201   */\n      mstore\n        /* \"#utility.yul\":5053:5207   */\n      pop\n      pop\n      pop\n      jump\t// out\n        /* \"#utility.yul\":5213:5520   */\n    tag_129:\n        /* \"#utility.yul\":5281:5282   */\n      0x00\n        /* \"#utility.yul\":5291:5404   */\n    tag_161:\n        /* \"#utility.yul\":5305:5311   */\n      dup4\n        /* \"#utility.yul\":5302:5303   */\n      dup2\n        /* \"#utility.yul\":5299:5312   */\n      lt\n        /* \"#utility.yul\":5291:5404   */\n      iszero\n      tag_163\n      jumpi\n        /* \"#utility.yul\":5390:5391   */\n      dup1\n        /* \"#utility.yul\":5385:5388   */\n      dup3\n        /* \"#utility.yul\":5381:5392   */\n      add\n        /* \"#utility.yul\":5375:5393   */\n      mload\n        /* \"#utility.yul\":5371:5372   */\n      dup2\n        /* \"#utility.yul\":5366:5369   */\n      dup5\n        /* \"#utility.yul\":5362:5373   */\n      add\n        /* \"#utility.yul\":5355:5394   */\n      mstore\n        /* \"#utility.yul\":5327:5329   */\n      0x20\n        /* \"#utility.yul\":5324:5325   */\n      dup2\n        /* \"#utility.yul\":5320:5330   */\n      add\n        /* \"#utility.yul\":5315:5330   */\n      swap1\n      pop\n        /* \"#utility.yul\":5291:5404   */\n      jump(tag_161)\n    tag_163:\n        /* \"#utility.yul\":5422:5428   */\n      dup4\n        /* \"#utility.yul\":5419:5420   */\n      dup2\n        /* \"#utility.yul\":5416:5429   */\n      gt\n        /* \"#utility.yul\":5413:5514   */\n      iszero\n      tag_164\n      jumpi\n        /* \"#utility.yul\":5502:5503   */\n      0x00\n        /* \"#utility.yul\":5493:5499   */\n      dup5\n        /* \"#utility.yul\":5488:5491   */\n      dup5\n        /* \"#utility.yul\":5484:5500   */\n      add\n        /* \"#utility.yul\":5477:5504   */\n      mstore\n        /* \"#utility.yul\":5413:5514   */\n    tag_164:\n        /* \"#utility.yul\":5262:5520   */\n      pop\n        /* \"#utility.yul\":5213:5520   */\n      pop\n      pop\n      pop\n      jump\t// out\n        /* \"#utility.yul\":5526:5846   */\n    tag_58:\n        /* \"#utility.yul\":5570:5576   */\n      0x00\n        /* \"#utility.yul\":5607:5608   */\n      0x02\n        /* \"#utility.yul\":5601:5605   */\n      dup3\n        /* \"#utility.yul\":5597:5609   */\n      div\n        /* \"#utility.yul\":5587:5609   */\n      swap1\n      pop\n        /* \"#utility.yul\":5654:5655   */\n      0x01\n        /* \"#utility.yul\":5648:5652   */\n      dup3\n        /* \"#utility.yul\":5644:5656   */\n      and\n        /* \"#utility.yul\":5675:5693   */\n      dup1\n        /* \"#utility.yul\":5665:5746   */\n      tag_166\n      jumpi\n        /* \"#utility.yul\":5731:5735   */\n      0x7f\n        /* \"#utility.yul\":5723:5729   */\n      dup3\n        /* \"#utility.yul\":5719:5736   */\n      and\n        /* \"#utility.yul\":5709:5736   */\n      swap2\n      pop\n        /* \"#utility.yul\":5665:5746   */\n    tag_166:\n        /* \"#utility.yul\":5793:5795   */\n      0x20\n        /* \"#utility.yul\":5785:5791   */\n      dup3\n        /* \"#utility.yul\":5782:5796   */\n      lt\n        /* \"#utility.yul\":5762:5780   */\n      dup2\n        /* \"#utility.yul\":5759:5797   */\n      eq\n        /* \"#utility.yul\":5756:5840   */\n      iszero\n      tag_167\n      jumpi\n        /* \"#utility.yul\":5812:5830   */\n      tag_168\n      tag_169\n      jump\t// in\n    tag_168:\n        /* \"#utility.yul\":5756:5840   */\n    tag_167:\n        /* \"#utility.yul\":5577:5846   */\n      pop\n        /* \"#utility.yul\":5526:5846   */\n      swap2\n      swap1\n      pop\n      jump\t// out\n        /* \"#utility.yul\":5852:6133   */\n    tag_144:\n        /* \"#utility.yul\":5935:5962   */\n      tag_171\n        /* \"#utility.yul\":5957:5961   */\n      dup3\n        /* \"#utility.yul\":5935:5962   */\n      tag_131\n      jump\t// in\n    tag_171:\n        /* \"#utility.yul\":5927:5933   */\n      dup2\n        /* \"#utility.yul\":5923:5963   */\n      add\n        /* \"#utility.yul\":6065:6071   */\n      dup2\n        /* \"#utility.yul\":6053:6063   */\n      dup2\n        /* \"#utility.yul\":6050:6072   */\n      lt\n        /* \"#utility.yul\":6029:6047   */\n      0xffffffffffffffff\n        /* \"#utility.yul\":6017:6027   */\n      dup3\n        /* \"#utility.yul\":6014:6048   */\n      gt\n        /* \"#utility.yul\":6011:6073   */\n      or\n        /* \"#utility.yul\":6008:6096   */\n      iszero\n      tag_172\n      jumpi\n        /* \"#utility.yul\":6076:6094   */\n      tag_173\n      tag_149\n      jump\t// in\n    tag_173:\n        /* \"#utility.yul\":6008:6096   */\n    tag_172:\n        /* \"#utility.yul\":6116:6126   */\n      dup1\n        /* \"#utility.yul\":6112:6114   */\n      0x40\n        /* \"#utility.yul\":6105:6127   */\n      mstore\n        /* \"#utility.yul\":5895:6133   */\n      pop\n        /* \"#utility.yul\":5852:6133   */\n      pop\n      pop\n      jump\t// out\n        /* \"#utility.yul\":6139:6319   */\n    tag_169:\n        /* \"#utility.yul\":6187:6264   */\n      0x4e487b7100000000000000000000000000000000000000000000000000000000\n        /* \"#utility.yul\":6184:6185   */\n      0x00\n        /* \"#utility.yul\":6177:6265   */\n      mstore\n        /* \"#utility.yul\":6284:6288   */\n      0x22\n        /* \"#utility.yul\":6281:6282   */\n      0x04\n        /* \"#utility.yul\":6274:6289   */\n      mstore\n        /* \"#utility.yul\":6308:6312   */\n      0x24\n        /* \"#utility.yul\":6305:6306   */\n      0x00\n        /* \"#utility.yul\":6298:6313   */\n      revert\n        /* \"#utility.yul\":6325:6505   */\n    tag_46:\n        /* \"#utility.yul\":6373:6450   */\n      0x4e487b7100000000000000000000000000000000000000000000000000000000\n        /* \"#utility.yul\":6370:6371   */\n      0x00\n        /* \"#utility.yul\":6363:6451   */\n      mstore\n        /* \"#utility.yul\":6470:6474   */\n      0x32\n        /* \"#utility.yul\":6467:6468   */\n      0x04\n        /* \"#utility.yul\":6460:6475   */\n      mstore\n        /* \"#utility.yul\":6494:6498   */\n      0x24\n        /* \"#utility.yul\":6491:6492   */\n      0x00\n        /* \"#utility.yul\":6484:6499   */\n      revert\n        /* \"#utility.yul\":6511:6691   */\n    tag_149:\n        /* \"#utility.yul\":6559:6636   */\n      0x4e487b7100000000000000000000000000000000000000000000000000000000\n        /* \"#utility.yul\":6556:6557   */\n      0x00\n        /* \"#utility.yul\":6549:6637   */\n      mstore\n        /* \"#utility.yul\":6656:6660   */\n      0x41\n        /* \"#utility.yul\":6653:6654   */\n      0x04\n        /* \"#utility.yul\":6646:6661   */\n      mstore\n        /* \"#utility.yul\":6680:6684   */\n      0x24\n        /* \"#utility.yul\":6677:6678   */\n      0x00\n        /* \"#utility.yul\":6670:6685   */\n      revert\n        /* \"#utility.yul\":6697:6814   */\n    tag_94:\n        /* \"#utility.yul\":6806:6807   */\n      0x00\n        /* \"#utility.yul\":6803:6804   */\n      dup1\n        /* \"#utility.yul\":6796:6808   */\n      revert\n        /* \"#utility.yul\":6820:6937   */\n    tag_83:\n        /* \"#utility.yul\":6929:6930   */\n      0x00\n        /* \"#utility.yul\":6926:6927   */\n      dup1\n        /* \"#utility.yul\":6919:6931   */\n      revert\n        /* \"#utility.yul\":6943:7060   */\n    tag_120:\n        /* \"#utility.yul\":7052:7053   */\n      0x00\n        /* \"#utility.yul\":7049:7050   */\n      dup1\n        /* \"#utility.yul\":7042:7054   */\n      revert\n        /* \"#utility.yul\":7066:7183   */\n    tag_103:\n        /* \"#utility.yul\":7175:7176   */\n      0x00\n        /* \"#utility.yul\":7172:7173   */\n      dup1\n        /* \"#utility.yul\":7165:7177   */\n      revert\n        /* \"#utility.yul\":7189:7291   */\n    tag_131:\n        /* \"#utility.yul\":7230:7236   */\n      0x00\n        /* \"#utility.yul\":7281:7283   */\n      0x1f\n        /* \"#utility.yul\":7277:7284   */\n      not\n        /* \"#utility.yul\":7272:7274   */\n      0x1f\n        /* \"#utility.yul\":7265:7270   */\n      dup4\n        /* \"#utility.yul\":7261:7275   */\n      add\n        /* \"#utility.yul\":7257:7285   */\n      and\n        /* \"#utility.yul\":7247:7285   */\n      swap1\n      pop\n        /* \"#utility.yul\":7189:7291   */\n      swap2\n      swap1\n      pop\n      jump\t// out\n        /* \"#utility.yul\":7297:7419   */\n    tag_89:\n        /* \"#utility.yul\":7370:7394   */\n      tag_183\n        /* \"#utility.yul\":7388:7393   */\n      dup2\n        /* \"#utility.yul\":7370:7394   */\n      tag_153\n      jump\t// in\n    tag_183:\n        /* \"#utility.yul\":7363:7368   */\n      dup2\n        /* \"#utility.yul\":7360:7395   */\n      eq\n        /* \"#utility.yul\":7350:7413   */\n      tag_184\n      jumpi\n        /* \"#utility.yul\":7409:7410   */\n      0x00\n        /* \"#utility.yul\":7406:7407   */\n      dup1\n        /* \"#utility.yul\":7399:7411   */\n      revert\n        /* \"#utility.yul\":7350:7413   */\n    tag_184:\n        /* \"#utility.yul\":7297:7419   */\n      pop\n      jump\t// out\n        /* \"#utility.yul\":7425:7547   */\n    tag_99:\n        /* \"#utility.yul\":7498:7522   */\n      tag_186\n        /* \"#utility.yul\":7516:7521   */\n      dup2\n        /* \"#utility.yul\":7498:7522   */\n      tag_135\n      jump\t// in\n    tag_186:\n        /* \"#utility.yul\":7491:7496   */\n      dup2\n        /* \"#utility.yul\":7488:7523   */\n      eq\n        /* \"#utility.yul\":7478:7541   */\n      tag_187\n      jumpi\n        /* \"#utility.yul\":7537:7538   */\n      0x00\n        /* \"#utility.yul\":7534:7535   */\n      dup1\n        /* \"#utility.yul\":7527:7539   */\n      revert\n        /* \"#utility.yul\":7478:7541   */\n    tag_187:\n        /* \"#utility.yul\":7425:7547   */\n      pop\n      jump\t// out\n\n    auxdata: 0xa2646970667358221220a7807402e6c371b0ccad0df479fb235176f00b14d46413ec9a8aac0ec986785e64736f6c63430008070033\n}\n",
				"bytecode": {
					"linkReferences": {},
					"object": "608060405260405180606001604052806040518060400160405280600581526020017f6170706c6500000000000000000000000000000000000000000000000000000081525081526020016040518060400160405280600681526020017f62616e616e61000000000000000000000000000000000000000000000000000081525081526020016040518060400160405280600781526020017f636f636f6e7574000000000000000000000000000000000000000000000000008152508152506001906003620000d0929190620000e5565b50348015620000de57600080fd5b50620002c2565b82600581019282156200012c579160200282015b828111156200012b5782518290805190602001906200011a9291906200013f565b5091602001919060010190620000f9565b5b5090506200013b9190620001d0565b5090565b8280546200014d906200025d565b90600052602060002090601f016020900481019282620001715760008555620001bd565b82601f106200018c57805160ff1916838001178555620001bd565b82800160010185558215620001bd579182015b82811115620001bc5782518255916020019190600101906200019f565b5b509050620001cc9190620001f8565b5090565b5b80821115620001f45760008181620001ea919062000217565b50600101620001d1565b5090565b5b8082111562000213576000816000905550600101620001f9565b5090565b50805462000225906200025d565b6000825580601f106200023957506200025a565b601f016020900490600052602060002090810190620002599190620001f8565b5b50565b600060028204905060018216806200027657607f821691505b602082108114156200028d576200028c62000293565b5b50919050565b7f4e487b7100000000000000000000000000000000000000000000000000000000600052602260045260246000fd5b6108d180620002d26000396000f3fe608060405234801561001057600080fd5b506004361061007d5760003560e01c80632b9ef2811161005b5780632b9ef281146100ea57806335f5dcf41461010657806338d941931461012257806372233c5e146101525761007d565b806314a0bdb314610082578063215fef2f1461009e57806327e235e3146100ba575b600080fd5b61009c6004803603810190610097919061051a565b610182565b005b6100b860048036038101906100b391906104ed565b6101c9565b005b6100d460048036038101906100cf91906104ed565b61020e565b6040516100e1919061064d565b60405180910390f35b61010460048036038101906100ff9190610587565b610226565b005b610120600480360381019061011b91906104ed565b61027e565b005b61013c6004803603810190610137919061055a565b6102c5565b604051610149919061062b565b60405180910390f35b61016c600480360381019061016791906104ed565b610368565b604051610179919061064d565b60405180910390f35b806000808473ffffffffffffffffffffffffffffffffffffffff1673ffffffffffffffffffffffffffffffffffffffff168152602001908152602001600020819055505050565b6000808273ffffffffffffffffffffffffffffffffffffffff1673ffffffffffffffffffffffffffffffffffffffff1681526020019081526020016000206000905550565b60006020528060005260406000206000915090505481565b806001836005811061023b5761023a6107ea565b5b01908051906020019061024f9291906103b0565b508060018360058110610265576102646107ea565b5b0190805190602001906102799291906103b0565b505050565b60008060008373ffffffffffffffffffffffffffffffffffffffff1673ffffffffffffffffffffffffffffffffffffffff1681526020019081526020016000208190555050565b600181600581106102d557600080fd5b0160009150905080546102e790610758565b80601f016020809104026020016040519081016040528092919081815260200182805461031390610758565b80156103605780601f1061033557610100808354040283529160200191610360565b820191906000526020600020905b81548152906001019060200180831161034357829003601f168201915b505050505081565b60008060008373ffffffffffffffffffffffffffffffffffffffff1673ffffffffffffffffffffffffffffffffffffffff168152602001908152602001600020549050919050565b8280546103bc90610758565b90600052602060002090601f0160209004810192826103de5760008555610425565b82601f106103f757805160ff1916838001178555610425565b82800160010185558215610425579182015b82811115610424578251825591602001919060010190610409565b5b5090506104329190610436565b5090565b5b8082111561044f576000816000905550600101610437565b5090565b60006104666104618461068d565b610668565b9050828152602081018484840111156104825761048161084d565b5b61048d848285610716565b509392505050565b6000813590506104a48161086d565b92915050565b600082601f8301126104bf576104be610848565b5b81356104cf848260208601610453565b91505092915050565b6000813590506104e781610884565b92915050565b60006020828403121561050357610502610857565b5b600061051184828501610495565b91505092915050565b6000806040838503121561053157610530610857565b5b600061053f85828601610495565b9250506020610550858286016104d8565b9150509250929050565b6000602082840312156105705761056f610857565b5b600061057e848285016104d8565b91505092915050565b6000806040838503121561059e5761059d610857565b5b60006105ac858286016104d8565b925050602083013567ffffffffffffffff8111156105cd576105cc610852565b5b6105d9858286016104aa565b9150509250929050565b60006105ee826106be565b6105f881856106c9565b9350610608818560208601610725565b6106118161085c565b840191505092915050565b6106258161070c565b82525050565b6000602082019050818103600083015261064581846105e3565b905092915050565b6000602082019050610662600083018461061c565b92915050565b6000610672610683565b905061067e828261078a565b919050565b6000604051905090565b600067ffffffffffffffff8211156106a8576106a7610819565b5b6106b18261085c565b9050602081019050919050565b600081519050919050565b600082825260208201905092915050565b60006106e5826106ec565b9050919050565b600073ffffffffffffffffffffffffffffffffffffffff82169050919050565b6000819050919050565b82818337600083830152505050565b60005b83811015610743578082015181840152602081019050610728565b83811115610752576000848401525b50505050565b6000600282049050600182168061077057607f821691505b60208210811415610784576107836107bb565b5b50919050565b6107938261085c565b810181811067ffffffffffffffff821117156107b2576107b1610819565b5b80604052505050565b7f4e487b7100000000000000000000000000000000000000000000000000000000600052602260045260246000fd5b7f4e487b7100000000000000000000000000000000000000000000000000000000600052603260045260246000fd5b7f4e487b7100000000000000000000000000000000000000000000000000000000600052604160045260246000fd5b600080fd5b600080fd5b600080fd5b600080fd5b6000601f19601f8301169050919050565b610876816106da565b811461088157600080fd5b50565b61088d8161070c565b811461089857600080fd5b5056fea2646970667358221220a7807402e6c371b0ccad0df479fb235176f00b14d46413ec9a8aac0ec986785e64736f6c63430008070033",
					"opcodes": "PUSH1 0x80 PUSH1 0x40 MSTORE PUSH1 0x40 MLOAD DUP1 PUSH1 0x60 ADD PUSH1 0x40 MSTORE DUP1 PUSH1 0x40 MLOAD DUP1 PUSH1 0x40 ADD PUSH1 0x40 MSTORE DUP1 PUSH1 0x5 DUP2 MSTORE PUSH1 0x20 ADD PUSH32 0x6170706C65000000000000000000000000000000000000000000000000000000 DUP2 MSTORE POP DUP2 MSTORE PUSH1 0x20 ADD PUSH1 0x40 MLOAD DUP1 PUSH1 0x40 ADD PUSH1 0x40 MSTORE DUP1 PUSH1 0x6 DUP2 MSTORE PUSH1 0x20 ADD PUSH32 0x62616E616E610000000000000000000000000000000000000000000000000000 DUP2 MSTORE POP DUP2 MSTORE PUSH1 0x20 ADD PUSH1 0x40 MLOAD DUP1 PUSH1 0x40 ADD PUSH1 0x40 MSTORE DUP1 PUSH1 0x7 DUP2 MSTORE PUSH1 0x20 ADD PUSH32 0x636F636F6E757400000000000000000000000000000000000000000000000000 DUP2 MSTORE POP DUP2 MSTORE POP PUSH1 0x1 SWAP1 PUSH1 0x3 PUSH3 0xD0 SWAP3 SWAP2 SWAP1 PUSH3 0xE5 JUMP JUMPDEST POP CALLVALUE DUP1 ISZERO PUSH3 0xDE JUMPI PUSH1 0x0 DUP1 REVERT JUMPDEST POP PUSH3 0x2C2 JUMP JUMPDEST DUP3 PUSH1 0x5 DUP2 ADD SWAP3 DUP3 ISZERO PUSH3 0x12C JUMPI SWAP2 PUSH1 0x20 MUL DUP3 ADD JUMPDEST DUP3 DUP2 GT ISZERO PUSH3 0x12B JUMPI DUP3 MLOAD DUP3 SWAP1 DUP1 MLOAD SWAP1 PUSH1 0x20 ADD SWAP1 PUSH3 0x11A SWAP3 SWAP2 SWAP1 PUSH3 0x13F JUMP JUMPDEST POP SWAP2 PUSH1 0x20 ADD SWAP2 SWAP1 PUSH1 0x1 ADD SWAP1 PUSH3 0xF9 JUMP JUMPDEST JUMPDEST POP SWAP1 POP PUSH3 0x13B SWAP2 SWAP1 PUSH3 0x1D0 JUMP JUMPDEST POP SWAP1 JUMP JUMPDEST DUP3 DUP1 SLOAD PUSH3 0x14D SWAP1 PUSH3 0x25D JUMP JUMPDEST SWAP1 PUSH1 0x0 MSTORE PUSH1 0x20 PUSH1 0x0 KECCAK256 SWAP1 PUSH1 0x1F ADD PUSH1 0x20 SWAP1 DIV DUP2 ADD SWAP3 DUP3 PUSH3 0x171 JUMPI PUSH1 0x0 DUP6 SSTORE PUSH3 0x1BD JUMP JUMPDEST DUP3 PUSH1 0x1F LT PUSH3 0x18C JUMPI DUP1 MLOAD PUSH1 0xFF NOT AND DUP4 DUP1 ADD OR DUP6 SSTORE PUSH3 0x1BD JUMP JUMPDEST DUP3 DUP1 ADD PUSH1 0x1 ADD DUP6 SSTORE DUP3 ISZERO PUSH3 0x1BD JUMPI SWAP2 DUP3 ADD JUMPDEST DUP3 DUP2 GT ISZERO PUSH3 0x1BC JUMPI DUP3 MLOAD DUP3 SSTORE SWAP2 PUSH1 0x20 ADD SWAP2 SWAP1 PUSH1 0x1 ADD SWAP1 PUSH3 0x19F JUMP JUMPDEST JUMPDEST POP SWAP1 POP PUSH3 0x1CC SWAP2 SWAP1 PUSH3 0x1F8 JUMP JUMPDEST POP SWAP1 JUMP JUMPDEST JUMPDEST DUP1 DUP3 GT ISZERO PUSH3 0x1F4 JUMPI PUSH1 0x0 DUP2 DUP2 PUSH3 0x1EA SWAP2 SWAP1 PUSH3 0x217 JUMP JUMPDEST POP PUSH1 0x1 ADD PUSH3 0x1D1 JUMP JUMPDEST POP SWAP1 JUMP JUMPDEST JUMPDEST DUP1 DUP3 GT ISZERO PUSH3 0x213 JUMPI PUSH1 0x0 DUP2 PUSH1 0x0 SWAP1 SSTORE POP PUSH1 0x1 ADD PUSH3 0x1F9 JUMP JUMPDEST POP SWAP1 JUMP JUMPDEST POP DUP1 SLOAD PUSH3 0x225 SWAP1 PUSH3 0x25D JUMP JUMPDEST PUSH1 0x0 DUP3 SSTORE DUP1 PUSH1 0x1F LT PUSH3 0x239 JUMPI POP PUSH3 0x25A JUMP JUMPDEST PUSH1 0x1F ADD PUSH1 0x20 SWAP1 DIV SWAP1 PUSH1 0x0 MSTORE PUSH1 0x20 PUSH1 0x0 KECCAK256 SWAP1 DUP2 ADD SWAP1 PUSH3 0x259 SWAP2 SWAP1 PUSH3 0x1F8 JUMP JUMPDEST JUMPDEST POP JUMP JUMPDEST PUSH1 0x0 PUSH1 0x2 DUP3 DIV SWAP1 POP PUSH1 0x1 DUP3 AND DUP1 PUSH3 0x276 JUMPI PUSH1 0x7F DUP3 AND SWAP2 POP JUMPDEST PUSH1 0x20 DUP3 LT DUP2 EQ ISZERO PUSH3 0x28D JUMPI PUSH3 0x28C PUSH3 0x293 JUMP JUMPDEST JUMPDEST POP SWAP2 SWAP1 POP JUMP JUMPDEST PUSH32 0x4E487B7100000000000000000000000000000000000000000000000000000000 PUSH1 0x0 MSTORE PUSH1 0x22 PUSH1 0x4 MSTORE PUSH1 0x24 PUSH1 0x0 REVERT JUMPDEST PUSH2 0x8D1 DUP1 PUSH3 0x2D2 PUSH1 0x0 CODECOPY PUSH1 0x0 RETURN INVALID PUSH1 0x80 PUSH1 0x40 MSTORE CALLVALUE DUP1 ISZERO PUSH2 0x10 JUMPI PUSH1 0x0 DUP1 REVERT JUMPDEST POP PUSH1 0x4 CALLDATASIZE LT PUSH2 0x7D JUMPI PUSH1 0x0 CALLDATALOAD PUSH1 0xE0 SHR DUP1 PUSH4 0x2B9EF281 GT PUSH2 0x5B JUMPI DUP1 PUSH4 0x2B9EF281 EQ PUSH2 0xEA JUMPI DUP1 PUSH4 0x35F5DCF4 EQ PUSH2 0x106 JUMPI DUP1 PUSH4 0x38D94193 EQ PUSH2 0x122 JUMPI DUP1 PUSH4 0x72233C5E EQ PUSH2 0x152 JUMPI PUSH2 0x7D JUMP JUMPDEST DUP1 PUSH4 0x14A0BDB3 EQ PUSH2 0x82 JUMPI DUP1 PUSH4 0x215FEF2F EQ PUSH2 0x9E JUMPI DUP1 PUSH4 0x27E235E3 EQ PUSH2 0xBA JUMPI JUMPDEST PUSH1 0x0 DUP1 REVERT JUMPDEST PUSH2 0x9C PUSH1 0x4 DUP1 CALLDATASIZE SUB DUP2 ADD SWAP1 PUSH2 0x97 SWAP2 SWAP1 PUSH2 0x51A JUMP JUMPDEST PUSH2 0x182 JUMP JUMPDEST STOP JUMPDEST PUSH2 0xB8 PUSH1 0x4 DUP1 CALLDATASIZE SUB DUP2 ADD SWAP1 PUSH2 0xB3 SWAP2 SWAP1 PUSH2 0x4ED JUMP JUMPDEST PUSH2 0x1C9 JUMP JUMPDEST STOP JUMPDEST PUSH2 0xD4 PUSH1 0x4 DUP1 CALLDATASIZE SUB DUP2 ADD SWAP1 PUSH2 0xCF SWAP2 SWAP1 PUSH2 0x4ED JUMP JUMPDEST PUSH2 0x20E JUMP JUMPDEST PUSH1 0x40 MLOAD PUSH2 0xE1 SWAP2 SWAP1 PUSH2 0x64D JUMP JUMPDEST PUSH1 0x40 MLOAD DUP1 SWAP2 SUB SWAP1 RETURN JUMPDEST PUSH2 0x104 PUSH1 0x4 DUP1 CALLDATASIZE SUB DUP2 ADD SWAP1 PUSH2 0xFF SWAP2 SWAP1 PUSH2 0x587 JUMP JUMPDEST PUSH2 0x226 JUMP JUMPDEST STOP JUMPDEST PUSH2 0x120 PUSH1 0x4 DUP1 CALLDATASIZE SUB DUP2 ADD SWAP1 PUSH2 0x11B SWAP2 SWAP1 PUSH2 0x4ED JUMP JUMPDEST PUSH2 0x27E JUMP JUMPDEST STOP JUMPDEST PUSH2 0x13C PUSH1 0x4 DUP1 CALLDATASIZE SUB DUP2 ADD SWAP1 PUSH2 0x137 SWAP2 SWAP1 PUSH2 0x55A JUMP JUMPDEST PUSH2 0x2C5 JUMP JUMPDEST PUSH1 0x40 MLOAD PUSH2 0x149 SWAP2 SWAP1 PUSH2 0x62B JUMP JUMPDEST PUSH1 0x40 MLOAD DUP1 SWAP2 SUB SWAP1 RETURN JUMPDEST PUSH2 0x16C PUSH1 0x4 DUP1 CALLDATASIZE SUB DUP2 ADD SWAP1 PUSH2 0x167 SWAP2 SWAP1 PUSH2 0x4ED JUMP JUMPDEST PUSH2 0x368 JUMP JUMPDEST PUSH1 0x40 MLOAD PUSH2 0x179 SWAP2 SWAP1 PUSH2 0x64D JUMP JUMPDEST PUSH1 0x40 MLOAD DUP1 SWAP2 SUB SWAP1 RETURN JUMPDEST DUP1 PUSH1 0x0 DUP1 DUP5 PUSH20 0xFFFFFFFFFFFFFFFFFFFFFFFFFFFFFFFFFFFFFFFF AND PUSH20 0xFFFFFFFFFFFFFFFFFFFFFFFFFFFFFFFFFFFFFFFF AND DUP2 MSTORE PUSH1 0x20 ADD SWAP1 DUP2 MSTORE PUSH1 0x20 ADD PUSH1 0x0 KECCAK256 DUP2 SWAP1 SSTORE POP POP POP JUMP JUMPDEST PUSH1 0x0 DUP1 DUP3 PUSH20 0xFFFFFFFFFFFFFFFFFFFFFFFFFFFFFFFFFFFFFFFF AND PUSH20 0xFFFFFFFFFFFFFFFFFFFFFFFFFFFFFFFFFFFFFFFF AND DUP2 MSTORE PUSH1 0x20 ADD SWAP1 DUP2 MSTORE PUSH1 0x20 ADD PUSH1 0x0 KECCAK256 PUSH1 0x0 SWAP1 SSTORE POP JUMP JUMPDEST PUSH1 0x0 PUSH1 0x20 MSTORE DUP1 PUSH1 0x0 MSTORE PUSH1 0x40 PUSH1 0x0 KECCAK256 PUSH1 0x0 SWAP2 POP SWAP1 POP SLOAD DUP2 JUMP JUMPDEST DUP1 PUSH1 0x1 DUP4 PUSH1 0x5 DUP2 LT PUSH2 0x23B JUMPI PUSH2 0x23A PUSH2 0x7EA JUMP JUMPDEST JUMPDEST ADD SWAP1 DUP1 MLOAD SWAP1 PUSH1 0x20 ADD SWAP1 PUSH2 0x24F SWAP3 SWAP2 SWAP1 PUSH2 0x3B0 JUMP JUMPDEST POP DUP1 PUSH1 0x1 DUP4 PUSH1 0x5 DUP2 LT PUSH2 0x265 JUMPI PUSH2 0x264 PUSH2 0x7EA JUMP JUMPDEST JUMPDEST ADD SWAP1 DUP1 MLOAD SWAP1 PUSH1 0x20 ADD SWAP1 PUSH2 0x279 SWAP3 SWAP2 SWAP1 PUSH2 0x3B0 JUMP JUMPDEST POP POP POP JUMP JUMPDEST PUSH1 0x0 DUP1 PUSH1 0x0 DUP4 PUSH20 0xFFFFFFFFFFFFFFFFFFFFFFFFFFFFFFFFFFFFFFFF AND PUSH20 0xFFFFFFFFFFFFFFFFFFFFFFFFFFFFFFFFFFFFFFFF AND DUP2 MSTORE PUSH1 0x20 ADD SWAP1 DUP2 MSTORE PUSH1 0x20 ADD PUSH1 0x0 KECCAK256 DUP2 SWAP1 SSTORE POP POP JUMP JUMPDEST PUSH1 0x1 DUP2 PUSH1 0x5 DUP2 LT PUSH2 0x2D5 JUMPI PUSH1 0x0 DUP1 REVERT JUMPDEST ADD PUSH1 0x0 SWAP2 POP SWAP1 POP DUP1 SLOAD PUSH2 0x2E7 SWAP1 PUSH2 0x758 JUMP JUMPDEST DUP1 PUSH1 0x1F ADD PUSH1 0x20 DUP1 SWAP2 DIV MUL PUSH1 0x20 ADD PUSH1 0x40 MLOAD SWAP1 DUP2 ADD PUSH1 0x40 MSTORE DUP1 SWAP3 SWAP2 SWAP1 DUP2 DUP2 MSTORE PUSH1 0x20 ADD DUP3 DUP1 SLOAD PUSH2 0x313 SWAP1 PUSH2 0x758 JUMP JUMPDEST DUP1 ISZERO PUSH2 0x360 JUMPI DUP1 PUSH1 0x1F LT PUSH2 0x335 JUMPI PUSH2 0x100 DUP1 DUP4 SLOAD DIV MUL DUP4 MSTORE SWAP2 PUSH1 0x20 ADD SWAP2 PUSH2 0x360 JUMP JUMPDEST DUP3 ADD SWAP2 SWAP1 PUSH1 0x0 MSTORE PUSH1 0x20 PUSH1 0x0 KECCAK256 SWAP1 JUMPDEST DUP2 SLOAD DUP2 MSTORE SWAP1 PUSH1 0x1 ADD SWAP1 PUSH1 0x20 ADD DUP1 DUP4 GT PUSH2 0x343 JUMPI DUP3 SWAP1 SUB PUSH1 0x1F AND DUP3 ADD SWAP2 JUMPDEST POP POP POP POP POP DUP2 JUMP JUMPDEST PUSH1 0x0 DUP1 PUSH1 0x0 DUP4 PUSH20 0xFFFFFFFFFFFFFFFFFFFFFFFFFFFFFFFFFFFFFFFF AND PUSH20 0xFFFFFFFFFFFFFFFFFFFFFFFFFFFFFFFFFFFFFFFF AND DUP2 MSTORE PUSH1 0x20 ADD SWAP1 DUP2 MSTORE PUSH1 0x20 ADD PUSH1 0x0 KECCAK256 SLOAD SWAP1 POP SWAP2 SWAP1 POP JUMP JUMPDEST DUP3 DUP1 SLOAD PUSH2 0x3BC SWAP1 PUSH2 0x758 JUMP JUMPDEST SWAP1 PUSH1 0x0 MSTORE PUSH1 0x20 PUSH1 0x0 KECCAK256 SWAP1 PUSH1 0x1F ADD PUSH1 0x20 SWAP1 DIV DUP2 ADD SWAP3 DUP3 PUSH2 0x3DE JUMPI PUSH1 0x0 DUP6 SSTORE PUSH2 0x425 JUMP JUMPDEST DUP3 PUSH1 0x1F LT PUSH2 0x3F7 JUMPI DUP1 MLOAD PUSH1 0xFF NOT AND DUP4 DUP1 ADD OR DUP6 SSTORE PUSH2 0x425 JUMP JUMPDEST DUP3 DUP1 ADD PUSH1 0x1 ADD DUP6 SSTORE DUP3 ISZERO PUSH2 0x425 JUMPI SWAP2 DUP3 ADD JUMPDEST DUP3 DUP2 GT ISZERO PUSH2 0x424 JUMPI DUP3 MLOAD DUP3 SSTORE SWAP2 PUSH1 0x20 ADD SWAP2 SWAP1 PUSH1 0x1 ADD SWAP1 PUSH2 0x409 JUMP JUMPDEST JUMPDEST POP SWAP1 POP PUSH2 0x432 SWAP2 SWAP1 PUSH2 0x436 JUMP JUMPDEST POP SWAP1 JUMP JUMPDEST JUMPDEST DUP1 DUP3 GT ISZERO PUSH2 0x44F JUMPI PUSH1 0x0 DUP2 PUSH1 0x0 SWAP1 SSTORE POP PUSH1 0x1 ADD PUSH2 0x437 JUMP JUMPDEST POP SWAP1 JUMP JUMPDEST PUSH1 0x0 PUSH2 0x466 PUSH2 0x461 DUP5 PUSH2 0x68D JUMP JUMPDEST PUSH2 0x668 JUMP JUMPDEST SWAP1 POP DUP3 DUP2 MSTORE PUSH1 0x20 DUP2 ADD DUP5 DUP5 DUP5 ADD GT ISZERO PUSH2 0x482 JUMPI PUSH2 0x481 PUSH2 0x84D JUMP JUMPDEST JUMPDEST PUSH2 0x48D DUP5 DUP3 DUP6 PUSH2 0x716 JUMP JUMPDEST POP SWAP4 SWAP3 POP POP POP JUMP JUMPDEST PUSH1 0x0 DUP2 CALLDATALOAD SWAP1 POP PUSH2 0x4A4 DUP2 PUSH2 0x86D JUMP JUMPDEST SWAP3 SWAP2 POP POP JUMP JUMPDEST PUSH1 0x0 DUP3 PUSH1 0x1F DUP4 ADD SLT PUSH2 0x4BF JUMPI PUSH2 0x4BE PUSH2 0x848 JUMP JUMPDEST JUMPDEST DUP2 CALLDATALOAD PUSH2 0x4CF DUP5 DUP3 PUSH1 0x20 DUP7 ADD PUSH2 0x453 JUMP JUMPDEST SWAP2 POP POP SWAP3 SWAP2 POP POP JUMP JUMPDEST PUSH1 0x0 DUP2 CALLDATALOAD SWAP1 POP PUSH2 0x4E7 DUP2 PUSH2 0x884 JUMP JUMPDEST SWAP3 SWAP2 POP POP JUMP JUMPDEST PUSH1 0x0 PUSH1 0x20 DUP3 DUP5 SUB SLT ISZERO PUSH2 0x503 JUMPI PUSH2 0x502 PUSH2 0x857 JUMP JUMPDEST JUMPDEST PUSH1 0x0 PUSH2 0x511 DUP5 DUP3 DUP6 ADD PUSH2 0x495 JUMP JUMPDEST SWAP2 POP POP SWAP3 SWAP2 POP POP JUMP JUMPDEST PUSH1 0x0 DUP1 PUSH1 0x40 DUP4 DUP6 SUB SLT ISZERO PUSH2 0x531 JUMPI PUSH2 0x530 PUSH2 0x857 JUMP JUMPDEST JUMPDEST PUSH1 0x0 PUSH2 0x53F DUP6 DUP3 DUP7 ADD PUSH2 0x495 JUMP JUMPDEST SWAP3 POP POP PUSH1 0x20 PUSH2 0x550 DUP6 DUP3 DUP7 ADD PUSH2 0x4D8 JUMP JUMPDEST SWAP2 POP POP SWAP3 POP SWAP3 SWAP1 POP JUMP JUMPDEST PUSH1 0x0 PUSH1 0x20 DUP3 DUP5 SUB SLT ISZERO PUSH2 0x570 JUMPI PUSH2 0x56F PUSH2 0x857 JUMP JUMPDEST JUMPDEST PUSH1 0x0 PUSH2 0x57E DUP5 DUP3 DUP6 ADD PUSH2 0x4D8 JUMP JUMPDEST SWAP2 POP POP SWAP3 SWAP2 POP POP JUMP JUMPDEST PUSH1 0x0 DUP1 PUSH1 0x40 DUP4 DUP6 SUB SLT ISZERO PUSH2 0x59E JUMPI PUSH2 0x59D PUSH2 0x857 JUMP JUMPDEST JUMPDEST PUSH1 0x0 PUSH2 0x5AC DUP6 DUP3 DUP7 ADD PUSH2 0x4D8 JUMP JUMPDEST SWAP3 POP POP PUSH1 0x20 DUP4 ADD CALLDATALOAD PUSH8 0xFFFFFFFFFFFFFFFF DUP2 GT ISZERO PUSH2 0x5CD JUMPI PUSH2 0x5CC PUSH2 0x852 JUMP JUMPDEST JUMPDEST PUSH2 0x5D9 DUP6 DUP3 DUP7 ADD PUSH2 0x4AA JUMP JUMPDEST SWAP2 POP POP SWAP3 POP SWAP3 SWAP1 POP JUMP JUMPDEST PUSH1 0x0 PUSH2 0x5EE DUP3 PUSH2 0x6BE JUMP JUMPDEST PUSH2 0x5F8 DUP2 DUP6 PUSH2 0x6C9 JUMP JUMPDEST SWAP4 POP PUSH2 0x608 DUP2 DUP6 PUSH1 0x20 DUP7 ADD PUSH2 0x725 JUMP JUMPDEST PUSH2 0x611 DUP2 PUSH2 0x85C JUMP JUMPDEST DUP5 ADD SWAP2 POP POP SWAP3 SWAP2 POP POP JUMP JUMPDEST PUSH2 0x625 DUP2 PUSH2 0x70C JUMP JUMPDEST DUP3 MSTORE POP POP JUMP JUMPDEST PUSH1 0x0 PUSH1 0x20 DUP3 ADD SWAP1 POP DUP2 DUP2 SUB PUSH1 0x0 DUP4 ADD MSTORE PUSH2 0x645 DUP2 DUP5 PUSH2 0x5E3 JUMP JUMPDEST SWAP1 POP SWAP3 SWAP2 POP POP JUMP JUMPDEST PUSH1 0x0 PUSH1 0x20 DUP3 ADD SWAP1 POP PUSH2 0x662 PUSH1 0x0 DUP4 ADD DUP5 PUSH2 0x61C JUMP JUMPDEST SWAP3 SWAP2 POP POP JUMP JUMPDEST PUSH1 0x0 PUSH2 0x672 PUSH2 0x683 JUMP JUMPDEST SWAP1 POP PUSH2 0x67E DUP3 DUP3 PUSH2 0x78A JUMP JUMPDEST SWAP2 SWAP1 POP JUMP JUMPDEST PUSH1 0x0 PUSH1 0x40 MLOAD SWAP1 POP SWAP1 JUMP JUMPDEST PUSH1 0x0 PUSH8 0xFFFFFFFFFFFFFFFF DUP3 GT ISZERO PUSH2 0x6A8 JUMPI PUSH2 0x6A7 PUSH2 0x819 JUMP JUMPDEST JUMPDEST PUSH2 0x6B1 DUP3 PUSH2 0x85C JUMP JUMPDEST SWAP1 POP PUSH1 0x20 DUP2 ADD SWAP1 POP SWAP2 SWAP1 POP JUMP JUMPDEST PUSH1 0x0 DUP2 MLOAD SWAP1 POP SWAP2 SWAP1 POP JUMP JUMPDEST PUSH1 0x0 DUP3 DUP3 MSTORE PUSH1 0x20 DUP3 ADD SWAP1 POP SWAP3 SWAP2 POP POP JUMP JUMPDEST PUSH1 0x0 PUSH2 0x6E5 DUP3 PUSH2 0x6EC JUMP JUMPDEST SWAP1 POP SWAP2 SWAP1 POP JUMP JUMPDEST PUSH1 0x0 PUSH20 0xFFFFFFFFFFFFFFFFFFFFFFFFFFFFFFFFFFFFFFFF DUP3 AND SWAP1 POP SWAP2 SWAP1 POP JUMP JUMPDEST PUSH1 0x0 DUP2 SWAP1 POP SWAP2 SWAP1 POP JUMP JUMPDEST DUP3 DUP2 DUP4 CALLDATACOPY PUSH1 0x0 DUP4 DUP4 ADD MSTORE POP POP POP JUMP JUMPDEST PUSH1 0x0 JUMPDEST DUP4 DUP2 LT ISZERO PUSH2 0x743 JUMPI DUP1 DUP3 ADD MLOAD DUP2 DUP5 ADD MSTORE PUSH1 0x20 DUP2 ADD SWAP1 POP PUSH2 0x728 JUMP JUMPDEST DUP4 DUP2 GT ISZERO PUSH2 0x752 JUMPI PUSH1 0x0 DUP5 DUP5 ADD MSTORE JUMPDEST POP POP POP POP JUMP JUMPDEST PUSH1 0x0 PUSH1 0x2 DUP3 DIV SWAP1 POP PUSH1 0x1 DUP3 AND DUP1 PUSH2 0x770 JUMPI PUSH1 0x7F DUP3 AND SWAP2 POP JUMPDEST PUSH1 0x20 DUP3 LT DUP2 EQ ISZERO PUSH2 0x784 JUMPI PUSH2 0x783 PUSH2 0x7BB JUMP JUMPDEST JUMPDEST POP SWAP2 SWAP1 POP JUMP JUMPDEST PUSH2 0x793 DUP3 PUSH2 0x85C JUMP JUMPDEST DUP2 ADD DUP2 DUP2 LT PUSH8 0xFFFFFFFFFFFFFFFF DUP3 GT OR ISZERO PUSH2 0x7B2 JUMPI PUSH2 0x7B1 PUSH2 0x819 JUMP JUMPDEST JUMPDEST DUP1 PUSH1 0x40 MSTORE POP POP POP JUMP JUMPDEST PUSH32 0x4E487B7100000000000000000000000000000000000000000000000000000000 PUSH1 0x0 MSTORE PUSH1 0x22 PUSH1 0x4 MSTORE PUSH1 0x24 PUSH1 0x0 REVERT JUMPDEST PUSH32 0x4E487B7100000000000000000000000000000000000000000000000000000000 PUSH1 0x0 MSTORE PUSH1 0x32 PUSH1 0x4 MSTORE PUSH1 0x24 PUSH1 0x0 REVERT JUMPDEST PUSH32 0x4E487B7100000000000000000000000000000000000000000000000000000000 PUSH1 0x0 MSTORE PUSH1 0x41 PUSH1 0x4 MSTORE PUSH1 0x24 PUSH1 0x0 REVERT JUMPDEST PUSH1 0x0 DUP1 REVERT JUMPDEST PUSH1 0x0 DUP1 REVERT JUMPDEST PUSH1 0x0 DUP1 REVERT JUMPDEST PUSH1 0x0 DUP1 REVERT JUMPDEST PUSH1 0x0 PUSH1 0x1F NOT PUSH1 0x1F DUP4 ADD AND SWAP1 POP SWAP2 SWAP1 POP JUMP JUMPDEST PUSH2 0x876 DUP2 PUSH2 0x6DA JUMP JUMPDEST DUP2 EQ PUSH2 0x881 JUMPI PUSH1 0x0 DUP1 REVERT JUMPDEST POP JUMP JUMPDEST PUSH2 0x88D DUP2 PUSH2 0x70C JUMP JUMPDEST DUP2 EQ PUSH2 0x898 JUMPI PUSH1 0x0 DUP1 REVERT JUMPDEST POP JUMP INVALID LOG2 PUSH5 0x6970667358 0x22 SLT KECCAK256 0xA7 DUP1 PUSH21 0x2E6C371B0CCAD0DF479FB235176F00B14D46413EC SWAP11 DUP11 0xAC 0xE 0xC9 DUP7 PUSH25 0x5E64736F6C6343000807003300000000000000000000000000 "
				},
				"gasEstimates": {
					"creation": {
						"codeDepositCost": "451400",
						"executionCost": "infinite",
						"totalCost": "infinite"
					},
					"external": {
						"addMapping(address,uint256)": "22833",
						"addarray1(uint256,string)": "infinite",
						"array(uint256)": "infinite",
						"balances(address)": "2859",
						"deleteMapping1(address)": "5577",
						"deleteMapping2(address)": "5581",
						"getMapping(address)": "2907"
					}
				},
				"methodIdentifiers": {
					"addMapping(address,uint256)": "14a0bdb3",
					"addarray1(uint256,string)": "2b9ef281",
					"array(uint256)": "38d94193",
					"balances(address)": "27e235e3",
					"deleteMapping1(address)": "215fef2f",
					"deleteMapping2(address)": "35f5dcf4",
					"getMapping(address)": "72233c5e"
				}
			},
			"storageLayout": {
				"storage": [
					{
						"astId": 5,
						"contract": "solidity01/src/main/java/org/example/sol/Ex5/Ex5_1.sol:Ex5_1",
						"label": "balances",
						"offset": 0,
						"slot": "0",
						"type": "t_mapping(t_address,t_uint256)"
					},
					{
						"astId": 63,
						"contract": "solidity01/src/main/java/org/example/sol/Ex5/Ex5_1.sol:Ex5_1",
						"label": "array",
						"offset": 0,
						"slot": "1",
						"type": "t_array(t_string_storage)5_storage"
					}
				],
				"types": {
					"t_address": {
						"encoding": "inplace",
						"label": "address",
						"numberOfBytes": "20"
					},
					"t_array(t_string_storage)5_storage": {
						"base": "t_string_storage",
						"encoding": "inplace",
						"label": "string[5]",
						"numberOfBytes": "160"
					},
					"t_mapping(t_address,t_uint256)": {
						"encoding": "mapping",
						"key": "t_address",
						"label": "mapping(address => uint256)",
						"numberOfBytes": "32",
						"value": "t_uint256"
					},
					"t_string_storage": {
						"encoding": "bytes",
						"label": "string",
						"numberOfBytes": "32"
					},
					"t_uint256": {
						"encoding": "inplace",
						"label": "uint256",
						"numberOfBytes": "32"
					}
				}
			},
			"userdoc": {
				"kind": "user",
				"methods": {},
				"version": 1
			}
		}
	}
}