{
	"src/main/java/org/example/sol/Ex9/pickGame.sol": {
		"pickGame": {
			"abi": [
				{
					"inputs": [],
					"stateMutability": "nonpayable",
					"type": "constructor"
				},
				{
					"inputs": [],
					"name": "CreateBoard",
					"outputs": [],
					"stateMutability": "nonpayable",
					"type": "function"
				}
			],
			"devdoc": {
				"kind": "dev",
				"methods": {},
				"version": 1
			},
			"evm": {
				"assembly": "    /* \"src/main/java/org/example/sol/Ex9/pickGame.sol\":74:772  contract pickGame {\r... */\n  mstore(0x40, 0x80)\n    /* \"src/main/java/org/example/sol/Ex9/pickGame.sol\":136:145  msg.value */\n  callvalue\n    /* \"src/main/java/org/example/sol/Ex9/pickGame.sol\":119:145  uint256 inputEth=msg.value */\n  0x01\n  sstore\n    /* \"src/main/java/org/example/sol/Ex9/pickGame.sol\":222:273  constructor() {\r... */\n  callvalue\n  dup1\n  iszero\n  tag_1\n  jumpi\n  0x00\n  dup1\n  revert\ntag_1:\n  pop\n    /* \"src/main/java/org/example/sol/Ex9/pickGame.sol\":255:265  msg.sender */\n  caller\n    /* \"src/main/java/org/example/sol/Ex9/pickGame.sol\":247:252  owner */\n  0x00\n  dup1\n    /* \"src/main/java/org/example/sol/Ex9/pickGame.sol\":247:265  owner = msg.sender */\n  0x0100\n  exp\n  dup2\n  sload\n  dup2\n  0xffffffffffffffffffffffffffffffffffffffff\n  mul\n  not\n  and\n  swap1\n  dup4\n  0xffffffffffffffffffffffffffffffffffffffff\n  and\n  mul\n  or\n  swap1\n  sstore\n  pop\n    /* \"src/main/java/org/example/sol/Ex9/pickGame.sol\":74:772  contract pickGame {\r... */\n  dataSize(sub_0)\n  dup1\n  dataOffset(sub_0)\n  0x00\n  codecopy\n  0x00\n  return\nstop\n\nsub_0: assembly {\n        /* \"src/main/java/org/example/sol/Ex9/pickGame.sol\":74:772  contract pickGame {\r... */\n      mstore(0x40, 0x80)\n      callvalue\n      dup1\n      iszero\n      tag_1\n      jumpi\n      0x00\n      dup1\n      revert\n    tag_1:\n      pop\n      jumpi(tag_2, lt(calldatasize, 0x04))\n      shr(0xe0, calldataload(0x00))\n      dup1\n      0x1625059b\n      eq\n      tag_3\n      jumpi\n    tag_2:\n      0x00\n      dup1\n      revert\n        /* \"src/main/java/org/example/sol/Ex9/pickGame.sol\":695:767  function CreateBoard() public onlyOwner() boardClear(){\r... */\n    tag_3:\n      tag_4\n      tag_5\n      jump\t// in\n    tag_4:\n      stop\n    tag_5:\n        /* \"src/main/java/org/example/sol/Ex9/pickGame.sol\":336:341  owner */\n      0x00\n      dup1\n      sload\n      swap1\n      0x0100\n      exp\n      swap1\n      div\n      0xffffffffffffffffffffffffffffffffffffffff\n      and\n        /* \"src/main/java/org/example/sol/Ex9/pickGame.sol\":324:341  msg.sender==owner */\n      0xffffffffffffffffffffffffffffffffffffffff\n      and\n        /* \"src/main/java/org/example/sol/Ex9/pickGame.sol\":324:334  msg.sender */\n      caller\n        /* \"src/main/java/org/example/sol/Ex9/pickGame.sol\":324:341  msg.sender==owner */\n      0xffffffffffffffffffffffffffffffffffffffff\n      and\n      eq\n        /* \"src/main/java/org/example/sol/Ex9/pickGame.sol\":316:362  require(msg.sender==owner,\"Create only owner\") */\n      tag_7\n      jumpi\n      mload(0x40)\n      0x08c379a000000000000000000000000000000000000000000000000000000000\n      dup2\n      mstore\n      0x04\n      add\n      tag_8\n      swap1\n      tag_9\n      jump\t// in\n    tag_8:\n      mload(0x40)\n      dup1\n      swap2\n      sub\n      swap1\n      revert\n    tag_7:\n        /* \"src/main/java/org/example/sol/Ex9/pickGame.sol\":420:428  uint cnt */\n      0x00\n        /* \"src/main/java/org/example/sol/Ex9/pickGame.sol\":445:451  uint i */\n      dup1\n        /* \"src/main/java/org/example/sol/Ex9/pickGame.sol\":441:619  for(uint i=0;i<5;i++){\r... */\n    tag_11:\n        /* \"src/main/java/org/example/sol/Ex9/pickGame.sol\":456:457  5 */\n      0x05\n        /* \"src/main/java/org/example/sol/Ex9/pickGame.sol\":454:455  i */\n      dup2\n        /* \"src/main/java/org/example/sol/Ex9/pickGame.sol\":454:457  i<5 */\n      lt\n        /* \"src/main/java/org/example/sol/Ex9/pickGame.sol\":441:619  for(uint i=0;i<5;i++){\r... */\n      iszero\n      tag_12\n      jumpi\n        /* \"src/main/java/org/example/sol/Ex9/pickGame.sol\":481:487  uint j */\n      0x00\n        /* \"src/main/java/org/example/sol/Ex9/pickGame.sol\":477:608  for(uint j=0;j<5;j++){\r... */\n    tag_14:\n        /* \"src/main/java/org/example/sol/Ex9/pickGame.sol\":492:493  5 */\n      0x05\n        /* \"src/main/java/org/example/sol/Ex9/pickGame.sol\":490:491  j */\n      dup2\n        /* \"src/main/java/org/example/sol/Ex9/pickGame.sol\":490:493  j<5 */\n      lt\n        /* \"src/main/java/org/example/sol/Ex9/pickGame.sol\":477:608  for(uint j=0;j<5;j++){\r... */\n      iszero\n      tag_15\n      jumpi\n        /* \"src/main/java/org/example/sol/Ex9/pickGame.sol\":520:538  pickGameBoardCheck */\n      0x1b\n        /* \"src/main/java/org/example/sol/Ex9/pickGame.sol\":539:540  i */\n      dup3\n        /* \"src/main/java/org/example/sol/Ex9/pickGame.sol\":520:541  pickGameBoardCheck[i] */\n      0x05\n      dup2\n      lt\n      tag_17\n      jumpi\n      tag_18\n      tag_19\n      jump\t// in\n    tag_18:\n    tag_17:\n      add\n        /* \"src/main/java/org/example/sol/Ex9/pickGame.sol\":542:543  j */\n      dup2\n        /* \"src/main/java/org/example/sol/Ex9/pickGame.sol\":520:544  pickGameBoardCheck[i][j] */\n      0x05\n      dup2\n      lt\n      tag_21\n      jumpi\n      tag_22\n      tag_19\n      jump\t// in\n    tag_22:\n    tag_21:\n      0x20\n      swap2\n      dup3\n      dup3\n      div\n      add\n      swap2\n      swap1\n      mod\n      swap1\n      sload\n      swap1\n      0x0100\n      exp\n      swap1\n      div\n      0xff\n      and\n        /* \"src/main/java/org/example/sol/Ex9/pickGame.sol\":517:593  if(pickGameBoardCheck[i][j]){\r... */\n      iszero\n      tag_24\n      jumpi\n        /* \"src/main/java/org/example/sol/Ex9/pickGame.sol\":568:573  cnt++ */\n      dup3\n      dup1\n      tag_25\n      swap1\n      tag_26\n      jump\t// in\n    tag_25:\n      swap4\n      pop\n      pop\n        /* \"src/main/java/org/example/sol/Ex9/pickGame.sol\":517:593  if(pickGameBoardCheck[i][j]){\r... */\n    tag_24:\n        /* \"src/main/java/org/example/sol/Ex9/pickGame.sol\":494:497  j++ */\n      dup1\n      dup1\n      tag_27\n      swap1\n      tag_26\n      jump\t// in\n    tag_27:\n      swap2\n      pop\n      pop\n        /* \"src/main/java/org/example/sol/Ex9/pickGame.sol\":477:608  for(uint j=0;j<5;j++){\r... */\n      jump(tag_14)\n    tag_15:\n      pop\n        /* \"src/main/java/org/example/sol/Ex9/pickGame.sol\":458:461  i++ */\n      dup1\n      dup1\n      tag_28\n      swap1\n      tag_26\n      jump\t// in\n    tag_28:\n      swap2\n      pop\n      pop\n        /* \"src/main/java/org/example/sol/Ex9/pickGame.sol\":441:619  for(uint i=0;i<5;i++){\r... */\n      jump(tag_11)\n    tag_12:\n      pop\n        /* \"src/main/java/org/example/sol/Ex9/pickGame.sol\":642:644  24 */\n      0x18\n        /* \"src/main/java/org/example/sol/Ex9/pickGame.sol\":637:640  cnt */\n      dup2\n        /* \"src/main/java/org/example/sol/Ex9/pickGame.sol\":637:644  cnt>=24 */\n      lt\n      iszero\n        /* \"src/main/java/org/example/sol/Ex9/pickGame.sol\":629:667  require(cnt>=24,\"Doesn't Clear Board\") */\n      tag_29\n      jumpi\n      mload(0x40)\n      0x08c379a000000000000000000000000000000000000000000000000000000000\n      dup2\n      mstore\n      0x04\n      add\n      tag_30\n      swap1\n      tag_31\n      jump\t// in\n    tag_30:\n      mload(0x40)\n      dup1\n      swap2\n      sub\n      swap1\n      revert\n    tag_29:\n        /* \"src/main/java/org/example/sol/Ex9/pickGame.sol\":409:687  {\r... */\n      pop\n        /* \"src/main/java/org/example/sol/Ex9/pickGame.sol\":695:767  function CreateBoard() public onlyOwner() boardClear(){\r... */\n      jump\t// out\n        /* \"#utility.yul\":7:373   */\n    tag_34:\n        /* \"#utility.yul\":149:152   */\n      0x00\n        /* \"#utility.yul\":170:237   */\n      tag_36\n        /* \"#utility.yul\":234:236   */\n      0x13\n        /* \"#utility.yul\":229:232   */\n      dup4\n        /* \"#utility.yul\":170:237   */\n      tag_37\n      jump\t// in\n    tag_36:\n        /* \"#utility.yul\":163:237   */\n      swap2\n      pop\n        /* \"#utility.yul\":246:339   */\n      tag_38\n        /* \"#utility.yul\":335:338   */\n      dup3\n        /* \"#utility.yul\":246:339   */\n      tag_39\n      jump\t// in\n    tag_38:\n        /* \"#utility.yul\":364:366   */\n      0x20\n        /* \"#utility.yul\":359:362   */\n      dup3\n        /* \"#utility.yul\":355:367   */\n      add\n        /* \"#utility.yul\":348:367   */\n      swap1\n      pop\n        /* \"#utility.yul\":7:373   */\n      swap2\n      swap1\n      pop\n      jump\t// out\n        /* \"#utility.yul\":379:745   */\n    tag_40:\n        /* \"#utility.yul\":521:524   */\n      0x00\n        /* \"#utility.yul\":542:609   */\n      tag_42\n        /* \"#utility.yul\":606:608   */\n      0x11\n        /* \"#utility.yul\":601:604   */\n      dup4\n        /* \"#utility.yul\":542:609   */\n      tag_37\n      jump\t// in\n    tag_42:\n        /* \"#utility.yul\":535:609   */\n      swap2\n      pop\n        /* \"#utility.yul\":618:711   */\n      tag_43\n        /* \"#utility.yul\":707:710   */\n      dup3\n        /* \"#utility.yul\":618:711   */\n      tag_44\n      jump\t// in\n    tag_43:\n        /* \"#utility.yul\":736:738   */\n      0x20\n        /* \"#utility.yul\":731:734   */\n      dup3\n        /* \"#utility.yul\":727:739   */\n      add\n        /* \"#utility.yul\":720:739   */\n      swap1\n      pop\n        /* \"#utility.yul\":379:745   */\n      swap2\n      swap1\n      pop\n      jump\t// out\n        /* \"#utility.yul\":751:1170   */\n    tag_31:\n        /* \"#utility.yul\":917:921   */\n      0x00\n        /* \"#utility.yul\":955:957   */\n      0x20\n        /* \"#utility.yul\":944:953   */\n      dup3\n        /* \"#utility.yul\":940:958   */\n      add\n        /* \"#utility.yul\":932:958   */\n      swap1\n      pop\n        /* \"#utility.yul\":1004:1013   */\n      dup2\n        /* \"#utility.yul\":998:1002   */\n      dup2\n        /* \"#utility.yul\":994:1014   */\n      sub\n        /* \"#utility.yul\":990:991   */\n      0x00\n        /* \"#utility.yul\":979:988   */\n      dup4\n        /* \"#utility.yul\":975:992   */\n      add\n        /* \"#utility.yul\":968:1015   */\n      mstore\n        /* \"#utility.yul\":1032:1163   */\n      tag_46\n        /* \"#utility.yul\":1158:1162   */\n      dup2\n        /* \"#utility.yul\":1032:1163   */\n      tag_34\n      jump\t// in\n    tag_46:\n        /* \"#utility.yul\":1024:1163   */\n      swap1\n      pop\n        /* \"#utility.yul\":751:1170   */\n      swap2\n      swap1\n      pop\n      jump\t// out\n        /* \"#utility.yul\":1176:1595   */\n    tag_9:\n        /* \"#utility.yul\":1342:1346   */\n      0x00\n        /* \"#utility.yul\":1380:1382   */\n      0x20\n        /* \"#utility.yul\":1369:1378   */\n      dup3\n        /* \"#utility.yul\":1365:1383   */\n      add\n        /* \"#utility.yul\":1357:1383   */\n      swap1\n      pop\n        /* \"#utility.yul\":1429:1438   */\n      dup2\n        /* \"#utility.yul\":1423:1427   */\n      dup2\n        /* \"#utility.yul\":1419:1439   */\n      sub\n        /* \"#utility.yul\":1415:1416   */\n      0x00\n        /* \"#utility.yul\":1404:1413   */\n      dup4\n        /* \"#utility.yul\":1400:1417   */\n      add\n        /* \"#utility.yul\":1393:1440   */\n      mstore\n        /* \"#utility.yul\":1457:1588   */\n      tag_48\n        /* \"#utility.yul\":1583:1587   */\n      dup2\n        /* \"#utility.yul\":1457:1588   */\n      tag_40\n      jump\t// in\n    tag_48:\n        /* \"#utility.yul\":1449:1588   */\n      swap1\n      pop\n        /* \"#utility.yul\":1176:1595   */\n      swap2\n      swap1\n      pop\n      jump\t// out\n        /* \"#utility.yul\":1601:1770   */\n    tag_37:\n        /* \"#utility.yul\":1685:1696   */\n      0x00\n        /* \"#utility.yul\":1719:1725   */\n      dup3\n        /* \"#utility.yul\":1714:1717   */\n      dup3\n        /* \"#utility.yul\":1707:1726   */\n      mstore\n        /* \"#utility.yul\":1759:1763   */\n      0x20\n        /* \"#utility.yul\":1754:1757   */\n      dup3\n        /* \"#utility.yul\":1750:1764   */\n      add\n        /* \"#utility.yul\":1735:1764   */\n      swap1\n      pop\n        /* \"#utility.yul\":1601:1770   */\n      swap3\n      swap2\n      pop\n      pop\n      jump\t// out\n        /* \"#utility.yul\":1776:1853   */\n    tag_50:\n        /* \"#utility.yul\":1813:1820   */\n      0x00\n        /* \"#utility.yul\":1842:1847   */\n      dup2\n        /* \"#utility.yul\":1831:1847   */\n      swap1\n      pop\n        /* \"#utility.yul\":1776:1853   */\n      swap2\n      swap1\n      pop\n      jump\t// out\n        /* \"#utility.yul\":1859:2092   */\n    tag_26:\n        /* \"#utility.yul\":1898:1901   */\n      0x00\n        /* \"#utility.yul\":1921:1945   */\n      tag_53\n        /* \"#utility.yul\":1939:1944   */\n      dup3\n        /* \"#utility.yul\":1921:1945   */\n      tag_50\n      jump\t// in\n    tag_53:\n        /* \"#utility.yul\":1912:1945   */\n      swap2\n      pop\n        /* \"#utility.yul\":1967:2033   */\n      0xffffffffffffffffffffffffffffffffffffffffffffffffffffffffffffffff\n        /* \"#utility.yul\":1960:1965   */\n      dup3\n        /* \"#utility.yul\":1957:2034   */\n      eq\n        /* \"#utility.yul\":1954:2057   */\n      iszero\n      tag_54\n      jumpi\n        /* \"#utility.yul\":2037:2055   */\n      tag_55\n      tag_56\n      jump\t// in\n    tag_55:\n        /* \"#utility.yul\":1954:2057   */\n    tag_54:\n        /* \"#utility.yul\":2084:2085   */\n      0x01\n        /* \"#utility.yul\":2077:2082   */\n      dup3\n        /* \"#utility.yul\":2073:2086   */\n      add\n        /* \"#utility.yul\":2066:2086   */\n      swap1\n      pop\n        /* \"#utility.yul\":1859:2092   */\n      swap2\n      swap1\n      pop\n      jump\t// out\n        /* \"#utility.yul\":2098:2278   */\n    tag_56:\n        /* \"#utility.yul\":2146:2223   */\n      0x4e487b7100000000000000000000000000000000000000000000000000000000\n        /* \"#utility.yul\":2143:2144   */\n      0x00\n        /* \"#utility.yul\":2136:2224   */\n      mstore\n        /* \"#utility.yul\":2243:2247   */\n      0x11\n        /* \"#utility.yul\":2240:2241   */\n      0x04\n        /* \"#utility.yul\":2233:2248   */\n      mstore\n        /* \"#utility.yul\":2267:2271   */\n      0x24\n        /* \"#utility.yul\":2264:2265   */\n      0x00\n        /* \"#utility.yul\":2257:2272   */\n      revert\n        /* \"#utility.yul\":2284:2464   */\n    tag_19:\n        /* \"#utility.yul\":2332:2409   */\n      0x4e487b7100000000000000000000000000000000000000000000000000000000\n        /* \"#utility.yul\":2329:2330   */\n      0x00\n        /* \"#utility.yul\":2322:2410   */\n      mstore\n        /* \"#utility.yul\":2429:2433   */\n      0x32\n        /* \"#utility.yul\":2426:2427   */\n      0x04\n        /* \"#utility.yul\":2419:2434   */\n      mstore\n        /* \"#utility.yul\":2453:2457   */\n      0x24\n        /* \"#utility.yul\":2450:2451   */\n      0x00\n        /* \"#utility.yul\":2443:2458   */\n      revert\n        /* \"#utility.yul\":2470:2639   */\n    tag_39:\n        /* \"#utility.yul\":2610:2631   */\n      0x446f65736e277420436c65617220426f61726400000000000000000000000000\n        /* \"#utility.yul\":2606:2607   */\n      0x00\n        /* \"#utility.yul\":2598:2604   */\n      dup3\n        /* \"#utility.yul\":2594:2608   */\n      add\n        /* \"#utility.yul\":2587:2632   */\n      mstore\n        /* \"#utility.yul\":2470:2639   */\n      pop\n      jump\t// out\n        /* \"#utility.yul\":2645:2812   */\n    tag_44:\n        /* \"#utility.yul\":2785:2804   */\n      0x437265617465206f6e6c79206f776e6572000000000000000000000000000000\n        /* \"#utility.yul\":2781:2782   */\n      0x00\n        /* \"#utility.yul\":2773:2779   */\n      dup3\n        /* \"#utility.yul\":2769:2783   */\n      add\n        /* \"#utility.yul\":2762:2805   */\n      mstore\n        /* \"#utility.yul\":2645:2812   */\n      pop\n      jump\t// out\n\n    auxdata: 0xa26469706673582212204815cb7038c27ea8f222d897a902144c7f081b480a7cff6159db99e3a799eeea64736f6c63430008070033\n}\n",
				"bytecode": {
					"linkReferences": {},
					"object": "60806040523460015534801561001457600080fd5b50336000806101000a81548173ffffffffffffffffffffffffffffffffffffffff021916908373ffffffffffffffffffffffffffffffffffffffff160217905550610371806100646000396000f3fe608060405234801561001057600080fd5b506004361061002b5760003560e01c80631625059b14610030575b600080fd5b61003861003a565b005b60008054906101000a900473ffffffffffffffffffffffffffffffffffffffff1673ffffffffffffffffffffffffffffffffffffffff163373ffffffffffffffffffffffffffffffffffffffff16146100c8576040517f08c379a00000000000000000000000000000000000000000000000000000000081526004016100bf90610207565b60405180910390fd5b6000805b60058110156101595760005b600581101561014557601b82600581106100f5576100f46102ba565b5b018160058110610108576101076102ba565b5b602091828204019190069054906101000a900460ff161561013257828061012e90610242565b9350505b808061013d90610242565b9150506100d8565b50808061015190610242565b9150506100cc565b50601881101561019e576040517f08c379a0000000000000000000000000000000000000000000000000000000008152600401610195906101e7565b60405180910390fd5b50565b60006101ae601383610227565b91506101b9826102e9565b602082019050919050565b60006101d1601183610227565b91506101dc82610312565b602082019050919050565b60006020820190508181036000830152610200816101a1565b9050919050565b60006020820190508181036000830152610220816101c4565b9050919050565b600082825260208201905092915050565b6000819050919050565b600061024d82610238565b91507fffffffffffffffffffffffffffffffffffffffffffffffffffffffffffffffff8214156102805761027f61028b565b5b600182019050919050565b7f4e487b7100000000000000000000000000000000000000000000000000000000600052601160045260246000fd5b7f4e487b7100000000000000000000000000000000000000000000000000000000600052603260045260246000fd5b7f446f65736e277420436c65617220426f61726400000000000000000000000000600082015250565b7f437265617465206f6e6c79206f776e657200000000000000000000000000000060008201525056fea26469706673582212204815cb7038c27ea8f222d897a902144c7f081b480a7cff6159db99e3a799eeea64736f6c63430008070033",
					"opcodes": "PUSH1 0x80 PUSH1 0x40 MSTORE CALLVALUE PUSH1 0x1 SSTORE CALLVALUE DUP1 ISZERO PUSH2 0x14 JUMPI PUSH1 0x0 DUP1 REVERT JUMPDEST POP CALLER PUSH1 0x0 DUP1 PUSH2 0x100 EXP DUP2 SLOAD DUP2 PUSH20 0xFFFFFFFFFFFFFFFFFFFFFFFFFFFFFFFFFFFFFFFF MUL NOT AND SWAP1 DUP4 PUSH20 0xFFFFFFFFFFFFFFFFFFFFFFFFFFFFFFFFFFFFFFFF AND MUL OR SWAP1 SSTORE POP PUSH2 0x371 DUP1 PUSH2 0x64 PUSH1 0x0 CODECOPY PUSH1 0x0 RETURN INVALID PUSH1 0x80 PUSH1 0x40 MSTORE CALLVALUE DUP1 ISZERO PUSH2 0x10 JUMPI PUSH1 0x0 DUP1 REVERT JUMPDEST POP PUSH1 0x4 CALLDATASIZE LT PUSH2 0x2B JUMPI PUSH1 0x0 CALLDATALOAD PUSH1 0xE0 SHR DUP1 PUSH4 0x1625059B EQ PUSH2 0x30 JUMPI JUMPDEST PUSH1 0x0 DUP1 REVERT JUMPDEST PUSH2 0x38 PUSH2 0x3A JUMP JUMPDEST STOP JUMPDEST PUSH1 0x0 DUP1 SLOAD SWAP1 PUSH2 0x100 EXP SWAP1 DIV PUSH20 0xFFFFFFFFFFFFFFFFFFFFFFFFFFFFFFFFFFFFFFFF AND PUSH20 0xFFFFFFFFFFFFFFFFFFFFFFFFFFFFFFFFFFFFFFFF AND CALLER PUSH20 0xFFFFFFFFFFFFFFFFFFFFFFFFFFFFFFFFFFFFFFFF AND EQ PUSH2 0xC8 JUMPI PUSH1 0x40 MLOAD PUSH32 0x8C379A000000000000000000000000000000000000000000000000000000000 DUP2 MSTORE PUSH1 0x4 ADD PUSH2 0xBF SWAP1 PUSH2 0x207 JUMP JUMPDEST PUSH1 0x40 MLOAD DUP1 SWAP2 SUB SWAP1 REVERT JUMPDEST PUSH1 0x0 DUP1 JUMPDEST PUSH1 0x5 DUP2 LT ISZERO PUSH2 0x159 JUMPI PUSH1 0x0 JUMPDEST PUSH1 0x5 DUP2 LT ISZERO PUSH2 0x145 JUMPI PUSH1 0x1B DUP3 PUSH1 0x5 DUP2 LT PUSH2 0xF5 JUMPI PUSH2 0xF4 PUSH2 0x2BA JUMP JUMPDEST JUMPDEST ADD DUP2 PUSH1 0x5 DUP2 LT PUSH2 0x108 JUMPI PUSH2 0x107 PUSH2 0x2BA JUMP JUMPDEST JUMPDEST PUSH1 0x20 SWAP2 DUP3 DUP3 DIV ADD SWAP2 SWAP1 MOD SWAP1 SLOAD SWAP1 PUSH2 0x100 EXP SWAP1 DIV PUSH1 0xFF AND ISZERO PUSH2 0x132 JUMPI DUP3 DUP1 PUSH2 0x12E SWAP1 PUSH2 0x242 JUMP JUMPDEST SWAP4 POP POP JUMPDEST DUP1 DUP1 PUSH2 0x13D SWAP1 PUSH2 0x242 JUMP JUMPDEST SWAP2 POP POP PUSH2 0xD8 JUMP JUMPDEST POP DUP1 DUP1 PUSH2 0x151 SWAP1 PUSH2 0x242 JUMP JUMPDEST SWAP2 POP POP PUSH2 0xCC JUMP JUMPDEST POP PUSH1 0x18 DUP2 LT ISZERO PUSH2 0x19E JUMPI PUSH1 0x40 MLOAD PUSH32 0x8C379A000000000000000000000000000000000000000000000000000000000 DUP2 MSTORE PUSH1 0x4 ADD PUSH2 0x195 SWAP1 PUSH2 0x1E7 JUMP JUMPDEST PUSH1 0x40 MLOAD DUP1 SWAP2 SUB SWAP1 REVERT JUMPDEST POP JUMP JUMPDEST PUSH1 0x0 PUSH2 0x1AE PUSH1 0x13 DUP4 PUSH2 0x227 JUMP JUMPDEST SWAP2 POP PUSH2 0x1B9 DUP3 PUSH2 0x2E9 JUMP JUMPDEST PUSH1 0x20 DUP3 ADD SWAP1 POP SWAP2 SWAP1 POP JUMP JUMPDEST PUSH1 0x0 PUSH2 0x1D1 PUSH1 0x11 DUP4 PUSH2 0x227 JUMP JUMPDEST SWAP2 POP PUSH2 0x1DC DUP3 PUSH2 0x312 JUMP JUMPDEST PUSH1 0x20 DUP3 ADD SWAP1 POP SWAP2 SWAP1 POP JUMP JUMPDEST PUSH1 0x0 PUSH1 0x20 DUP3 ADD SWAP1 POP DUP2 DUP2 SUB PUSH1 0x0 DUP4 ADD MSTORE PUSH2 0x200 DUP2 PUSH2 0x1A1 JUMP JUMPDEST SWAP1 POP SWAP2 SWAP1 POP JUMP JUMPDEST PUSH1 0x0 PUSH1 0x20 DUP3 ADD SWAP1 POP DUP2 DUP2 SUB PUSH1 0x0 DUP4 ADD MSTORE PUSH2 0x220 DUP2 PUSH2 0x1C4 JUMP JUMPDEST SWAP1 POP SWAP2 SWAP1 POP JUMP JUMPDEST PUSH1 0x0 DUP3 DUP3 MSTORE PUSH1 0x20 DUP3 ADD SWAP1 POP SWAP3 SWAP2 POP POP JUMP JUMPDEST PUSH1 0x0 DUP2 SWAP1 POP SWAP2 SWAP1 POP JUMP JUMPDEST PUSH1 0x0 PUSH2 0x24D DUP3 PUSH2 0x238 JUMP JUMPDEST SWAP2 POP PUSH32 0xFFFFFFFFFFFFFFFFFFFFFFFFFFFFFFFFFFFFFFFFFFFFFFFFFFFFFFFFFFFFFFFF DUP3 EQ ISZERO PUSH2 0x280 JUMPI PUSH2 0x27F PUSH2 0x28B JUMP JUMPDEST JUMPDEST PUSH1 0x1 DUP3 ADD SWAP1 POP SWAP2 SWAP1 POP JUMP JUMPDEST PUSH32 0x4E487B7100000000000000000000000000000000000000000000000000000000 PUSH1 0x0 MSTORE PUSH1 0x11 PUSH1 0x4 MSTORE PUSH1 0x24 PUSH1 0x0 REVERT JUMPDEST PUSH32 0x4E487B7100000000000000000000000000000000000000000000000000000000 PUSH1 0x0 MSTORE PUSH1 0x32 PUSH1 0x4 MSTORE PUSH1 0x24 PUSH1 0x0 REVERT JUMPDEST PUSH32 0x446F65736E277420436C65617220426F61726400000000000000000000000000 PUSH1 0x0 DUP3 ADD MSTORE POP JUMP JUMPDEST PUSH32 0x437265617465206F6E6C79206F776E6572000000000000000000000000000000 PUSH1 0x0 DUP3 ADD MSTORE POP JUMP INVALID LOG2 PUSH5 0x6970667358 0x22 SLT KECCAK256 BASEFEE ISZERO 0xCB PUSH17 0x38C27EA8F222D897A902144C7F081B480A PUSH29 0xFF6159DB99E3A799EEEA64736F6C634300080700330000000000000000 "
				},
				"gasEstimates": {
					"creation": {
						"codeDepositCost": "176200",
						"executionCost": "46591",
						"totalCost": "222791"
					},
					"external": {
						"CreateBoard()": "infinite"
					}
				},
				"methodIdentifiers": {
					"CreateBoard()": "1625059b"
				}
			},
			"storageLayout": {
				"storage": [
					{
						"astId": 3,
						"contract": "src/main/java/org/example/sol/Ex9/pickGame.sol:pickGame",
						"label": "owner",
						"offset": 0,
						"slot": "0",
						"type": "t_address"
					},
					{
						"astId": 7,
						"contract": "src/main/java/org/example/sol/Ex9/pickGame.sol:pickGame",
						"label": "inputEth",
						"offset": 0,
						"slot": "1",
						"type": "t_uint256"
					},
					{
						"astId": 13,
						"contract": "src/main/java/org/example/sol/Ex9/pickGame.sol:pickGame",
						"label": "pickGameBoard",
						"offset": 0,
						"slot": "2",
						"type": "t_array(t_array(t_uint256)5_storage)5_storage"
					},
					{
						"astId": 19,
						"contract": "src/main/java/org/example/sol/Ex9/pickGame.sol:pickGame",
						"label": "pickGameBoardCheck",
						"offset": 0,
						"slot": "27",
						"type": "t_array(t_array(t_bool)5_storage)5_storage"
					}
				],
				"types": {
					"t_address": {
						"encoding": "inplace",
						"label": "address",
						"numberOfBytes": "20"
					},
					"t_array(t_array(t_bool)5_storage)5_storage": {
						"base": "t_array(t_bool)5_storage",
						"encoding": "inplace",
						"label": "bool[5][5]",
						"numberOfBytes": "160"
					},
					"t_array(t_array(t_uint256)5_storage)5_storage": {
						"base": "t_array(t_uint256)5_storage",
						"encoding": "inplace",
						"label": "uint256[5][5]",
						"numberOfBytes": "800"
					},
					"t_array(t_bool)5_storage": {
						"base": "t_bool",
						"encoding": "inplace",
						"label": "bool[5]",
						"numberOfBytes": "32"
					},
					"t_array(t_uint256)5_storage": {
						"base": "t_uint256",
						"encoding": "inplace",
						"label": "uint256[5]",
						"numberOfBytes": "160"
					},
					"t_bool": {
						"encoding": "inplace",
						"label": "bool",
						"numberOfBytes": "1"
					},
					"t_uint256": {
						"encoding": "inplace",
						"label": "uint256",
						"numberOfBytes": "32"
					}
				}
			},
			"userdoc": {
				"kind": "user",
				"methods": {},
				"version": 1
			}
		}
	}
}