{
	"src/main/java/org/example/sol/contrack01/randomGame.sol": {
		"randomGame": {
			"abi": [
				{
					"inputs": [
						{
							"internalType": "string",
							"name": "_key1",
							"type": "string"
						},
						{
							"internalType": "uint256",
							"name": "_key2",
							"type": "uint256"
						}
					],
					"stateMutability": "nonpayable",
					"type": "constructor"
				},
				{
					"anonymous": false,
					"inputs": [
						{
							"indexed": true,
							"internalType": "address",
							"name": "sender",
							"type": "address"
						},
						{
							"indexed": false,
							"internalType": "uint256",
							"name": "payment",
							"type": "uint256"
						}
					],
					"name": "PaidAddress",
					"type": "event"
				},
				{
					"anonymous": false,
					"inputs": [
						{
							"indexed": true,
							"internalType": "address",
							"name": "winner",
							"type": "address"
						}
					],
					"name": "WinnerAddress",
					"type": "event"
				},
				{
					"inputs": [],
					"name": "getRound",
					"outputs": [
						{
							"internalType": "uint256",
							"name": "",
							"type": "uint256"
						}
					],
					"stateMutability": "view",
					"type": "function"
				},
				{
					"inputs": [],
					"name": "getSecretKey",
					"outputs": [
						{
							"internalType": "string",
							"name": "",
							"type": "string"
						},
						{
							"internalType": "uint256",
							"name": "",
							"type": "uint256"
						}
					],
					"stateMutability": "view",
					"type": "function"
				},
				{
					"inputs": [],
					"name": "getWinnerNumber",
					"outputs": [
						{
							"internalType": "uint256",
							"name": "",
							"type": "uint256"
						}
					],
					"stateMutability": "view",
					"type": "function"
				},
				{
					"inputs": [],
					"name": "getbalance",
					"outputs": [
						{
							"internalType": "uint256",
							"name": "",
							"type": "uint256"
						}
					],
					"stateMutability": "view",
					"type": "function"
				},
				{
					"inputs": [],
					"name": "owner",
					"outputs": [
						{
							"internalType": "address",
							"name": "",
							"type": "address"
						}
					],
					"stateMutability": "view",
					"type": "function"
				},
				{
					"inputs": [
						{
							"internalType": "uint256",
							"name": "",
							"type": "uint256"
						},
						{
							"internalType": "address",
							"name": "",
							"type": "address"
						}
					],
					"name": "paidAddressList",
					"outputs": [
						{
							"internalType": "bool",
							"name": "",
							"type": "bool"
						}
					],
					"stateMutability": "view",
					"type": "function"
				},
				{
					"inputs": [],
					"name": "playNumber",
					"outputs": [
						{
							"internalType": "uint256",
							"name": "",
							"type": "uint256"
						}
					],
					"stateMutability": "view",
					"type": "function"
				},
				{
					"inputs": [],
					"name": "round",
					"outputs": [
						{
							"internalType": "uint256",
							"name": "",
							"type": "uint256"
						}
					],
					"stateMutability": "view",
					"type": "function"
				},
				{
					"inputs": [
						{
							"internalType": "string",
							"name": "_key1",
							"type": "string"
						},
						{
							"internalType": "uint256",
							"name": "_key2",
							"type": "uint256"
						}
					],
					"name": "setSecretKe",
					"outputs": [],
					"stateMutability": "nonpayable",
					"type": "function"
				},
				{
					"stateMutability": "payable",
					"type": "receive"
				}
			],
			"devdoc": {
				"kind": "dev",
				"methods": {},
				"version": 1
			},
			"evm": {
				"assembly": "    /* \"src/main/java/org/example/sol/contrack01/randomGame.sol\":74:2165  contract randomGame {\r... */\n  mstore(0x40, 0x80)\n    /* \"src/main/java/org/example/sol/contrack01/randomGame.sol\":227:228  0 */\n  0x00\n    /* \"src/main/java/org/example/sol/contrack01/randomGame.sol\":200:228  uint private winnerNumber =0 */\n  0x02\n  sstore\n    /* \"src/main/java/org/example/sol/contrack01/randomGame.sol\":304:305  1 */\n  0x01\n    /* \"src/main/java/org/example/sol/contrack01/randomGame.sol\":285:305  uint public round =1 */\n  0x05\n  sstore\n    /* \"src/main/java/org/example/sol/contrack01/randomGame.sol\":336:337  0 */\n  0x00\n    /* \"src/main/java/org/example/sol/contrack01/randomGame.sol\":312:337  uint public playNumber =0 */\n  0x06\n  sstore\n    /* \"src/main/java/org/example/sol/contrack01/randomGame.sol\":576:744  constructor(string memory _key1, uint _key2) {\r... */\n  callvalue\n  dup1\n  iszero\n  tag_1\n  jumpi\n  0x00\n  dup1\n  revert\ntag_1:\n  pop\n  mload(0x40)\n  sub(codesize, bytecodeSize)\n  dup1\n  bytecodeSize\n  dup4\n  codecopy\n  dup2\n  dup2\n  add\n  0x40\n  mstore\n  dup2\n  add\n  swap1\n  tag_2\n  swap2\n  swap1\n  tag_3\n  jump\t// in\ntag_2:\n    /* \"src/main/java/org/example/sol/contrack01/randomGame.sol\":640:650  msg.sender */\n  caller\n    /* \"src/main/java/org/example/sol/contrack01/randomGame.sol\":632:637  owner */\n  0x00\n  dup1\n    /* \"src/main/java/org/example/sol/contrack01/randomGame.sol\":632:650  owner = msg.sender */\n  0x0100\n  exp\n  dup2\n  sload\n  dup2\n  0xffffffffffffffffffffffffffffffffffffffff\n  mul\n  not\n  and\n  swap1\n  dup4\n  0xffffffffffffffffffffffffffffffffffffffff\n  and\n  mul\n  or\n  swap1\n  sstore\n  pop\n    /* \"src/main/java/org/example/sol/contrack01/randomGame.sol\":668:673  _key1 */\n  dup2\n    /* \"src/main/java/org/example/sol/contrack01/randomGame.sol\":661:665  key1 */\n  0x03\n    /* \"src/main/java/org/example/sol/contrack01/randomGame.sol\":661:673  key1 = _key1 */\n  swap1\n  dup1\n  mload\n  swap1\n  0x20\n  add\n  swap1\n  tag_6\n  swap3\n  swap2\n  swap1\n  tag_7\n  jump\t// in\ntag_6:\n  pop\n    /* \"src/main/java/org/example/sol/contrack01/randomGame.sol\":691:696  _key2 */\n  dup1\n    /* \"src/main/java/org/example/sol/contrack01/randomGame.sol\":684:688  key2 */\n  0x04\n    /* \"src/main/java/org/example/sol/contrack01/randomGame.sol\":684:696  key2 = _key2 */\n  dup2\n  swap1\n  sstore\n  pop\n    /* \"src/main/java/org/example/sol/contrack01/randomGame.sol\":722:736  randomNumber() */\n  tag_8\n    /* \"src/main/java/org/example/sol/contrack01/randomGame.sol\":722:734  randomNumber */\n  shl(0x20, tag_9)\n    /* \"src/main/java/org/example/sol/contrack01/randomGame.sol\":722:736  randomNumber() */\n  0x20\n  shr\n  jump\t// in\ntag_8:\n    /* \"src/main/java/org/example/sol/contrack01/randomGame.sol\":707:719  winnerNumber */\n  0x02\n    /* \"src/main/java/org/example/sol/contrack01/randomGame.sol\":707:736  winnerNumber = randomNumber() */\n  dup2\n  swap1\n  sstore\n  pop\n    /* \"src/main/java/org/example/sol/contrack01/randomGame.sol\":576:744  constructor(string memory _key1, uint _key2) {\r... */\n  pop\n  pop\n    /* \"src/main/java/org/example/sol/contrack01/randomGame.sol\":74:2165  contract randomGame {\r... */\n  jump(tag_10)\n    /* \"src/main/java/org/example/sol/contrack01/randomGame.sol\":1402:1601  function randomNumber() private view returns(uint) {\r... */\ntag_9:\n    /* \"src/main/java/org/example/sol/contrack01/randomGame.sol\":1447:1451  uint */\n  0x00\n    /* \"src/main/java/org/example/sol/contrack01/randomGame.sol\":1464:1472  uint num */\n  dup1\n    /* \"src/main/java/org/example/sol/contrack01/randomGame.sol\":1539:1551  block.number */\n  number\n    /* \"src/main/java/org/example/sol/contrack01/randomGame.sol\":1519:1534  block.timestamp */\n  timestamp\n    /* \"src/main/java/org/example/sol/contrack01/randomGame.sol\":1511:1515  key2 */\n  sload(0x04)\n    /* \"src/main/java/org/example/sol/contrack01/randomGame.sol\":1501:1505  key1 */\n  0x03\n    /* \"src/main/java/org/example/sol/contrack01/randomGame.sol\":1490:1506  abi.encode(key1) */\n  add(0x20, mload(0x40))\n  tag_12\n  swap2\n  swap1\n  tag_13\n  jump\t// in\ntag_12:\n  mload(0x40)\n  0x20\n  dup2\n  dup4\n  sub\n  sub\n  dup2\n  mstore\n  swap1\n  0x40\n  mstore\n    /* \"src/main/java/org/example/sol/contrack01/randomGame.sol\":1480:1507  keccak256(abi.encode(key1)) */\n  dup1\n  mload\n  swap1\n  0x20\n  add\n  keccak256\n    /* \"src/main/java/org/example/sol/contrack01/randomGame.sol\":1475:1508  uint(keccak256(abi.encode(key1))) */\n  0x00\n  shr\n    /* \"src/main/java/org/example/sol/contrack01/randomGame.sol\":1475:1515  uint(keccak256(abi.encode(key1))) + key2 */\n  tag_14\n  swap2\n  swap1\n  tag_15\n  jump\t// in\ntag_14:\n    /* \"src/main/java/org/example/sol/contrack01/randomGame.sol\":1475:1535  uint(keccak256(abi.encode(key1))) + key2 + (block.timestamp) */\n  tag_16\n  swap2\n  swap1\n  tag_15\n  jump\t// in\ntag_16:\n    /* \"src/main/java/org/example/sol/contrack01/randomGame.sol\":1475:1552  uint(keccak256(abi.encode(key1))) + key2 + (block.timestamp) + (block.number) */\n  tag_17\n  swap2\n  swap1\n  tag_15\n  jump\t// in\ntag_17:\n    /* \"src/main/java/org/example/sol/contrack01/randomGame.sol\":1464:1552  uint num = uint(keccak256(abi.encode(key1))) + key2 + (block.timestamp) + (block.number) */\n  swap1\n  pop\n    /* \"src/main/java/org/example/sol/contrack01/randomGame.sol\":1592:1593  1 */\n  0x01\n    /* \"src/main/java/org/example/sol/contrack01/randomGame.sol\":1587:1589  10 */\n  0x0a\n    /* \"src/main/java/org/example/sol/contrack01/randomGame.sol\":1583:1585  10 */\n  dup1\n    /* \"src/main/java/org/example/sol/contrack01/randomGame.sol\":1579:1582  num */\n  dup4\n    /* \"src/main/java/org/example/sol/contrack01/randomGame.sol\":1579:1585  num/10 */\n  tag_18\n  swap2\n  swap1\n  tag_19\n  jump\t// in\ntag_18:\n    /* \"src/main/java/org/example/sol/contrack01/randomGame.sol\":1578:1589  (num/10)*10 */\n  tag_20\n  swap2\n  swap1\n  tag_21\n  jump\t// in\ntag_20:\n    /* \"src/main/java/org/example/sol/contrack01/randomGame.sol\":1571:1574  num */\n  dup3\n    /* \"src/main/java/org/example/sol/contrack01/randomGame.sol\":1571:1590  num - ((num/10)*10) */\n  tag_22\n  swap2\n  swap1\n  tag_23\n  jump\t// in\ntag_22:\n    /* \"src/main/java/org/example/sol/contrack01/randomGame.sol\":1570:1593  (num - ((num/10)*10))+1 */\n  tag_24\n  swap2\n  swap1\n  tag_15\n  jump\t// in\ntag_24:\n    /* \"src/main/java/org/example/sol/contrack01/randomGame.sol\":1563:1593  return (num - ((num/10)*10))+1 */\n  swap2\n  pop\n  pop\n    /* \"src/main/java/org/example/sol/contrack01/randomGame.sol\":1402:1601  function randomNumber() private view returns(uint) {\r... */\n  swap1\n  jump\t// out\n    /* \"src/main/java/org/example/sol/contrack01/randomGame.sol\":74:2165  contract randomGame {\r... */\ntag_7:\n  dup3\n  dup1\n  sload\n  tag_25\n  swap1\n  tag_26\n  jump\t// in\ntag_25:\n  swap1\n  0x00\n  mstore\n  keccak256(0x00, 0x20)\n  swap1\n  0x1f\n  add\n  0x20\n  swap1\n  div\n  dup2\n  add\n  swap3\n  dup3\n  tag_28\n  jumpi\n  0x00\n  dup6\n  sstore\n  jump(tag_27)\ntag_28:\n  dup3\n  0x1f\n  lt\n  tag_29\n  jumpi\n  dup1\n  mload\n  not(0xff)\n  and\n  dup4\n  dup1\n  add\n  or\n  dup6\n  sstore\n  jump(tag_27)\ntag_29:\n  dup3\n  dup1\n  add\n  0x01\n  add\n  dup6\n  sstore\n  dup3\n  iszero\n  tag_27\n  jumpi\n  swap2\n  dup3\n  add\ntag_30:\n  dup3\n  dup2\n  gt\n  iszero\n  tag_31\n  jumpi\n  dup3\n  mload\n  dup3\n  sstore\n  swap2\n  0x20\n  add\n  swap2\n  swap1\n  0x01\n  add\n  swap1\n  jump(tag_30)\ntag_31:\ntag_27:\n  pop\n  swap1\n  pop\n  tag_32\n  swap2\n  swap1\n  tag_33\n  jump\t// in\ntag_32:\n  pop\n  swap1\n  jump\t// out\ntag_33:\ntag_34:\n  dup1\n  dup3\n  gt\n  iszero\n  tag_35\n  jumpi\n  0x00\n  dup2\n  0x00\n  swap1\n  sstore\n  pop\n  0x01\n  add\n  jump(tag_34)\ntag_35:\n  pop\n  swap1\n  jump\t// out\n    /* \"#utility.yul\":7:428   */\ntag_37:\n    /* \"#utility.yul\":96:101   */\n  0x00\n    /* \"#utility.yul\":121:187   */\n  tag_39\n    /* \"#utility.yul\":137:186   */\n  tag_40\n    /* \"#utility.yul\":179:185   */\n  dup5\n    /* \"#utility.yul\":137:186   */\n  tag_41\n  jump\t// in\ntag_40:\n    /* \"#utility.yul\":121:187   */\n  tag_42\n  jump\t// in\ntag_39:\n    /* \"#utility.yul\":112:187   */\n  swap1\n  pop\n    /* \"#utility.yul\":210:216   */\n  dup3\n    /* \"#utility.yul\":203:208   */\n  dup2\n    /* \"#utility.yul\":196:217   */\n  mstore\n    /* \"#utility.yul\":248:252   */\n  0x20\n    /* \"#utility.yul\":241:246   */\n  dup2\n    /* \"#utility.yul\":237:253   */\n  add\n    /* \"#utility.yul\":286:289   */\n  dup5\n    /* \"#utility.yul\":277:283   */\n  dup5\n    /* \"#utility.yul\":272:275   */\n  dup5\n    /* \"#utility.yul\":268:284   */\n  add\n    /* \"#utility.yul\":265:290   */\n  gt\n    /* \"#utility.yul\":262:374   */\n  iszero\n  tag_43\n  jumpi\n    /* \"#utility.yul\":293:372   */\n  tag_44\n  tag_45\n  jump\t// in\ntag_44:\n    /* \"#utility.yul\":262:374   */\ntag_43:\n    /* \"#utility.yul\":383:422   */\n  tag_46\n    /* \"#utility.yul\":415:421   */\n  dup5\n    /* \"#utility.yul\":410:413   */\n  dup3\n    /* \"#utility.yul\":405:408   */\n  dup6\n    /* \"#utility.yul\":383:422   */\n  tag_47\n  jump\t// in\ntag_46:\n    /* \"#utility.yul\":102:428   */\n  pop\n    /* \"#utility.yul\":7:428   */\n  swap4\n  swap3\n  pop\n  pop\n  pop\n  jump\t// out\n    /* \"#utility.yul\":448:803   */\ntag_48:\n    /* \"#utility.yul\":515:520   */\n  0x00\n    /* \"#utility.yul\":564:567   */\n  dup3\n    /* \"#utility.yul\":557:561   */\n  0x1f\n    /* \"#utility.yul\":549:555   */\n  dup4\n    /* \"#utility.yul\":545:562   */\n  add\n    /* \"#utility.yul\":541:568   */\n  slt\n    /* \"#utility.yul\":531:653   */\n  tag_50\n  jumpi\n    /* \"#utility.yul\":572:651   */\n  tag_51\n  tag_52\n  jump\t// in\ntag_51:\n    /* \"#utility.yul\":531:653   */\ntag_50:\n    /* \"#utility.yul\":682:688   */\n  dup2\n    /* \"#utility.yul\":676:689   */\n  mload\n    /* \"#utility.yul\":707:797   */\n  tag_53\n    /* \"#utility.yul\":793:796   */\n  dup5\n    /* \"#utility.yul\":785:791   */\n  dup3\n    /* \"#utility.yul\":778:782   */\n  0x20\n    /* \"#utility.yul\":770:776   */\n  dup7\n    /* \"#utility.yul\":766:783   */\n  add\n    /* \"#utility.yul\":707:797   */\n  tag_37\n  jump\t// in\ntag_53:\n    /* \"#utility.yul\":698:797   */\n  swap2\n  pop\n    /* \"#utility.yul\":521:803   */\n  pop\n    /* \"#utility.yul\":448:803   */\n  swap3\n  swap2\n  pop\n  pop\n  jump\t// out\n    /* \"#utility.yul\":809:952   */\ntag_54:\n    /* \"#utility.yul\":866:871   */\n  0x00\n    /* \"#utility.yul\":897:903   */\n  dup2\n    /* \"#utility.yul\":891:904   */\n  mload\n    /* \"#utility.yul\":882:904   */\n  swap1\n  pop\n    /* \"#utility.yul\":913:946   */\n  tag_56\n    /* \"#utility.yul\":940:945   */\n  dup2\n    /* \"#utility.yul\":913:946   */\n  tag_57\n  jump\t// in\ntag_56:\n    /* \"#utility.yul\":809:952   */\n  swap3\n  swap2\n  pop\n  pop\n  jump\t// out\n    /* \"#utility.yul\":958:1638   */\ntag_3:\n    /* \"#utility.yul\":1047:1053   */\n  0x00\n    /* \"#utility.yul\":1055:1061   */\n  dup1\n    /* \"#utility.yul\":1104:1106   */\n  0x40\n    /* \"#utility.yul\":1092:1101   */\n  dup4\n    /* \"#utility.yul\":1083:1090   */\n  dup6\n    /* \"#utility.yul\":1079:1102   */\n  sub\n    /* \"#utility.yul\":1075:1107   */\n  slt\n    /* \"#utility.yul\":1072:1191   */\n  iszero\n  tag_59\n  jumpi\n    /* \"#utility.yul\":1110:1189   */\n  tag_60\n  tag_61\n  jump\t// in\ntag_60:\n    /* \"#utility.yul\":1072:1191   */\ntag_59:\n    /* \"#utility.yul\":1251:1252   */\n  0x00\n    /* \"#utility.yul\":1240:1249   */\n  dup4\n    /* \"#utility.yul\":1236:1253   */\n  add\n    /* \"#utility.yul\":1230:1254   */\n  mload\n    /* \"#utility.yul\":1281:1299   */\n  0xffffffffffffffff\n    /* \"#utility.yul\":1273:1279   */\n  dup2\n    /* \"#utility.yul\":1270:1300   */\n  gt\n    /* \"#utility.yul\":1267:1384   */\n  iszero\n  tag_62\n  jumpi\n    /* \"#utility.yul\":1303:1382   */\n  tag_63\n  tag_64\n  jump\t// in\ntag_63:\n    /* \"#utility.yul\":1267:1384   */\ntag_62:\n    /* \"#utility.yul\":1408:1482   */\n  tag_65\n    /* \"#utility.yul\":1474:1481   */\n  dup6\n    /* \"#utility.yul\":1465:1471   */\n  dup3\n    /* \"#utility.yul\":1454:1463   */\n  dup7\n    /* \"#utility.yul\":1450:1472   */\n  add\n    /* \"#utility.yul\":1408:1482   */\n  tag_48\n  jump\t// in\ntag_65:\n    /* \"#utility.yul\":1398:1482   */\n  swap3\n  pop\n    /* \"#utility.yul\":1201:1492   */\n  pop\n    /* \"#utility.yul\":1531:1533   */\n  0x20\n    /* \"#utility.yul\":1557:1621   */\n  tag_66\n    /* \"#utility.yul\":1613:1620   */\n  dup6\n    /* \"#utility.yul\":1604:1610   */\n  dup3\n    /* \"#utility.yul\":1593:1602   */\n  dup7\n    /* \"#utility.yul\":1589:1611   */\n  add\n    /* \"#utility.yul\":1557:1621   */\n  tag_54\n  jump\t// in\ntag_66:\n    /* \"#utility.yul\":1547:1621   */\n  swap2\n  pop\n    /* \"#utility.yul\":1502:1631   */\n  pop\n    /* \"#utility.yul\":958:1638   */\n  swap3\n  pop\n  swap3\n  swap1\n  pop\n  jump\t// out\n    /* \"#utility.yul\":1668:2470   */\ntag_67:\n    /* \"#utility.yul\":1753:1756   */\n  0x00\n    /* \"#utility.yul\":1790:1795   */\n  dup2\n    /* \"#utility.yul\":1784:1796   */\n  sload\n    /* \"#utility.yul\":1819:1855   */\n  tag_69\n    /* \"#utility.yul\":1845:1854   */\n  dup2\n    /* \"#utility.yul\":1819:1855   */\n  tag_26\n  jump\t// in\ntag_69:\n    /* \"#utility.yul\":1871:1942   */\n  tag_70\n    /* \"#utility.yul\":1935:1941   */\n  dup2\n    /* \"#utility.yul\":1930:1933   */\n  dup7\n    /* \"#utility.yul\":1871:1942   */\n  tag_71\n  jump\t// in\ntag_70:\n    /* \"#utility.yul\":1864:1942   */\n  swap5\n  pop\n    /* \"#utility.yul\":1973:1974   */\n  0x01\n    /* \"#utility.yul\":1962:1971   */\n  dup3\n    /* \"#utility.yul\":1958:1975   */\n  and\n    /* \"#utility.yul\":1989:1990   */\n  0x00\n    /* \"#utility.yul\":1984:2119   */\n  dup2\n  eq\n  tag_73\n  jumpi\n    /* \"#utility.yul\":2133:2134   */\n  0x01\n    /* \"#utility.yul\":2128:2464   */\n  dup2\n  eq\n  tag_74\n  jumpi\n    /* \"#utility.yul\":1951:2464   */\n  jump(tag_72)\n    /* \"#utility.yul\":1984:2119   */\ntag_73:\n    /* \"#utility.yul\":2068:2072   */\n  0xff\n    /* \"#utility.yul\":2064:2073   */\n  not\n    /* \"#utility.yul\":2053:2062   */\n  dup4\n    /* \"#utility.yul\":2049:2074   */\n  and\n    /* \"#utility.yul\":2044:2047   */\n  dup7\n    /* \"#utility.yul\":2037:2075   */\n  mstore\n    /* \"#utility.yul\":2104:2108   */\n  0x20\n    /* \"#utility.yul\":2099:2102   */\n  dup7\n    /* \"#utility.yul\":2095:2109   */\n  add\n    /* \"#utility.yul\":2088:2109   */\n  swap4\n  pop\n    /* \"#utility.yul\":1984:2119   */\n  jump(tag_72)\n    /* \"#utility.yul\":2128:2464   */\ntag_74:\n    /* \"#utility.yul\":2195:2233   */\n  tag_75\n    /* \"#utility.yul\":2227:2232   */\n  dup6\n    /* \"#utility.yul\":2195:2233   */\n  tag_76\n  jump\t// in\ntag_75:\n    /* \"#utility.yul\":2255:2256   */\n  0x00\n    /* \"#utility.yul\":2269:2423   */\ntag_77:\n    /* \"#utility.yul\":2283:2289   */\n  dup4\n    /* \"#utility.yul\":2280:2281   */\n  dup2\n    /* \"#utility.yul\":2277:2290   */\n  lt\n    /* \"#utility.yul\":2269:2423   */\n  iszero\n  tag_79\n  jumpi\n    /* \"#utility.yul\":2357:2364   */\n  dup2\n    /* \"#utility.yul\":2351:2365   */\n  sload\n    /* \"#utility.yul\":2347:2348   */\n  dup2\n    /* \"#utility.yul\":2342:2345   */\n  dup10\n    /* \"#utility.yul\":2338:2349   */\n  add\n    /* \"#utility.yul\":2331:2366   */\n  mstore\n    /* \"#utility.yul\":2407:2408   */\n  0x01\n    /* \"#utility.yul\":2398:2405   */\n  dup3\n    /* \"#utility.yul\":2394:2409   */\n  add\n    /* \"#utility.yul\":2383:2409   */\n  swap2\n  pop\n    /* \"#utility.yul\":2305:2309   */\n  0x20\n    /* \"#utility.yul\":2302:2303   */\n  dup2\n    /* \"#utility.yul\":2298:2310   */\n  add\n    /* \"#utility.yul\":2293:2310   */\n  swap1\n  pop\n    /* \"#utility.yul\":2269:2423   */\n  jump(tag_77)\ntag_79:\n    /* \"#utility.yul\":2452:2453   */\n  dup1\n    /* \"#utility.yul\":2447:2450   */\n  dup9\n    /* \"#utility.yul\":2443:2454   */\n  add\n    /* \"#utility.yul\":2436:2454   */\n  swap6\n  pop\n    /* \"#utility.yul\":2135:2464   */\n  pop\n  pop\n    /* \"#utility.yul\":1951:2464   */\ntag_72:\n  pop\n    /* \"#utility.yul\":1757:2470   */\n  pop\n  pop\n    /* \"#utility.yul\":1668:2470   */\n  swap3\n  swap2\n  pop\n  pop\n  jump\t// out\n    /* \"#utility.yul\":2476:2783   */\ntag_13:\n    /* \"#utility.yul\":2586:2590   */\n  0x00\n    /* \"#utility.yul\":2624:2626   */\n  0x20\n    /* \"#utility.yul\":2613:2622   */\n  dup3\n    /* \"#utility.yul\":2609:2627   */\n  add\n    /* \"#utility.yul\":2601:2627   */\n  swap1\n  pop\n    /* \"#utility.yul\":2673:2682   */\n  dup2\n    /* \"#utility.yul\":2667:2671   */\n  dup2\n    /* \"#utility.yul\":2663:2683   */\n  sub\n    /* \"#utility.yul\":2659:2660   */\n  0x00\n    /* \"#utility.yul\":2648:2657   */\n  dup4\n    /* \"#utility.yul\":2644:2661   */\n  add\n    /* \"#utility.yul\":2637:2684   */\n  mstore\n    /* \"#utility.yul\":2701:2776   */\n  tag_81\n    /* \"#utility.yul\":2771:2775   */\n  dup2\n    /* \"#utility.yul\":2762:2768   */\n  dup5\n    /* \"#utility.yul\":2701:2776   */\n  tag_67\n  jump\t// in\ntag_81:\n    /* \"#utility.yul\":2693:2776   */\n  swap1\n  pop\n    /* \"#utility.yul\":2476:2783   */\n  swap3\n  swap2\n  pop\n  pop\n  jump\t// out\n    /* \"#utility.yul\":2789:2918   */\ntag_42:\n    /* \"#utility.yul\":2823:2829   */\n  0x00\n    /* \"#utility.yul\":2850:2870   */\n  tag_83\n  tag_84\n  jump\t// in\ntag_83:\n    /* \"#utility.yul\":2840:2870   */\n  swap1\n  pop\n    /* \"#utility.yul\":2879:2912   */\n  tag_85\n    /* \"#utility.yul\":2907:2911   */\n  dup3\n    /* \"#utility.yul\":2899:2905   */\n  dup3\n    /* \"#utility.yul\":2879:2912   */\n  tag_86\n  jump\t// in\ntag_85:\n    /* \"#utility.yul\":2789:2918   */\n  swap2\n  swap1\n  pop\n  jump\t// out\n    /* \"#utility.yul\":2924:2999   */\ntag_84:\n    /* \"#utility.yul\":2957:2963   */\n  0x00\n    /* \"#utility.yul\":2990:2992   */\n  0x40\n    /* \"#utility.yul\":2984:2993   */\n  mload\n    /* \"#utility.yul\":2974:2993   */\n  swap1\n  pop\n    /* \"#utility.yul\":2924:2999   */\n  swap1\n  jump\t// out\n    /* \"#utility.yul\":3005:3313   */\ntag_41:\n    /* \"#utility.yul\":3067:3071   */\n  0x00\n    /* \"#utility.yul\":3157:3175   */\n  0xffffffffffffffff\n    /* \"#utility.yul\":3149:3155   */\n  dup3\n    /* \"#utility.yul\":3146:3176   */\n  gt\n    /* \"#utility.yul\":3143:3199   */\n  iszero\n  tag_89\n  jumpi\n    /* \"#utility.yul\":3179:3197   */\n  tag_90\n  tag_91\n  jump\t// in\ntag_90:\n    /* \"#utility.yul\":3143:3199   */\ntag_89:\n    /* \"#utility.yul\":3217:3246   */\n  tag_92\n    /* \"#utility.yul\":3239:3245   */\n  dup3\n    /* \"#utility.yul\":3217:3246   */\n  tag_93\n  jump\t// in\ntag_92:\n    /* \"#utility.yul\":3209:3246   */\n  swap1\n  pop\n    /* \"#utility.yul\":3301:3305   */\n  0x20\n    /* \"#utility.yul\":3295:3299   */\n  dup2\n    /* \"#utility.yul\":3291:3306   */\n  add\n    /* \"#utility.yul\":3283:3306   */\n  swap1\n  pop\n    /* \"#utility.yul\":3005:3313   */\n  swap2\n  swap1\n  pop\n  jump\t// out\n    /* \"#utility.yul\":3319:3460   */\ntag_76:\n    /* \"#utility.yul\":3368:3372   */\n  0x00\n    /* \"#utility.yul\":3391:3394   */\n  dup2\n    /* \"#utility.yul\":3383:3394   */\n  swap1\n  pop\n    /* \"#utility.yul\":3414:3417   */\n  dup2\n    /* \"#utility.yul\":3411:3412   */\n  0x00\n    /* \"#utility.yul\":3404:3418   */\n  mstore\n    /* \"#utility.yul\":3448:3452   */\n  0x20\n    /* \"#utility.yul\":3445:3446   */\n  0x00\n    /* \"#utility.yul\":3435:3453   */\n  keccak256\n    /* \"#utility.yul\":3427:3453   */\n  swap1\n  pop\n    /* \"#utility.yul\":3319:3460   */\n  swap2\n  swap1\n  pop\n  jump\t// out\n    /* \"#utility.yul\":3466:3635   */\ntag_71:\n    /* \"#utility.yul\":3550:3561   */\n  0x00\n    /* \"#utility.yul\":3584:3590   */\n  dup3\n    /* \"#utility.yul\":3579:3582   */\n  dup3\n    /* \"#utility.yul\":3572:3591   */\n  mstore\n    /* \"#utility.yul\":3624:3628   */\n  0x20\n    /* \"#utility.yul\":3619:3622   */\n  dup3\n    /* \"#utility.yul\":3615:3629   */\n  add\n    /* \"#utility.yul\":3600:3629   */\n  swap1\n  pop\n    /* \"#utility.yul\":3466:3635   */\n  swap3\n  swap2\n  pop\n  pop\n  jump\t// out\n    /* \"#utility.yul\":3641:3946   */\ntag_15:\n    /* \"#utility.yul\":3681:3684   */\n  0x00\n    /* \"#utility.yul\":3700:3720   */\n  tag_97\n    /* \"#utility.yul\":3718:3719   */\n  dup3\n    /* \"#utility.yul\":3700:3720   */\n  tag_98\n  jump\t// in\ntag_97:\n    /* \"#utility.yul\":3695:3720   */\n  swap2\n  pop\n    /* \"#utility.yul\":3734:3754   */\n  tag_99\n    /* \"#utility.yul\":3752:3753   */\n  dup4\n    /* \"#utility.yul\":3734:3754   */\n  tag_98\n  jump\t// in\ntag_99:\n    /* \"#utility.yul\":3729:3754   */\n  swap3\n  pop\n    /* \"#utility.yul\":3888:3889   */\n  dup3\n    /* \"#utility.yul\":3820:3886   */\n  0xffffffffffffffffffffffffffffffffffffffffffffffffffffffffffffffff\n    /* \"#utility.yul\":3816:3890   */\n  sub\n    /* \"#utility.yul\":3813:3814   */\n  dup3\n    /* \"#utility.yul\":3810:3891   */\n  gt\n    /* \"#utility.yul\":3807:3914   */\n  iszero\n  tag_100\n  jumpi\n    /* \"#utility.yul\":3894:3912   */\n  tag_101\n  tag_102\n  jump\t// in\ntag_101:\n    /* \"#utility.yul\":3807:3914   */\ntag_100:\n    /* \"#utility.yul\":3938:3939   */\n  dup3\n    /* \"#utility.yul\":3935:3936   */\n  dup3\n    /* \"#utility.yul\":3931:3940   */\n  add\n    /* \"#utility.yul\":3924:3940   */\n  swap1\n  pop\n    /* \"#utility.yul\":3641:3946   */\n  swap3\n  swap2\n  pop\n  pop\n  jump\t// out\n    /* \"#utility.yul\":3952:4137   */\ntag_19:\n    /* \"#utility.yul\":3992:3993   */\n  0x00\n    /* \"#utility.yul\":4009:4029   */\n  tag_104\n    /* \"#utility.yul\":4027:4028   */\n  dup3\n    /* \"#utility.yul\":4009:4029   */\n  tag_98\n  jump\t// in\ntag_104:\n    /* \"#utility.yul\":4004:4029   */\n  swap2\n  pop\n    /* \"#utility.yul\":4043:4063   */\n  tag_105\n    /* \"#utility.yul\":4061:4062   */\n  dup4\n    /* \"#utility.yul\":4043:4063   */\n  tag_98\n  jump\t// in\ntag_105:\n    /* \"#utility.yul\":4038:4063   */\n  swap3\n  pop\n    /* \"#utility.yul\":4082:4083   */\n  dup3\n    /* \"#utility.yul\":4072:4107   */\n  tag_106\n  jumpi\n    /* \"#utility.yul\":4087:4105   */\n  tag_107\n  tag_108\n  jump\t// in\ntag_107:\n    /* \"#utility.yul\":4072:4107   */\ntag_106:\n    /* \"#utility.yul\":4129:4130   */\n  dup3\n    /* \"#utility.yul\":4126:4127   */\n  dup3\n    /* \"#utility.yul\":4122:4131   */\n  div\n    /* \"#utility.yul\":4117:4131   */\n  swap1\n  pop\n    /* \"#utility.yul\":3952:4137   */\n  swap3\n  swap2\n  pop\n  pop\n  jump\t// out\n    /* \"#utility.yul\":4143:4491   */\ntag_21:\n    /* \"#utility.yul\":4183:4190   */\n  0x00\n    /* \"#utility.yul\":4206:4226   */\n  tag_110\n    /* \"#utility.yul\":4224:4225   */\n  dup3\n    /* \"#utility.yul\":4206:4226   */\n  tag_98\n  jump\t// in\ntag_110:\n    /* \"#utility.yul\":4201:4226   */\n  swap2\n  pop\n    /* \"#utility.yul\":4240:4260   */\n  tag_111\n    /* \"#utility.yul\":4258:4259   */\n  dup4\n    /* \"#utility.yul\":4240:4260   */\n  tag_98\n  jump\t// in\ntag_111:\n    /* \"#utility.yul\":4235:4260   */\n  swap3\n  pop\n    /* \"#utility.yul\":4428:4429   */\n  dup2\n    /* \"#utility.yul\":4360:4426   */\n  0xffffffffffffffffffffffffffffffffffffffffffffffffffffffffffffffff\n    /* \"#utility.yul\":4356:4430   */\n  div\n    /* \"#utility.yul\":4353:4354   */\n  dup4\n    /* \"#utility.yul\":4350:4431   */\n  gt\n    /* \"#utility.yul\":4345:4346   */\n  dup3\n    /* \"#utility.yul\":4338:4347   */\n  iszero\n    /* \"#utility.yul\":4331:4348   */\n  iszero\n    /* \"#utility.yul\":4327:4432   */\n  and\n    /* \"#utility.yul\":4324:4455   */\n  iszero\n  tag_112\n  jumpi\n    /* \"#utility.yul\":4435:4453   */\n  tag_113\n  tag_102\n  jump\t// in\ntag_113:\n    /* \"#utility.yul\":4324:4455   */\ntag_112:\n    /* \"#utility.yul\":4483:4484   */\n  dup3\n    /* \"#utility.yul\":4480:4481   */\n  dup3\n    /* \"#utility.yul\":4476:4485   */\n  mul\n    /* \"#utility.yul\":4465:4485   */\n  swap1\n  pop\n    /* \"#utility.yul\":4143:4491   */\n  swap3\n  swap2\n  pop\n  pop\n  jump\t// out\n    /* \"#utility.yul\":4497:4688   */\ntag_23:\n    /* \"#utility.yul\":4537:4541   */\n  0x00\n    /* \"#utility.yul\":4557:4577   */\n  tag_115\n    /* \"#utility.yul\":4575:4576   */\n  dup3\n    /* \"#utility.yul\":4557:4577   */\n  tag_98\n  jump\t// in\ntag_115:\n    /* \"#utility.yul\":4552:4577   */\n  swap2\n  pop\n    /* \"#utility.yul\":4591:4611   */\n  tag_116\n    /* \"#utility.yul\":4609:4610   */\n  dup4\n    /* \"#utility.yul\":4591:4611   */\n  tag_98\n  jump\t// in\ntag_116:\n    /* \"#utility.yul\":4586:4611   */\n  swap3\n  pop\n    /* \"#utility.yul\":4630:4631   */\n  dup3\n    /* \"#utility.yul\":4627:4628   */\n  dup3\n    /* \"#utility.yul\":4624:4632   */\n  lt\n    /* \"#utility.yul\":4621:4655   */\n  iszero\n  tag_117\n  jumpi\n    /* \"#utility.yul\":4635:4653   */\n  tag_118\n  tag_102\n  jump\t// in\ntag_118:\n    /* \"#utility.yul\":4621:4655   */\ntag_117:\n    /* \"#utility.yul\":4680:4681   */\n  dup3\n    /* \"#utility.yul\":4677:4678   */\n  dup3\n    /* \"#utility.yul\":4673:4682   */\n  sub\n    /* \"#utility.yul\":4665:4682   */\n  swap1\n  pop\n    /* \"#utility.yul\":4497:4688   */\n  swap3\n  swap2\n  pop\n  pop\n  jump\t// out\n    /* \"#utility.yul\":4694:4771   */\ntag_98:\n    /* \"#utility.yul\":4731:4738   */\n  0x00\n    /* \"#utility.yul\":4760:4765   */\n  dup2\n    /* \"#utility.yul\":4749:4765   */\n  swap1\n  pop\n    /* \"#utility.yul\":4694:4771   */\n  swap2\n  swap1\n  pop\n  jump\t// out\n    /* \"#utility.yul\":4777:5084   */\ntag_47:\n    /* \"#utility.yul\":4845:4846   */\n  0x00\n    /* \"#utility.yul\":4855:4968   */\ntag_121:\n    /* \"#utility.yul\":4869:4875   */\n  dup4\n    /* \"#utility.yul\":4866:4867   */\n  dup2\n    /* \"#utility.yul\":4863:4876   */\n  lt\n    /* \"#utility.yul\":4855:4968   */\n  iszero\n  tag_123\n  jumpi\n    /* \"#utility.yul\":4954:4955   */\n  dup1\n    /* \"#utility.yul\":4949:4952   */\n  dup3\n    /* \"#utility.yul\":4945:4956   */\n  add\n    /* \"#utility.yul\":4939:4957   */\n  mload\n    /* \"#utility.yul\":4935:4936   */\n  dup2\n    /* \"#utility.yul\":4930:4933   */\n  dup5\n    /* \"#utility.yul\":4926:4937   */\n  add\n    /* \"#utility.yul\":4919:4958   */\n  mstore\n    /* \"#utility.yul\":4891:4893   */\n  0x20\n    /* \"#utility.yul\":4888:4889   */\n  dup2\n    /* \"#utility.yul\":4884:4894   */\n  add\n    /* \"#utility.yul\":4879:4894   */\n  swap1\n  pop\n    /* \"#utility.yul\":4855:4968   */\n  jump(tag_121)\ntag_123:\n    /* \"#utility.yul\":4986:4992   */\n  dup4\n    /* \"#utility.yul\":4983:4984   */\n  dup2\n    /* \"#utility.yul\":4980:4993   */\n  gt\n    /* \"#utility.yul\":4977:5078   */\n  iszero\n  tag_124\n  jumpi\n    /* \"#utility.yul\":5066:5067   */\n  0x00\n    /* \"#utility.yul\":5057:5063   */\n  dup5\n    /* \"#utility.yul\":5052:5055   */\n  dup5\n    /* \"#utility.yul\":5048:5064   */\n  add\n    /* \"#utility.yul\":5041:5068   */\n  mstore\n    /* \"#utility.yul\":4977:5078   */\ntag_124:\n    /* \"#utility.yul\":4826:5084   */\n  pop\n    /* \"#utility.yul\":4777:5084   */\n  pop\n  pop\n  pop\n  jump\t// out\n    /* \"#utility.yul\":5090:5410   */\ntag_26:\n    /* \"#utility.yul\":5134:5140   */\n  0x00\n    /* \"#utility.yul\":5171:5172   */\n  0x02\n    /* \"#utility.yul\":5165:5169   */\n  dup3\n    /* \"#utility.yul\":5161:5173   */\n  div\n    /* \"#utility.yul\":5151:5173   */\n  swap1\n  pop\n    /* \"#utility.yul\":5218:5219   */\n  0x01\n    /* \"#utility.yul\":5212:5216   */\n  dup3\n    /* \"#utility.yul\":5208:5220   */\n  and\n    /* \"#utility.yul\":5239:5257   */\n  dup1\n    /* \"#utility.yul\":5229:5310   */\n  tag_126\n  jumpi\n    /* \"#utility.yul\":5295:5299   */\n  0x7f\n    /* \"#utility.yul\":5287:5293   */\n  dup3\n    /* \"#utility.yul\":5283:5300   */\n  and\n    /* \"#utility.yul\":5273:5300   */\n  swap2\n  pop\n    /* \"#utility.yul\":5229:5310   */\ntag_126:\n    /* \"#utility.yul\":5357:5359   */\n  0x20\n    /* \"#utility.yul\":5349:5355   */\n  dup3\n    /* \"#utility.yul\":5346:5360   */\n  lt\n    /* \"#utility.yul\":5326:5344   */\n  dup2\n    /* \"#utility.yul\":5323:5361   */\n  eq\n    /* \"#utility.yul\":5320:5404   */\n  iszero\n  tag_127\n  jumpi\n    /* \"#utility.yul\":5376:5394   */\n  tag_128\n  tag_129\n  jump\t// in\ntag_128:\n    /* \"#utility.yul\":5320:5404   */\ntag_127:\n    /* \"#utility.yul\":5141:5410   */\n  pop\n    /* \"#utility.yul\":5090:5410   */\n  swap2\n  swap1\n  pop\n  jump\t// out\n    /* \"#utility.yul\":5416:5697   */\ntag_86:\n    /* \"#utility.yul\":5499:5526   */\n  tag_131\n    /* \"#utility.yul\":5521:5525   */\n  dup3\n    /* \"#utility.yul\":5499:5526   */\n  tag_93\n  jump\t// in\ntag_131:\n    /* \"#utility.yul\":5491:5497   */\n  dup2\n    /* \"#utility.yul\":5487:5527   */\n  add\n    /* \"#utility.yul\":5629:5635   */\n  dup2\n    /* \"#utility.yul\":5617:5627   */\n  dup2\n    /* \"#utility.yul\":5614:5636   */\n  lt\n    /* \"#utility.yul\":5593:5611   */\n  0xffffffffffffffff\n    /* \"#utility.yul\":5581:5591   */\n  dup3\n    /* \"#utility.yul\":5578:5612   */\n  gt\n    /* \"#utility.yul\":5575:5637   */\n  or\n    /* \"#utility.yul\":5572:5660   */\n  iszero\n  tag_132\n  jumpi\n    /* \"#utility.yul\":5640:5658   */\n  tag_133\n  tag_91\n  jump\t// in\ntag_133:\n    /* \"#utility.yul\":5572:5660   */\ntag_132:\n    /* \"#utility.yul\":5680:5690   */\n  dup1\n    /* \"#utility.yul\":5676:5678   */\n  0x40\n    /* \"#utility.yul\":5669:5691   */\n  mstore\n    /* \"#utility.yul\":5459:5697   */\n  pop\n    /* \"#utility.yul\":5416:5697   */\n  pop\n  pop\n  jump\t// out\n    /* \"#utility.yul\":5703:5883   */\ntag_102:\n    /* \"#utility.yul\":5751:5828   */\n  0x4e487b7100000000000000000000000000000000000000000000000000000000\n    /* \"#utility.yul\":5748:5749   */\n  0x00\n    /* \"#utility.yul\":5741:5829   */\n  mstore\n    /* \"#utility.yul\":5848:5852   */\n  0x11\n    /* \"#utility.yul\":5845:5846   */\n  0x04\n    /* \"#utility.yul\":5838:5853   */\n  mstore\n    /* \"#utility.yul\":5872:5876   */\n  0x24\n    /* \"#utility.yul\":5869:5870   */\n  0x00\n    /* \"#utility.yul\":5862:5877   */\n  revert\n    /* \"#utility.yul\":5889:6069   */\ntag_108:\n    /* \"#utility.yul\":5937:6014   */\n  0x4e487b7100000000000000000000000000000000000000000000000000000000\n    /* \"#utility.yul\":5934:5935   */\n  0x00\n    /* \"#utility.yul\":5927:6015   */\n  mstore\n    /* \"#utility.yul\":6034:6038   */\n  0x12\n    /* \"#utility.yul\":6031:6032   */\n  0x04\n    /* \"#utility.yul\":6024:6039   */\n  mstore\n    /* \"#utility.yul\":6058:6062   */\n  0x24\n    /* \"#utility.yul\":6055:6056   */\n  0x00\n    /* \"#utility.yul\":6048:6063   */\n  revert\n    /* \"#utility.yul\":6075:6255   */\ntag_129:\n    /* \"#utility.yul\":6123:6200   */\n  0x4e487b7100000000000000000000000000000000000000000000000000000000\n    /* \"#utility.yul\":6120:6121   */\n  0x00\n    /* \"#utility.yul\":6113:6201   */\n  mstore\n    /* \"#utility.yul\":6220:6224   */\n  0x22\n    /* \"#utility.yul\":6217:6218   */\n  0x04\n    /* \"#utility.yul\":6210:6225   */\n  mstore\n    /* \"#utility.yul\":6244:6248   */\n  0x24\n    /* \"#utility.yul\":6241:6242   */\n  0x00\n    /* \"#utility.yul\":6234:6249   */\n  revert\n    /* \"#utility.yul\":6261:6441   */\ntag_91:\n    /* \"#utility.yul\":6309:6386   */\n  0x4e487b7100000000000000000000000000000000000000000000000000000000\n    /* \"#utility.yul\":6306:6307   */\n  0x00\n    /* \"#utility.yul\":6299:6387   */\n  mstore\n    /* \"#utility.yul\":6406:6410   */\n  0x41\n    /* \"#utility.yul\":6403:6404   */\n  0x04\n    /* \"#utility.yul\":6396:6411   */\n  mstore\n    /* \"#utility.yul\":6430:6434   */\n  0x24\n    /* \"#utility.yul\":6427:6428   */\n  0x00\n    /* \"#utility.yul\":6420:6435   */\n  revert\n    /* \"#utility.yul\":6447:6564   */\ntag_52:\n    /* \"#utility.yul\":6556:6557   */\n  0x00\n    /* \"#utility.yul\":6553:6554   */\n  dup1\n    /* \"#utility.yul\":6546:6558   */\n  revert\n    /* \"#utility.yul\":6570:6687   */\ntag_45:\n    /* \"#utility.yul\":6679:6680   */\n  0x00\n    /* \"#utility.yul\":6676:6677   */\n  dup1\n    /* \"#utility.yul\":6669:6681   */\n  revert\n    /* \"#utility.yul\":6693:6810   */\ntag_64:\n    /* \"#utility.yul\":6802:6803   */\n  0x00\n    /* \"#utility.yul\":6799:6800   */\n  dup1\n    /* \"#utility.yul\":6792:6804   */\n  revert\n    /* \"#utility.yul\":6816:6933   */\ntag_61:\n    /* \"#utility.yul\":6925:6926   */\n  0x00\n    /* \"#utility.yul\":6922:6923   */\n  dup1\n    /* \"#utility.yul\":6915:6927   */\n  revert\n    /* \"#utility.yul\":6939:7041   */\ntag_93:\n    /* \"#utility.yul\":6980:6986   */\n  0x00\n    /* \"#utility.yul\":7031:7033   */\n  0x1f\n    /* \"#utility.yul\":7027:7034   */\n  not\n    /* \"#utility.yul\":7022:7024   */\n  0x1f\n    /* \"#utility.yul\":7015:7020   */\n  dup4\n    /* \"#utility.yul\":7011:7025   */\n  add\n    /* \"#utility.yul\":7007:7035   */\n  and\n    /* \"#utility.yul\":6997:7035   */\n  swap1\n  pop\n    /* \"#utility.yul\":6939:7041   */\n  swap2\n  swap1\n  pop\n  jump\t// out\n    /* \"#utility.yul\":7047:7169   */\ntag_57:\n    /* \"#utility.yul\":7120:7144   */\n  tag_144\n    /* \"#utility.yul\":7138:7143   */\n  dup2\n    /* \"#utility.yul\":7120:7144   */\n  tag_98\n  jump\t// in\ntag_144:\n    /* \"#utility.yul\":7113:7118   */\n  dup2\n    /* \"#utility.yul\":7110:7145   */\n  eq\n    /* \"#utility.yul\":7100:7163   */\n  tag_145\n  jumpi\n    /* \"#utility.yul\":7159:7160   */\n  0x00\n    /* \"#utility.yul\":7156:7157   */\n  dup1\n    /* \"#utility.yul\":7149:7161   */\n  revert\n    /* \"#utility.yul\":7100:7163   */\ntag_145:\n    /* \"#utility.yul\":7047:7169   */\n  pop\n  jump\t// out\n    /* \"src/main/java/org/example/sol/contrack01/randomGame.sol\":74:2165  contract randomGame {\r... */\ntag_10:\n  dataSize(sub_0)\n  dup1\n  dataOffset(sub_0)\n  0x00\n  codecopy\n  0x00\n  return\nstop\n\nsub_0: assembly {\n        /* \"src/main/java/org/example/sol/contrack01/randomGame.sol\":74:2165  contract randomGame {\r... */\n      mstore(0x40, 0x80)\n      jumpi(tag_1, lt(calldatasize, 0x04))\n      shr(0xe0, calldataload(0x00))\n      dup1\n      0x8da5cb5b\n      gt\n      tag_12\n      jumpi\n      dup1\n      0x8da5cb5b\n      eq\n      tag_7\n      jumpi\n      dup1\n      0x9f8743f7\n      eq\n      tag_8\n      jumpi\n      dup1\n      0xa86d2e19\n      eq\n      tag_9\n      jumpi\n      dup1\n      0xcf66b989\n      eq\n      tag_10\n      jumpi\n      dup1\n      0xe3c16cac\n      eq\n      tag_11\n      jumpi\n      jump(tag_2)\n    tag_12:\n      dup1\n      0x0df516d8\n      eq\n      tag_3\n      jumpi\n      dup1\n      0x146ca531\n      eq\n      tag_4\n      jumpi\n      dup1\n      0x4d9b3d5d\n      eq\n      tag_5\n      jumpi\n      dup1\n      0x79ed40bc\n      eq\n      tag_6\n      jumpi\n      jump(tag_2)\n    tag_1:\n      jumpi(tag_2, calldatasize)\n        /* \"src/main/java/org/example/sol/contrack01/randomGame.sol\":810:816  10**15 */\n      0x038d7ea4c68000\n        /* \"src/main/java/org/example/sol/contrack01/randomGame.sol\":797:806  msg.value */\n      callvalue\n        /* \"src/main/java/org/example/sol/contrack01/randomGame.sol\":797:816  msg.value == 10**15 */\n      eq\n        /* \"src/main/java/org/example/sol/contrack01/randomGame.sol\":789:841  require(msg.value == 10**15, \"Must be 0.001 ether.\") */\n      tag_15\n      jumpi\n      mload(0x40)\n      0x08c379a000000000000000000000000000000000000000000000000000000000\n      dup2\n      mstore\n      0x04\n      add\n      tag_16\n      swap1\n      tag_17\n      jump\t// in\n    tag_16:\n      mload(0x40)\n      dup1\n      swap2\n      sub\n      swap1\n      revert\n    tag_15:\n        /* \"src/main/java/org/example/sol/contrack01/randomGame.sol\":900:905  false */\n      0x00\n        /* \"src/main/java/org/example/sol/contrack01/randomGame.sol\":864:905  paidAddressList[round][msg.sender]==false */\n      iszero\n      iszero\n        /* \"src/main/java/org/example/sol/contrack01/randomGame.sol\":864:879  paidAddressList */\n      0x01\n        /* \"src/main/java/org/example/sol/contrack01/randomGame.sol\":864:886  paidAddressList[round] */\n      0x00\n        /* \"src/main/java/org/example/sol/contrack01/randomGame.sol\":880:885  round */\n      sload(0x05)\n        /* \"src/main/java/org/example/sol/contrack01/randomGame.sol\":864:886  paidAddressList[round] */\n      dup2\n      mstore\n      0x20\n      add\n      swap1\n      dup2\n      mstore\n      0x20\n      add\n      0x00\n      keccak256\n        /* \"src/main/java/org/example/sol/contrack01/randomGame.sol\":864:898  paidAddressList[round][msg.sender] */\n      0x00\n        /* \"src/main/java/org/example/sol/contrack01/randomGame.sol\":887:897  msg.sender */\n      caller\n        /* \"src/main/java/org/example/sol/contrack01/randomGame.sol\":864:898  paidAddressList[round][msg.sender] */\n      0xffffffffffffffffffffffffffffffffffffffff\n      and\n      0xffffffffffffffffffffffffffffffffffffffff\n      and\n      dup2\n      mstore\n      0x20\n      add\n      swap1\n      dup2\n      mstore\n      0x20\n      add\n      0x00\n      keccak256\n      0x00\n      swap1\n      sload\n      swap1\n      0x0100\n      exp\n      swap1\n      div\n      0xff\n      and\n        /* \"src/main/java/org/example/sol/contrack01/randomGame.sol\":864:905  paidAddressList[round][msg.sender]==false */\n      iszero\n      iszero\n      eq\n        /* \"src/main/java/org/example/sol/contrack01/randomGame.sol\":856:932  require(paidAddressList[round][msg.sender]==false,\"Must be the first time.\") */\n      tag_18\n      jumpi\n      mload(0x40)\n      0x08c379a000000000000000000000000000000000000000000000000000000000\n      dup2\n      mstore\n      0x04\n      add\n      tag_19\n      swap1\n      tag_20\n      jump\t// in\n    tag_19:\n      mload(0x40)\n      dup1\n      swap2\n      sub\n      swap1\n      revert\n    tag_18:\n        /* \"src/main/java/org/example/sol/contrack01/randomGame.sol\":978:982  true */\n      0x01\n        /* \"src/main/java/org/example/sol/contrack01/randomGame.sol\":943:958  paidAddressList */\n      dup1\n        /* \"src/main/java/org/example/sol/contrack01/randomGame.sol\":943:965  paidAddressList[round] */\n      0x00\n        /* \"src/main/java/org/example/sol/contrack01/randomGame.sol\":959:964  round */\n      sload(0x05)\n        /* \"src/main/java/org/example/sol/contrack01/randomGame.sol\":943:965  paidAddressList[round] */\n      dup2\n      mstore\n      0x20\n      add\n      swap1\n      dup2\n      mstore\n      0x20\n      add\n      0x00\n      keccak256\n        /* \"src/main/java/org/example/sol/contrack01/randomGame.sol\":943:977  paidAddressList[round][msg.sender] */\n      0x00\n        /* \"src/main/java/org/example/sol/contrack01/randomGame.sol\":966:976  msg.sender */\n      caller\n        /* \"src/main/java/org/example/sol/contrack01/randomGame.sol\":943:977  paidAddressList[round][msg.sender] */\n      0xffffffffffffffffffffffffffffffffffffffff\n      and\n      0xffffffffffffffffffffffffffffffffffffffff\n      and\n      dup2\n      mstore\n      0x20\n      add\n      swap1\n      dup2\n      mstore\n      0x20\n      add\n      0x00\n      keccak256\n      0x00\n        /* \"src/main/java/org/example/sol/contrack01/randomGame.sol\":943:982  paidAddressList[round][msg.sender]=true */\n      0x0100\n      exp\n      dup2\n      sload\n      dup2\n      0xff\n      mul\n      not\n      and\n      swap1\n      dup4\n      iszero\n      iszero\n      mul\n      or\n      swap1\n      sstore\n      pop\n        /* \"src/main/java/org/example/sol/contrack01/randomGame.sol\":995:1005  playNumber */\n      0x06\n      0x00\n        /* \"src/main/java/org/example/sol/contrack01/randomGame.sol\":993:1005  ++playNumber */\n      dup2\n      sload\n      tag_21\n      swap1\n      tag_22\n      jump\t// in\n    tag_21:\n      swap2\n      swap1\n      pop\n      dup2\n      swap1\n      sstore\n      pop\n        /* \"src/main/java/org/example/sol/contrack01/randomGame.sol\":1034:1046  winnerNumber */\n      sload(0x02)\n        /* \"src/main/java/org/example/sol/contrack01/randomGame.sol\":1021:1031  playNumber */\n      sload(0x06)\n        /* \"src/main/java/org/example/sol/contrack01/randomGame.sol\":1021:1046  playNumber ==winnerNumber */\n      eq\n        /* \"src/main/java/org/example/sol/contrack01/randomGame.sol\":1018:1387  if(playNumber ==winnerNumber){\r... */\n      iszero\n      tag_23\n      jumpi\n        /* \"src/main/java/org/example/sol/contrack01/randomGame.sol\":1063:1075  bool success */\n      0x00\n        /* \"src/main/java/org/example/sol/contrack01/randomGame.sol\":1080:1090  msg.sender */\n      caller\n        /* \"src/main/java/org/example/sol/contrack01/randomGame.sol\":1080:1095  msg.sender.call */\n      0xffffffffffffffffffffffffffffffffffffffff\n      and\n        /* \"src/main/java/org/example/sol/contrack01/randomGame.sol\":1102:1123  address(this).balance */\n      selfbalance\n        /* \"src/main/java/org/example/sol/contrack01/randomGame.sol\":1080:1128  msg.sender.call{value:address(this).balance}(\"\") */\n      mload(0x40)\n      tag_24\n      swap1\n      tag_25\n      jump\t// in\n    tag_24:\n      0x00\n      mload(0x40)\n      dup1\n      dup4\n      sub\n      dup2\n      dup6\n      dup8\n      gas\n      call\n      swap3\n      pop\n      pop\n      pop\n      returndatasize\n      dup1\n      0x00\n      dup2\n      eq\n      tag_28\n      jumpi\n      mload(0x40)\n      swap2\n      pop\n      and(add(returndatasize, 0x3f), not(0x1f))\n      dup3\n      add\n      0x40\n      mstore\n      returndatasize\n      dup3\n      mstore\n      returndatasize\n      0x00\n      0x20\n      dup5\n      add\n      returndatacopy\n      jump(tag_27)\n    tag_28:\n      0x60\n      swap2\n      pop\n    tag_27:\n      pop\n        /* \"src/main/java/org/example/sol/contrack01/randomGame.sol\":1062:1128  (bool success,) = msg.sender.call{value:address(this).balance}(\"\") */\n      pop\n      swap1\n      pop\n        /* \"src/main/java/org/example/sol/contrack01/randomGame.sol\":1151:1158  success */\n      dup1\n        /* \"src/main/java/org/example/sol/contrack01/randomGame.sol\":1143:1168  require(success,\"Failed\") */\n      tag_29\n      jumpi\n      mload(0x40)\n      0x08c379a000000000000000000000000000000000000000000000000000000000\n      dup2\n      mstore\n      0x04\n      add\n      tag_30\n      swap1\n      tag_31\n      jump\t// in\n    tag_30:\n      mload(0x40)\n      dup1\n      swap2\n      sub\n      swap1\n      revert\n    tag_29:\n        /* \"src/main/java/org/example/sol/contrack01/randomGame.sol\":1194:1195  0 */\n      0x00\n        /* \"src/main/java/org/example/sol/contrack01/randomGame.sol\":1183:1193  playNumber */\n      0x06\n        /* \"src/main/java/org/example/sol/contrack01/randomGame.sol\":1183:1195  playNumber=0 */\n      dup2\n      swap1\n      sstore\n      pop\n        /* \"src/main/java/org/example/sol/contrack01/randomGame.sol\":1212:1217  round */\n      0x05\n      0x00\n        /* \"src/main/java/org/example/sol/contrack01/randomGame.sol\":1210:1217  ++round */\n      dup2\n      sload\n      tag_32\n      swap1\n      tag_22\n      jump\t// in\n    tag_32:\n      swap2\n      swap1\n      pop\n      dup2\n      swap1\n      sstore\n      pop\n        /* \"src/main/java/org/example/sol/contrack01/randomGame.sol\":1245:1259  randomNumber() */\n      tag_33\n        /* \"src/main/java/org/example/sol/contrack01/randomGame.sol\":1245:1257  randomNumber */\n      tag_34\n        /* \"src/main/java/org/example/sol/contrack01/randomGame.sol\":1245:1259  randomNumber() */\n      jump\t// in\n    tag_33:\n        /* \"src/main/java/org/example/sol/contrack01/randomGame.sol\":1232:1244  winnerNumber */\n      0x02\n        /* \"src/main/java/org/example/sol/contrack01/randomGame.sol\":1232:1259  winnerNumber=randomNumber() */\n      dup2\n      swap1\n      sstore\n      pop\n        /* \"src/main/java/org/example/sol/contrack01/randomGame.sol\":1293:1303  msg.sender */\n      caller\n        /* \"src/main/java/org/example/sol/contrack01/randomGame.sol\":1279:1304  WinnerAddress(msg.sender) */\n      0xffffffffffffffffffffffffffffffffffffffff\n      and\n      0xd7b5435fa0dd93954c7955210a67950d9385f8cd60631432712709e265ec99ca\n      mload(0x40)\n      mload(0x40)\n      dup1\n      swap2\n      sub\n      swap1\n      log2\n        /* \"src/main/java/org/example/sol/contrack01/randomGame.sol\":1047:1316  {\r... */\n      pop\n        /* \"src/main/java/org/example/sol/contrack01/randomGame.sol\":1018:1387  if(playNumber ==winnerNumber){\r... */\n      jump(tag_35)\n    tag_23:\n        /* \"src/main/java/org/example/sol/contrack01/randomGame.sol\":1354:1364  msg.sender */\n      caller\n        /* \"src/main/java/org/example/sol/contrack01/randomGame.sol\":1342:1375  PaidAddress(msg.sender,msg.value) */\n      0xffffffffffffffffffffffffffffffffffffffff\n      and\n      0x20384c35af44ae3e0536c765e1cee107339d7ca70b092472c816a3a62e4ba659\n        /* \"src/main/java/org/example/sol/contrack01/randomGame.sol\":1365:1374  msg.value */\n      callvalue\n        /* \"src/main/java/org/example/sol/contrack01/randomGame.sol\":1342:1375  PaidAddress(msg.sender,msg.value) */\n      mload(0x40)\n      tag_36\n      swap2\n      swap1\n      tag_37\n      jump\t// in\n    tag_36:\n      mload(0x40)\n      dup1\n      swap2\n      sub\n      swap1\n      log2\n        /* \"src/main/java/org/example/sol/contrack01/randomGame.sol\":1018:1387  if(playNumber ==winnerNumber){\r... */\n    tag_35:\n        /* \"src/main/java/org/example/sol/contrack01/randomGame.sol\":74:2165  contract randomGame {\r... */\n      stop\n    tag_2:\n      0x00\n      dup1\n      revert\n        /* \"src/main/java/org/example/sol/contrack01/randomGame.sol\":312:337  uint public playNumber =0 */\n    tag_3:\n      callvalue\n      dup1\n      iszero\n      tag_38\n      jumpi\n      0x00\n      dup1\n      revert\n    tag_38:\n      pop\n      tag_39\n      tag_40\n      jump\t// in\n    tag_39:\n      mload(0x40)\n      tag_41\n      swap2\n      swap1\n      tag_37\n      jump\t// in\n    tag_41:\n      mload(0x40)\n      dup1\n      swap2\n      sub\n      swap1\n      return\n        /* \"src/main/java/org/example/sol/contrack01/randomGame.sol\":285:305  uint public round =1 */\n    tag_4:\n      callvalue\n      dup1\n      iszero\n      tag_42\n      jumpi\n      0x00\n      dup1\n      revert\n    tag_42:\n      pop\n      tag_43\n      tag_44\n      jump\t// in\n    tag_43:\n      mload(0x40)\n      tag_45\n      swap2\n      swap1\n      tag_37\n      jump\t// in\n    tag_45:\n      mload(0x40)\n      dup1\n      swap2\n      sub\n      swap1\n      return\n        /* \"src/main/java/org/example/sol/contrack01/randomGame.sol\":2064:2162  function getbalance() public view returns(uint256) {\r... */\n    tag_5:\n      callvalue\n      dup1\n      iszero\n      tag_46\n      jumpi\n      0x00\n      dup1\n      revert\n    tag_46:\n      pop\n      tag_47\n      tag_48\n      jump\t// in\n    tag_47:\n      mload(0x40)\n      tag_49\n      swap2\n      swap1\n      tag_37\n      jump\t// in\n    tag_49:\n      mload(0x40)\n      dup1\n      swap2\n      sub\n      swap1\n      return\n        /* \"src/main/java/org/example/sol/contrack01/randomGame.sol\":1741:1856  function getSecretKey() public view onlyOwner() returns(string memory, uint)  {\r... */\n    tag_6:\n      callvalue\n      dup1\n      iszero\n      tag_50\n      jumpi\n      0x00\n      dup1\n      revert\n    tag_50:\n      pop\n      tag_51\n      tag_52\n      jump\t// in\n    tag_51:\n      mload(0x40)\n      tag_53\n      swap3\n      swap2\n      swap1\n      tag_54\n      jump\t// in\n    tag_53:\n      mload(0x40)\n      dup1\n      swap2\n      sub\n      swap1\n      return\n        /* \"src/main/java/org/example/sol/contrack01/randomGame.sol\":101:121  address public owner */\n    tag_7:\n      callvalue\n      dup1\n      iszero\n      tag_55\n      jumpi\n      0x00\n      dup1\n      revert\n    tag_55:\n      pop\n      tag_56\n      tag_57\n      jump\t// in\n    tag_56:\n      mload(0x40)\n      tag_58\n      swap2\n      swap1\n      tag_59\n      jump\t// in\n    tag_58:\n      mload(0x40)\n      dup1\n      swap2\n      sub\n      swap1\n      return\n        /* \"src/main/java/org/example/sol/contrack01/randomGame.sol\":1975:2056  function getRound() public view returns(uint256)  {\r... */\n    tag_8:\n      callvalue\n      dup1\n      iszero\n      tag_60\n      jumpi\n      0x00\n      dup1\n      revert\n    tag_60:\n      pop\n      tag_61\n      tag_62\n      jump\t// in\n    tag_61:\n      mload(0x40)\n      tag_63\n      swap2\n      swap1\n      tag_37\n      jump\t// in\n    tag_63:\n      mload(0x40)\n      dup1\n      swap2\n      sub\n      swap1\n      return\n        /* \"src/main/java/org/example/sol/contrack01/randomGame.sol\":1862:1967  function getWinnerNumber() public view onlyOwner() returns(uint256){\r... */\n    tag_9:\n      callvalue\n      dup1\n      iszero\n      tag_64\n      jumpi\n      0x00\n      dup1\n      revert\n    tag_64:\n      pop\n      tag_65\n      tag_66\n      jump\t// in\n    tag_65:\n      mload(0x40)\n      tag_67\n      swap2\n      swap1\n      tag_37\n      jump\t// in\n    tag_67:\n      mload(0x40)\n      dup1\n      swap2\n      sub\n      swap1\n      return\n        /* \"src/main/java/org/example/sol/contrack01/randomGame.sol\":128:193  mapping (uint => mapping(address => bool)) public paidAddressList */\n    tag_10:\n      callvalue\n      dup1\n      iszero\n      tag_68\n      jumpi\n      0x00\n      dup1\n      revert\n    tag_68:\n      pop\n      tag_69\n      0x04\n      dup1\n      calldatasize\n      sub\n      dup2\n      add\n      swap1\n      tag_70\n      swap2\n      swap1\n      tag_71\n      jump\t// in\n    tag_70:\n      tag_72\n      jump\t// in\n    tag_69:\n      mload(0x40)\n      tag_73\n      swap2\n      swap1\n      tag_74\n      jump\t// in\n    tag_73:\n      mload(0x40)\n      dup1\n      swap2\n      sub\n      swap1\n      return\n        /* \"src/main/java/org/example/sol/contrack01/randomGame.sol\":1609:1733  function setSecretKe(string memory _key1, uint _key2) public onlyOwner()  {\r... */\n    tag_11:\n      callvalue\n      dup1\n      iszero\n      tag_75\n      jumpi\n      0x00\n      dup1\n      revert\n    tag_75:\n      pop\n      tag_76\n      0x04\n      dup1\n      calldatasize\n      sub\n      dup2\n      add\n      swap1\n      tag_77\n      swap2\n      swap1\n      tag_78\n      jump\t// in\n    tag_77:\n      tag_79\n      jump\t// in\n    tag_76:\n      stop\n        /* \"src/main/java/org/example/sol/contrack01/randomGame.sol\":1402:1601  function randomNumber() private view returns(uint) {\r... */\n    tag_34:\n        /* \"src/main/java/org/example/sol/contrack01/randomGame.sol\":1447:1451  uint */\n      0x00\n        /* \"src/main/java/org/example/sol/contrack01/randomGame.sol\":1464:1472  uint num */\n      dup1\n        /* \"src/main/java/org/example/sol/contrack01/randomGame.sol\":1539:1551  block.number */\n      number\n        /* \"src/main/java/org/example/sol/contrack01/randomGame.sol\":1519:1534  block.timestamp */\n      timestamp\n        /* \"src/main/java/org/example/sol/contrack01/randomGame.sol\":1511:1515  key2 */\n      sload(0x04)\n        /* \"src/main/java/org/example/sol/contrack01/randomGame.sol\":1501:1505  key1 */\n      0x03\n        /* \"src/main/java/org/example/sol/contrack01/randomGame.sol\":1490:1506  abi.encode(key1) */\n      add(0x20, mload(0x40))\n      tag_81\n      swap2\n      swap1\n      tag_82\n      jump\t// in\n    tag_81:\n      mload(0x40)\n      0x20\n      dup2\n      dup4\n      sub\n      sub\n      dup2\n      mstore\n      swap1\n      0x40\n      mstore\n        /* \"src/main/java/org/example/sol/contrack01/randomGame.sol\":1480:1507  keccak256(abi.encode(key1)) */\n      dup1\n      mload\n      swap1\n      0x20\n      add\n      keccak256\n        /* \"src/main/java/org/example/sol/contrack01/randomGame.sol\":1475:1508  uint(keccak256(abi.encode(key1))) */\n      0x00\n      shr\n        /* \"src/main/java/org/example/sol/contrack01/randomGame.sol\":1475:1515  uint(keccak256(abi.encode(key1))) + key2 */\n      tag_83\n      swap2\n      swap1\n      tag_84\n      jump\t// in\n    tag_83:\n        /* \"src/main/java/org/example/sol/contrack01/randomGame.sol\":1475:1535  uint(keccak256(abi.encode(key1))) + key2 + (block.timestamp) */\n      tag_85\n      swap2\n      swap1\n      tag_84\n      jump\t// in\n    tag_85:\n        /* \"src/main/java/org/example/sol/contrack01/randomGame.sol\":1475:1552  uint(keccak256(abi.encode(key1))) + key2 + (block.timestamp) + (block.number) */\n      tag_86\n      swap2\n      swap1\n      tag_84\n      jump\t// in\n    tag_86:\n        /* \"src/main/java/org/example/sol/contrack01/randomGame.sol\":1464:1552  uint num = uint(keccak256(abi.encode(key1))) + key2 + (block.timestamp) + (block.number) */\n      swap1\n      pop\n        /* \"src/main/java/org/example/sol/contrack01/randomGame.sol\":1592:1593  1 */\n      0x01\n        /* \"src/main/java/org/example/sol/contrack01/randomGame.sol\":1587:1589  10 */\n      0x0a\n        /* \"src/main/java/org/example/sol/contrack01/randomGame.sol\":1583:1585  10 */\n      dup1\n        /* \"src/main/java/org/example/sol/contrack01/randomGame.sol\":1579:1582  num */\n      dup4\n        /* \"src/main/java/org/example/sol/contrack01/randomGame.sol\":1579:1585  num/10 */\n      tag_87\n      swap2\n      swap1\n      tag_88\n      jump\t// in\n    tag_87:\n        /* \"src/main/java/org/example/sol/contrack01/randomGame.sol\":1578:1589  (num/10)*10 */\n      tag_89\n      swap2\n      swap1\n      tag_90\n      jump\t// in\n    tag_89:\n        /* \"src/main/java/org/example/sol/contrack01/randomGame.sol\":1571:1574  num */\n      dup3\n        /* \"src/main/java/org/example/sol/contrack01/randomGame.sol\":1571:1590  num - ((num/10)*10) */\n      tag_91\n      swap2\n      swap1\n      tag_92\n      jump\t// in\n    tag_91:\n        /* \"src/main/java/org/example/sol/contrack01/randomGame.sol\":1570:1593  (num - ((num/10)*10))+1 */\n      tag_93\n      swap2\n      swap1\n      tag_84\n      jump\t// in\n    tag_93:\n        /* \"src/main/java/org/example/sol/contrack01/randomGame.sol\":1563:1593  return (num - ((num/10)*10))+1 */\n      swap2\n      pop\n      pop\n        /* \"src/main/java/org/example/sol/contrack01/randomGame.sol\":1402:1601  function randomNumber() private view returns(uint) {\r... */\n      swap1\n      jump\t// out\n        /* \"src/main/java/org/example/sol/contrack01/randomGame.sol\":312:337  uint public playNumber =0 */\n    tag_40:\n      sload(0x06)\n      dup2\n      jump\t// out\n        /* \"src/main/java/org/example/sol/contrack01/randomGame.sol\":285:305  uint public round =1 */\n    tag_44:\n      sload(0x05)\n      dup2\n      jump\t// out\n        /* \"src/main/java/org/example/sol/contrack01/randomGame.sol\":2064:2162  function getbalance() public view returns(uint256) {\r... */\n    tag_48:\n        /* \"src/main/java/org/example/sol/contrack01/randomGame.sol\":2106:2113  uint256 */\n      0x00\n        /* \"src/main/java/org/example/sol/contrack01/randomGame.sol\":2133:2154  address(this).balance */\n      selfbalance\n        /* \"src/main/java/org/example/sol/contrack01/randomGame.sol\":2126:2154  return address(this).balance */\n      swap1\n      pop\n        /* \"src/main/java/org/example/sol/contrack01/randomGame.sol\":2064:2162  function getbalance() public view returns(uint256) {\r... */\n      swap1\n      jump\t// out\n        /* \"src/main/java/org/example/sol/contrack01/randomGame.sol\":1741:1856  function getSecretKey() public view onlyOwner() returns(string memory, uint)  {\r... */\n    tag_52:\n        /* \"src/main/java/org/example/sol/contrack01/randomGame.sol\":1797:1810  string memory */\n      0x60\n        /* \"src/main/java/org/example/sol/contrack01/randomGame.sol\":1812:1816  uint */\n      0x00\n        /* \"src/main/java/org/example/sol/contrack01/randomGame.sol\":515:520  owner */\n      dup1\n      0x00\n      swap1\n      sload\n      swap1\n      0x0100\n      exp\n      swap1\n      div\n      0xffffffffffffffffffffffffffffffffffffffff\n      and\n        /* \"src/main/java/org/example/sol/contrack01/randomGame.sol\":503:520  msg.sender==owner */\n      0xffffffffffffffffffffffffffffffffffffffff\n      and\n        /* \"src/main/java/org/example/sol/contrack01/randomGame.sol\":503:513  msg.sender */\n      caller\n        /* \"src/main/java/org/example/sol/contrack01/randomGame.sol\":503:520  msg.sender==owner */\n      0xffffffffffffffffffffffffffffffffffffffff\n      and\n      eq\n        /* \"src/main/java/org/example/sol/contrack01/randomGame.sol\":495:548  require(msg.sender==owner, \"caller is not the owner\") */\n      tag_96\n      jumpi\n      mload(0x40)\n      0x08c379a000000000000000000000000000000000000000000000000000000000\n      dup2\n      mstore\n      0x04\n      add\n      tag_97\n      swap1\n      tag_98\n      jump\t// in\n    tag_97:\n      mload(0x40)\n      dup1\n      swap2\n      sub\n      swap1\n      revert\n    tag_96:\n        /* \"src/main/java/org/example/sol/contrack01/randomGame.sol\":1837:1841  key1 */\n      0x03\n        /* \"src/main/java/org/example/sol/contrack01/randomGame.sol\":1843:1847  key2 */\n      sload(0x04)\n        /* \"src/main/java/org/example/sol/contrack01/randomGame.sol\":1830:1848  return(key1, key2) */\n      dup2\n      dup1\n      sload\n      tag_100\n      swap1\n      tag_101\n      jump\t// in\n    tag_100:\n      dup1\n      0x1f\n      add\n      0x20\n      dup1\n      swap2\n      div\n      mul\n      0x20\n      add\n      mload(0x40)\n      swap1\n      dup2\n      add\n      0x40\n      mstore\n      dup1\n      swap3\n      swap2\n      swap1\n      dup2\n      dup2\n      mstore\n      0x20\n      add\n      dup3\n      dup1\n      sload\n      tag_102\n      swap1\n      tag_101\n      jump\t// in\n    tag_102:\n      dup1\n      iszero\n      tag_103\n      jumpi\n      dup1\n      0x1f\n      lt\n      tag_104\n      jumpi\n      0x0100\n      dup1\n      dup4\n      sload\n      div\n      mul\n      dup4\n      mstore\n      swap2\n      0x20\n      add\n      swap2\n      jump(tag_103)\n    tag_104:\n      dup3\n      add\n      swap2\n      swap1\n      0x00\n      mstore\n      keccak256(0x00, 0x20)\n      swap1\n    tag_105:\n      dup2\n      sload\n      dup2\n      mstore\n      swap1\n      0x01\n      add\n      swap1\n      0x20\n      add\n      dup1\n      dup4\n      gt\n      tag_105\n      jumpi\n      dup3\n      swap1\n      sub\n      0x1f\n      and\n      dup3\n      add\n      swap2\n    tag_103:\n      pop\n      pop\n      pop\n      pop\n      pop\n      swap2\n      pop\n      swap2\n      pop\n      swap2\n      pop\n        /* \"src/main/java/org/example/sol/contrack01/randomGame.sol\":1741:1856  function getSecretKey() public view onlyOwner() returns(string memory, uint)  {\r... */\n      swap1\n      swap2\n      jump\t// out\n        /* \"src/main/java/org/example/sol/contrack01/randomGame.sol\":101:121  address public owner */\n    tag_57:\n      0x00\n      dup1\n      sload\n      swap1\n      0x0100\n      exp\n      swap1\n      div\n      0xffffffffffffffffffffffffffffffffffffffff\n      and\n      dup2\n      jump\t// out\n        /* \"src/main/java/org/example/sol/contrack01/randomGame.sol\":1975:2056  function getRound() public view returns(uint256)  {\r... */\n    tag_62:\n        /* \"src/main/java/org/example/sol/contrack01/randomGame.sol\":2015:2022  uint256 */\n      0x00\n        /* \"src/main/java/org/example/sol/contrack01/randomGame.sol\":2043:2048  round */\n      sload(0x05)\n        /* \"src/main/java/org/example/sol/contrack01/randomGame.sol\":2036:2048  return round */\n      swap1\n      pop\n        /* \"src/main/java/org/example/sol/contrack01/randomGame.sol\":1975:2056  function getRound() public view returns(uint256)  {\r... */\n      swap1\n      jump\t// out\n        /* \"src/main/java/org/example/sol/contrack01/randomGame.sol\":1862:1967  function getWinnerNumber() public view onlyOwner() returns(uint256){\r... */\n    tag_66:\n        /* \"src/main/java/org/example/sol/contrack01/randomGame.sol\":1921:1928  uint256 */\n      0x00\n        /* \"src/main/java/org/example/sol/contrack01/randomGame.sol\":515:520  owner */\n      dup1\n      0x00\n      swap1\n      sload\n      swap1\n      0x0100\n      exp\n      swap1\n      div\n      0xffffffffffffffffffffffffffffffffffffffff\n      and\n        /* \"src/main/java/org/example/sol/contrack01/randomGame.sol\":503:520  msg.sender==owner */\n      0xffffffffffffffffffffffffffffffffffffffff\n      and\n        /* \"src/main/java/org/example/sol/contrack01/randomGame.sol\":503:513  msg.sender */\n      caller\n        /* \"src/main/java/org/example/sol/contrack01/randomGame.sol\":503:520  msg.sender==owner */\n      0xffffffffffffffffffffffffffffffffffffffff\n      and\n      eq\n        /* \"src/main/java/org/example/sol/contrack01/randomGame.sol\":495:548  require(msg.sender==owner, \"caller is not the owner\") */\n      tag_108\n      jumpi\n      mload(0x40)\n      0x08c379a000000000000000000000000000000000000000000000000000000000\n      dup2\n      mstore\n      0x04\n      add\n      tag_109\n      swap1\n      tag_98\n      jump\t// in\n    tag_109:\n      mload(0x40)\n      dup1\n      swap2\n      sub\n      swap1\n      revert\n    tag_108:\n        /* \"src/main/java/org/example/sol/contrack01/randomGame.sol\":1947:1959  winnerNumber */\n      sload(0x02)\n        /* \"src/main/java/org/example/sol/contrack01/randomGame.sol\":1940:1959  return winnerNumber */\n      swap1\n      pop\n        /* \"src/main/java/org/example/sol/contrack01/randomGame.sol\":1862:1967  function getWinnerNumber() public view onlyOwner() returns(uint256){\r... */\n      swap1\n      jump\t// out\n        /* \"src/main/java/org/example/sol/contrack01/randomGame.sol\":128:193  mapping (uint => mapping(address => bool)) public paidAddressList */\n    tag_72:\n      mstore(0x20, 0x01)\n      dup2\n      0x00\n      mstore\n      mstore(0x20, keccak256(0x00, 0x40))\n      dup1\n      0x00\n      mstore\n      keccak256(0x00, 0x40)\n      0x00\n      swap2\n      pop\n      swap2\n      pop\n      swap1\n      sload\n      swap1\n      0x0100\n      exp\n      swap1\n      div\n      0xff\n      and\n      dup2\n      jump\t// out\n        /* \"src/main/java/org/example/sol/contrack01/randomGame.sol\":1609:1733  function setSecretKe(string memory _key1, uint _key2) public onlyOwner()  {\r... */\n    tag_79:\n        /* \"src/main/java/org/example/sol/contrack01/randomGame.sol\":515:520  owner */\n      0x00\n      dup1\n      sload\n      swap1\n      0x0100\n      exp\n      swap1\n      div\n      0xffffffffffffffffffffffffffffffffffffffff\n      and\n        /* \"src/main/java/org/example/sol/contrack01/randomGame.sol\":503:520  msg.sender==owner */\n      0xffffffffffffffffffffffffffffffffffffffff\n      and\n        /* \"src/main/java/org/example/sol/contrack01/randomGame.sol\":503:513  msg.sender */\n      caller\n        /* \"src/main/java/org/example/sol/contrack01/randomGame.sol\":503:520  msg.sender==owner */\n      0xffffffffffffffffffffffffffffffffffffffff\n      and\n      eq\n        /* \"src/main/java/org/example/sol/contrack01/randomGame.sol\":495:548  require(msg.sender==owner, \"caller is not the owner\") */\n      tag_112\n      jumpi\n      mload(0x40)\n      0x08c379a000000000000000000000000000000000000000000000000000000000\n      dup2\n      mstore\n      0x04\n      add\n      tag_113\n      swap1\n      tag_98\n      jump\t// in\n    tag_113:\n      mload(0x40)\n      dup1\n      swap2\n      sub\n      swap1\n      revert\n    tag_112:\n        /* \"src/main/java/org/example/sol/contrack01/randomGame.sol\":1699:1704  _key1 */\n      dup2\n        /* \"src/main/java/org/example/sol/contrack01/randomGame.sol\":1694:1698  key1 */\n      0x03\n        /* \"src/main/java/org/example/sol/contrack01/randomGame.sol\":1694:1704  key1=_key1 */\n      swap1\n      dup1\n      mload\n      swap1\n      0x20\n      add\n      swap1\n      tag_115\n      swap3\n      swap2\n      swap1\n      tag_116\n      jump\t// in\n    tag_115:\n      pop\n        /* \"src/main/java/org/example/sol/contrack01/randomGame.sol\":1720:1725  _key2 */\n      dup1\n        /* \"src/main/java/org/example/sol/contrack01/randomGame.sol\":1715:1719  key2 */\n      0x04\n        /* \"src/main/java/org/example/sol/contrack01/randomGame.sol\":1715:1725  key2=_key2 */\n      dup2\n      swap1\n      sstore\n      pop\n        /* \"src/main/java/org/example/sol/contrack01/randomGame.sol\":1609:1733  function setSecretKe(string memory _key1, uint _key2) public onlyOwner()  {\r... */\n      pop\n      pop\n      jump\t// out\n    tag_116:\n      dup3\n      dup1\n      sload\n      tag_117\n      swap1\n      tag_101\n      jump\t// in\n    tag_117:\n      swap1\n      0x00\n      mstore\n      keccak256(0x00, 0x20)\n      swap1\n      0x1f\n      add\n      0x20\n      swap1\n      div\n      dup2\n      add\n      swap3\n      dup3\n      tag_119\n      jumpi\n      0x00\n      dup6\n      sstore\n      jump(tag_118)\n    tag_119:\n      dup3\n      0x1f\n      lt\n      tag_120\n      jumpi\n      dup1\n      mload\n      not(0xff)\n      and\n      dup4\n      dup1\n      add\n      or\n      dup6\n      sstore\n      jump(tag_118)\n    tag_120:\n      dup3\n      dup1\n      add\n      0x01\n      add\n      dup6\n      sstore\n      dup3\n      iszero\n      tag_118\n      jumpi\n      swap2\n      dup3\n      add\n    tag_121:\n      dup3\n      dup2\n      gt\n      iszero\n      tag_122\n      jumpi\n      dup3\n      mload\n      dup3\n      sstore\n      swap2\n      0x20\n      add\n      swap2\n      swap1\n      0x01\n      add\n      swap1\n      jump(tag_121)\n    tag_122:\n    tag_118:\n      pop\n      swap1\n      pop\n      tag_123\n      swap2\n      swap1\n      tag_124\n      jump\t// in\n    tag_123:\n      pop\n      swap1\n      jump\t// out\n    tag_124:\n    tag_125:\n      dup1\n      dup3\n      gt\n      iszero\n      tag_126\n      jumpi\n      0x00\n      dup2\n      0x00\n      swap1\n      sstore\n      pop\n      0x01\n      add\n      jump(tag_125)\n    tag_126:\n      pop\n      swap1\n      jump\t// out\n        /* \"#utility.yul\":7:419   */\n    tag_128:\n        /* \"#utility.yul\":85:90   */\n      0x00\n        /* \"#utility.yul\":110:176   */\n      tag_130\n        /* \"#utility.yul\":126:175   */\n      tag_131\n        /* \"#utility.yul\":168:174   */\n      dup5\n        /* \"#utility.yul\":126:175   */\n      tag_132\n      jump\t// in\n    tag_131:\n        /* \"#utility.yul\":110:176   */\n      tag_133\n      jump\t// in\n    tag_130:\n        /* \"#utility.yul\":101:176   */\n      swap1\n      pop\n        /* \"#utility.yul\":199:205   */\n      dup3\n        /* \"#utility.yul\":192:197   */\n      dup2\n        /* \"#utility.yul\":185:206   */\n      mstore\n        /* \"#utility.yul\":237:241   */\n      0x20\n        /* \"#utility.yul\":230:235   */\n      dup2\n        /* \"#utility.yul\":226:242   */\n      add\n        /* \"#utility.yul\":275:278   */\n      dup5\n        /* \"#utility.yul\":266:272   */\n      dup5\n        /* \"#utility.yul\":261:264   */\n      dup5\n        /* \"#utility.yul\":257:273   */\n      add\n        /* \"#utility.yul\":254:279   */\n      gt\n        /* \"#utility.yul\":251:363   */\n      iszero\n      tag_134\n      jumpi\n        /* \"#utility.yul\":282:361   */\n      tag_135\n      tag_136\n      jump\t// in\n    tag_135:\n        /* \"#utility.yul\":251:363   */\n    tag_134:\n        /* \"#utility.yul\":372:413   */\n      tag_137\n        /* \"#utility.yul\":406:412   */\n      dup5\n        /* \"#utility.yul\":401:404   */\n      dup3\n        /* \"#utility.yul\":396:399   */\n      dup6\n        /* \"#utility.yul\":372:413   */\n      tag_138\n      jump\t// in\n    tag_137:\n        /* \"#utility.yul\":91:419   */\n      pop\n        /* \"#utility.yul\":7:419   */\n      swap4\n      swap3\n      pop\n      pop\n      pop\n      jump\t// out\n        /* \"#utility.yul\":425:564   */\n    tag_139:\n        /* \"#utility.yul\":471:476   */\n      0x00\n        /* \"#utility.yul\":509:515   */\n      dup2\n        /* \"#utility.yul\":496:516   */\n      calldataload\n        /* \"#utility.yul\":487:516   */\n      swap1\n      pop\n        /* \"#utility.yul\":525:558   */\n      tag_141\n        /* \"#utility.yul\":552:557   */\n      dup2\n        /* \"#utility.yul\":525:558   */\n      tag_142\n      jump\t// in\n    tag_141:\n        /* \"#utility.yul\":425:564   */\n      swap3\n      swap2\n      pop\n      pop\n      jump\t// out\n        /* \"#utility.yul\":584:924   */\n    tag_143:\n        /* \"#utility.yul\":640:645   */\n      0x00\n        /* \"#utility.yul\":689:692   */\n      dup3\n        /* \"#utility.yul\":682:686   */\n      0x1f\n        /* \"#utility.yul\":674:680   */\n      dup4\n        /* \"#utility.yul\":670:687   */\n      add\n        /* \"#utility.yul\":666:693   */\n      slt\n        /* \"#utility.yul\":656:778   */\n      tag_145\n      jumpi\n        /* \"#utility.yul\":697:776   */\n      tag_146\n      tag_147\n      jump\t// in\n    tag_146:\n        /* \"#utility.yul\":656:778   */\n    tag_145:\n        /* \"#utility.yul\":814:820   */\n      dup2\n        /* \"#utility.yul\":801:821   */\n      calldataload\n        /* \"#utility.yul\":839:918   */\n      tag_148\n        /* \"#utility.yul\":914:917   */\n      dup5\n        /* \"#utility.yul\":906:912   */\n      dup3\n        /* \"#utility.yul\":899:903   */\n      0x20\n        /* \"#utility.yul\":891:897   */\n      dup7\n        /* \"#utility.yul\":887:904   */\n      add\n        /* \"#utility.yul\":839:918   */\n      tag_128\n      jump\t// in\n    tag_148:\n        /* \"#utility.yul\":830:918   */\n      swap2\n      pop\n        /* \"#utility.yul\":646:924   */\n      pop\n        /* \"#utility.yul\":584:924   */\n      swap3\n      swap2\n      pop\n      pop\n      jump\t// out\n        /* \"#utility.yul\":930:1069   */\n    tag_149:\n        /* \"#utility.yul\":976:981   */\n      0x00\n        /* \"#utility.yul\":1014:1020   */\n      dup2\n        /* \"#utility.yul\":1001:1021   */\n      calldataload\n        /* \"#utility.yul\":992:1021   */\n      swap1\n      pop\n        /* \"#utility.yul\":1030:1063   */\n      tag_151\n        /* \"#utility.yul\":1057:1062   */\n      dup2\n        /* \"#utility.yul\":1030:1063   */\n      tag_152\n      jump\t// in\n    tag_151:\n        /* \"#utility.yul\":930:1069   */\n      swap3\n      swap2\n      pop\n      pop\n      jump\t// out\n        /* \"#utility.yul\":1075:1729   */\n    tag_78:\n        /* \"#utility.yul\":1153:1159   */\n      0x00\n        /* \"#utility.yul\":1161:1167   */\n      dup1\n        /* \"#utility.yul\":1210:1212   */\n      0x40\n        /* \"#utility.yul\":1198:1207   */\n      dup4\n        /* \"#utility.yul\":1189:1196   */\n      dup6\n        /* \"#utility.yul\":1185:1208   */\n      sub\n        /* \"#utility.yul\":1181:1213   */\n      slt\n        /* \"#utility.yul\":1178:1297   */\n      iszero\n      tag_154\n      jumpi\n        /* \"#utility.yul\":1216:1295   */\n      tag_155\n      tag_156\n      jump\t// in\n    tag_155:\n        /* \"#utility.yul\":1178:1297   */\n    tag_154:\n        /* \"#utility.yul\":1364:1365   */\n      0x00\n        /* \"#utility.yul\":1353:1362   */\n      dup4\n        /* \"#utility.yul\":1349:1366   */\n      add\n        /* \"#utility.yul\":1336:1367   */\n      calldataload\n        /* \"#utility.yul\":1394:1412   */\n      0xffffffffffffffff\n        /* \"#utility.yul\":1386:1392   */\n      dup2\n        /* \"#utility.yul\":1383:1413   */\n      gt\n        /* \"#utility.yul\":1380:1497   */\n      iszero\n      tag_157\n      jumpi\n        /* \"#utility.yul\":1416:1495   */\n      tag_158\n      tag_159\n      jump\t// in\n    tag_158:\n        /* \"#utility.yul\":1380:1497   */\n    tag_157:\n        /* \"#utility.yul\":1521:1584   */\n      tag_160\n        /* \"#utility.yul\":1576:1583   */\n      dup6\n        /* \"#utility.yul\":1567:1573   */\n      dup3\n        /* \"#utility.yul\":1556:1565   */\n      dup7\n        /* \"#utility.yul\":1552:1574   */\n      add\n        /* \"#utility.yul\":1521:1584   */\n      tag_143\n      jump\t// in\n    tag_160:\n        /* \"#utility.yul\":1511:1584   */\n      swap3\n      pop\n        /* \"#utility.yul\":1307:1594   */\n      pop\n        /* \"#utility.yul\":1633:1635   */\n      0x20\n        /* \"#utility.yul\":1659:1712   */\n      tag_161\n        /* \"#utility.yul\":1704:1711   */\n      dup6\n        /* \"#utility.yul\":1695:1701   */\n      dup3\n        /* \"#utility.yul\":1684:1693   */\n      dup7\n        /* \"#utility.yul\":1680:1702   */\n      add\n        /* \"#utility.yul\":1659:1712   */\n      tag_149\n      jump\t// in\n    tag_161:\n        /* \"#utility.yul\":1649:1712   */\n      swap2\n      pop\n        /* \"#utility.yul\":1604:1722   */\n      pop\n        /* \"#utility.yul\":1075:1729   */\n      swap3\n      pop\n      swap3\n      swap1\n      pop\n      jump\t// out\n        /* \"#utility.yul\":1735:2209   */\n    tag_71:\n        /* \"#utility.yul\":1803:1809   */\n      0x00\n        /* \"#utility.yul\":1811:1817   */\n      dup1\n        /* \"#utility.yul\":1860:1862   */\n      0x40\n        /* \"#utility.yul\":1848:1857   */\n      dup4\n        /* \"#utility.yul\":1839:1846   */\n      dup6\n        /* \"#utility.yul\":1835:1858   */\n      sub\n        /* \"#utility.yul\":1831:1863   */\n      slt\n        /* \"#utility.yul\":1828:1947   */\n      iszero\n      tag_163\n      jumpi\n        /* \"#utility.yul\":1866:1945   */\n      tag_164\n      tag_156\n      jump\t// in\n    tag_164:\n        /* \"#utility.yul\":1828:1947   */\n    tag_163:\n        /* \"#utility.yul\":1986:1987   */\n      0x00\n        /* \"#utility.yul\":2011:2064   */\n      tag_165\n        /* \"#utility.yul\":2056:2063   */\n      dup6\n        /* \"#utility.yul\":2047:2053   */\n      dup3\n        /* \"#utility.yul\":2036:2045   */\n      dup7\n        /* \"#utility.yul\":2032:2054   */\n      add\n        /* \"#utility.yul\":2011:2064   */\n      tag_149\n      jump\t// in\n    tag_165:\n        /* \"#utility.yul\":2001:2064   */\n      swap3\n      pop\n        /* \"#utility.yul\":1957:2074   */\n      pop\n        /* \"#utility.yul\":2113:2115   */\n      0x20\n        /* \"#utility.yul\":2139:2192   */\n      tag_166\n        /* \"#utility.yul\":2184:2191   */\n      dup6\n        /* \"#utility.yul\":2175:2181   */\n      dup3\n        /* \"#utility.yul\":2164:2173   */\n      dup7\n        /* \"#utility.yul\":2160:2182   */\n      add\n        /* \"#utility.yul\":2139:2192   */\n      tag_139\n      jump\t// in\n    tag_166:\n        /* \"#utility.yul\":2129:2192   */\n      swap2\n      pop\n        /* \"#utility.yul\":2084:2202   */\n      pop\n        /* \"#utility.yul\":1735:2209   */\n      swap3\n      pop\n      swap3\n      swap1\n      pop\n      jump\t// out\n        /* \"#utility.yul\":2215:2333   */\n    tag_167:\n        /* \"#utility.yul\":2302:2326   */\n      tag_169\n        /* \"#utility.yul\":2320:2325   */\n      dup2\n        /* \"#utility.yul\":2302:2326   */\n      tag_170\n      jump\t// in\n    tag_169:\n        /* \"#utility.yul\":2297:2300   */\n      dup3\n        /* \"#utility.yul\":2290:2327   */\n      mstore\n        /* \"#utility.yul\":2215:2333   */\n      pop\n      pop\n      jump\t// out\n        /* \"#utility.yul\":2339:2448   */\n    tag_171:\n        /* \"#utility.yul\":2420:2441   */\n      tag_173\n        /* \"#utility.yul\":2435:2440   */\n      dup2\n        /* \"#utility.yul\":2420:2441   */\n      tag_174\n      jump\t// in\n    tag_173:\n        /* \"#utility.yul\":2415:2418   */\n      dup3\n        /* \"#utility.yul\":2408:2442   */\n      mstore\n        /* \"#utility.yul\":2339:2448   */\n      pop\n      pop\n      jump\t// out\n        /* \"#utility.yul\":2454:2818   */\n    tag_175:\n        /* \"#utility.yul\":2542:2545   */\n      0x00\n        /* \"#utility.yul\":2570:2609   */\n      tag_177\n        /* \"#utility.yul\":2603:2608   */\n      dup3\n        /* \"#utility.yul\":2570:2609   */\n      tag_178\n      jump\t// in\n    tag_177:\n        /* \"#utility.yul\":2625:2696   */\n      tag_179\n        /* \"#utility.yul\":2689:2695   */\n      dup2\n        /* \"#utility.yul\":2684:2687   */\n      dup6\n        /* \"#utility.yul\":2625:2696   */\n      tag_180\n      jump\t// in\n    tag_179:\n        /* \"#utility.yul\":2618:2696   */\n      swap4\n      pop\n        /* \"#utility.yul\":2705:2757   */\n      tag_181\n        /* \"#utility.yul\":2750:2756   */\n      dup2\n        /* \"#utility.yul\":2745:2748   */\n      dup6\n        /* \"#utility.yul\":2738:2742   */\n      0x20\n        /* \"#utility.yul\":2731:2736   */\n      dup7\n        /* \"#utility.yul\":2727:2743   */\n      add\n        /* \"#utility.yul\":2705:2757   */\n      tag_182\n      jump\t// in\n    tag_181:\n        /* \"#utility.yul\":2782:2811   */\n      tag_183\n        /* \"#utility.yul\":2804:2810   */\n      dup2\n        /* \"#utility.yul\":2782:2811   */\n      tag_184\n      jump\t// in\n    tag_183:\n        /* \"#utility.yul\":2777:2780   */\n      dup5\n        /* \"#utility.yul\":2773:2812   */\n      add\n        /* \"#utility.yul\":2766:2812   */\n      swap2\n      pop\n        /* \"#utility.yul\":2546:2818   */\n      pop\n        /* \"#utility.yul\":2454:2818   */\n      swap3\n      swap2\n      pop\n      pop\n      jump\t// out\n        /* \"#utility.yul\":2848:3650   */\n    tag_185:\n        /* \"#utility.yul\":2933:2936   */\n      0x00\n        /* \"#utility.yul\":2970:2975   */\n      dup2\n        /* \"#utility.yul\":2964:2976   */\n      sload\n        /* \"#utility.yul\":2999:3035   */\n      tag_187\n        /* \"#utility.yul\":3025:3034   */\n      dup2\n        /* \"#utility.yul\":2999:3035   */\n      tag_101\n      jump\t// in\n    tag_187:\n        /* \"#utility.yul\":3051:3122   */\n      tag_188\n        /* \"#utility.yul\":3115:3121   */\n      dup2\n        /* \"#utility.yul\":3110:3113   */\n      dup7\n        /* \"#utility.yul\":3051:3122   */\n      tag_180\n      jump\t// in\n    tag_188:\n        /* \"#utility.yul\":3044:3122   */\n      swap5\n      pop\n        /* \"#utility.yul\":3153:3154   */\n      0x01\n        /* \"#utility.yul\":3142:3151   */\n      dup3\n        /* \"#utility.yul\":3138:3155   */\n      and\n        /* \"#utility.yul\":3169:3170   */\n      0x00\n        /* \"#utility.yul\":3164:3299   */\n      dup2\n      eq\n      tag_190\n      jumpi\n        /* \"#utility.yul\":3313:3314   */\n      0x01\n        /* \"#utility.yul\":3308:3644   */\n      dup2\n      eq\n      tag_191\n      jumpi\n        /* \"#utility.yul\":3131:3644   */\n      jump(tag_189)\n        /* \"#utility.yul\":3164:3299   */\n    tag_190:\n        /* \"#utility.yul\":3248:3252   */\n      0xff\n        /* \"#utility.yul\":3244:3253   */\n      not\n        /* \"#utility.yul\":3233:3242   */\n      dup4\n        /* \"#utility.yul\":3229:3254   */\n      and\n        /* \"#utility.yul\":3224:3227   */\n      dup7\n        /* \"#utility.yul\":3217:3255   */\n      mstore\n        /* \"#utility.yul\":3284:3288   */\n      0x20\n        /* \"#utility.yul\":3279:3282   */\n      dup7\n        /* \"#utility.yul\":3275:3289   */\n      add\n        /* \"#utility.yul\":3268:3289   */\n      swap4\n      pop\n        /* \"#utility.yul\":3164:3299   */\n      jump(tag_189)\n        /* \"#utility.yul\":3308:3644   */\n    tag_191:\n        /* \"#utility.yul\":3375:3413   */\n      tag_192\n        /* \"#utility.yul\":3407:3412   */\n      dup6\n        /* \"#utility.yul\":3375:3413   */\n      tag_193\n      jump\t// in\n    tag_192:\n        /* \"#utility.yul\":3435:3436   */\n      0x00\n        /* \"#utility.yul\":3449:3603   */\n    tag_194:\n        /* \"#utility.yul\":3463:3469   */\n      dup4\n        /* \"#utility.yul\":3460:3461   */\n      dup2\n        /* \"#utility.yul\":3457:3470   */\n      lt\n        /* \"#utility.yul\":3449:3603   */\n      iszero\n      tag_196\n      jumpi\n        /* \"#utility.yul\":3537:3544   */\n      dup2\n        /* \"#utility.yul\":3531:3545   */\n      sload\n        /* \"#utility.yul\":3527:3528   */\n      dup2\n        /* \"#utility.yul\":3522:3525   */\n      dup10\n        /* \"#utility.yul\":3518:3529   */\n      add\n        /* \"#utility.yul\":3511:3546   */\n      mstore\n        /* \"#utility.yul\":3587:3588   */\n      0x01\n        /* \"#utility.yul\":3578:3585   */\n      dup3\n        /* \"#utility.yul\":3574:3589   */\n      add\n        /* \"#utility.yul\":3563:3589   */\n      swap2\n      pop\n        /* \"#utility.yul\":3485:3489   */\n      0x20\n        /* \"#utility.yul\":3482:3483   */\n      dup2\n        /* \"#utility.yul\":3478:3490   */\n      add\n        /* \"#utility.yul\":3473:3490   */\n      swap1\n      pop\n        /* \"#utility.yul\":3449:3603   */\n      jump(tag_194)\n    tag_196:\n        /* \"#utility.yul\":3632:3633   */\n      dup1\n        /* \"#utility.yul\":3627:3630   */\n      dup9\n        /* \"#utility.yul\":3623:3634   */\n      add\n        /* \"#utility.yul\":3616:3634   */\n      swap6\n      pop\n        /* \"#utility.yul\":3315:3644   */\n      pop\n      pop\n        /* \"#utility.yul\":3131:3644   */\n    tag_189:\n      pop\n        /* \"#utility.yul\":2937:3650   */\n      pop\n      pop\n        /* \"#utility.yul\":2848:3650   */\n      swap3\n      swap2\n      pop\n      pop\n      jump\t// out\n        /* \"#utility.yul\":3656:4021   */\n    tag_197:\n        /* \"#utility.yul\":3798:3801   */\n      0x00\n        /* \"#utility.yul\":3819:3885   */\n      tag_199\n        /* \"#utility.yul\":3883:3884   */\n      0x06\n        /* \"#utility.yul\":3878:3881   */\n      dup4\n        /* \"#utility.yul\":3819:3885   */\n      tag_180\n      jump\t// in\n    tag_199:\n        /* \"#utility.yul\":3812:3885   */\n      swap2\n      pop\n        /* \"#utility.yul\":3894:3987   */\n      tag_200\n        /* \"#utility.yul\":3983:3986   */\n      dup3\n        /* \"#utility.yul\":3894:3987   */\n      tag_201\n      jump\t// in\n    tag_200:\n        /* \"#utility.yul\":4012:4014   */\n      0x20\n        /* \"#utility.yul\":4007:4010   */\n      dup3\n        /* \"#utility.yul\":4003:4015   */\n      add\n        /* \"#utility.yul\":3996:4015   */\n      swap1\n      pop\n        /* \"#utility.yul\":3656:4021   */\n      swap2\n      swap1\n      pop\n      jump\t// out\n        /* \"#utility.yul\":4027:4393   */\n    tag_202:\n        /* \"#utility.yul\":4169:4172   */\n      0x00\n        /* \"#utility.yul\":4190:4257   */\n      tag_204\n        /* \"#utility.yul\":4254:4256   */\n      0x17\n        /* \"#utility.yul\":4249:4252   */\n      dup4\n        /* \"#utility.yul\":4190:4257   */\n      tag_180\n      jump\t// in\n    tag_204:\n        /* \"#utility.yul\":4183:4257   */\n      swap2\n      pop\n        /* \"#utility.yul\":4266:4359   */\n      tag_205\n        /* \"#utility.yul\":4355:4358   */\n      dup3\n        /* \"#utility.yul\":4266:4359   */\n      tag_206\n      jump\t// in\n    tag_205:\n        /* \"#utility.yul\":4384:4386   */\n      0x20\n        /* \"#utility.yul\":4379:4382   */\n      dup3\n        /* \"#utility.yul\":4375:4387   */\n      add\n        /* \"#utility.yul\":4368:4387   */\n      swap1\n      pop\n        /* \"#utility.yul\":4027:4393   */\n      swap2\n      swap1\n      pop\n      jump\t// out\n        /* \"#utility.yul\":4399:4765   */\n    tag_207:\n        /* \"#utility.yul\":4541:4544   */\n      0x00\n        /* \"#utility.yul\":4562:4629   */\n      tag_209\n        /* \"#utility.yul\":4626:4628   */\n      0x14\n        /* \"#utility.yul\":4621:4624   */\n      dup4\n        /* \"#utility.yul\":4562:4629   */\n      tag_180\n      jump\t// in\n    tag_209:\n        /* \"#utility.yul\":4555:4629   */\n      swap2\n      pop\n        /* \"#utility.yul\":4638:4731   */\n      tag_210\n        /* \"#utility.yul\":4727:4730   */\n      dup3\n        /* \"#utility.yul\":4638:4731   */\n      tag_211\n      jump\t// in\n    tag_210:\n        /* \"#utility.yul\":4756:4758   */\n      0x20\n        /* \"#utility.yul\":4751:4754   */\n      dup3\n        /* \"#utility.yul\":4747:4759   */\n      add\n        /* \"#utility.yul\":4740:4759   */\n      swap1\n      pop\n        /* \"#utility.yul\":4399:4765   */\n      swap2\n      swap1\n      pop\n      jump\t// out\n        /* \"#utility.yul\":4771:5169   */\n    tag_212:\n        /* \"#utility.yul\":4930:4933   */\n      0x00\n        /* \"#utility.yul\":4951:5034   */\n      tag_214\n        /* \"#utility.yul\":5032:5033   */\n      0x00\n        /* \"#utility.yul\":5027:5030   */\n      dup4\n        /* \"#utility.yul\":4951:5034   */\n      tag_215\n      jump\t// in\n    tag_214:\n        /* \"#utility.yul\":4944:5034   */\n      swap2\n      pop\n        /* \"#utility.yul\":5043:5136   */\n      tag_216\n        /* \"#utility.yul\":5132:5135   */\n      dup3\n        /* \"#utility.yul\":5043:5136   */\n      tag_217\n      jump\t// in\n    tag_216:\n        /* \"#utility.yul\":5161:5162   */\n      0x00\n        /* \"#utility.yul\":5156:5159   */\n      dup3\n        /* \"#utility.yul\":5152:5163   */\n      add\n        /* \"#utility.yul\":5145:5163   */\n      swap1\n      pop\n        /* \"#utility.yul\":4771:5169   */\n      swap2\n      swap1\n      pop\n      jump\t// out\n        /* \"#utility.yul\":5175:5541   */\n    tag_218:\n        /* \"#utility.yul\":5317:5320   */\n      0x00\n        /* \"#utility.yul\":5338:5405   */\n      tag_220\n        /* \"#utility.yul\":5402:5404   */\n      0x17\n        /* \"#utility.yul\":5397:5400   */\n      dup4\n        /* \"#utility.yul\":5338:5405   */\n      tag_180\n      jump\t// in\n    tag_220:\n        /* \"#utility.yul\":5331:5405   */\n      swap2\n      pop\n        /* \"#utility.yul\":5414:5507   */\n      tag_221\n        /* \"#utility.yul\":5503:5506   */\n      dup3\n        /* \"#utility.yul\":5414:5507   */\n      tag_222\n      jump\t// in\n    tag_221:\n        /* \"#utility.yul\":5532:5534   */\n      0x20\n        /* \"#utility.yul\":5527:5530   */\n      dup3\n        /* \"#utility.yul\":5523:5535   */\n      add\n        /* \"#utility.yul\":5516:5535   */\n      swap1\n      pop\n        /* \"#utility.yul\":5175:5541   */\n      swap2\n      swap1\n      pop\n      jump\t// out\n        /* \"#utility.yul\":5547:5665   */\n    tag_223:\n        /* \"#utility.yul\":5634:5658   */\n      tag_225\n        /* \"#utility.yul\":5652:5657   */\n      dup2\n        /* \"#utility.yul\":5634:5658   */\n      tag_226\n      jump\t// in\n    tag_225:\n        /* \"#utility.yul\":5629:5632   */\n      dup3\n        /* \"#utility.yul\":5622:5659   */\n      mstore\n        /* \"#utility.yul\":5547:5665   */\n      pop\n      pop\n      jump\t// out\n        /* \"#utility.yul\":5671:6050   */\n    tag_25:\n        /* \"#utility.yul\":5855:5858   */\n      0x00\n        /* \"#utility.yul\":5877:6024   */\n      tag_228\n        /* \"#utility.yul\":6020:6023   */\n      dup3\n        /* \"#utility.yul\":5877:6024   */\n      tag_212\n      jump\t// in\n    tag_228:\n        /* \"#utility.yul\":5870:6024   */\n      swap2\n      pop\n        /* \"#utility.yul\":6041:6044   */\n      dup2\n        /* \"#utility.yul\":6034:6044   */\n      swap1\n      pop\n        /* \"#utility.yul\":5671:6050   */\n      swap2\n      swap1\n      pop\n      jump\t// out\n        /* \"#utility.yul\":6056:6278   */\n    tag_59:\n        /* \"#utility.yul\":6149:6153   */\n      0x00\n        /* \"#utility.yul\":6187:6189   */\n      0x20\n        /* \"#utility.yul\":6176:6185   */\n      dup3\n        /* \"#utility.yul\":6172:6190   */\n      add\n        /* \"#utility.yul\":6164:6190   */\n      swap1\n      pop\n        /* \"#utility.yul\":6200:6271   */\n      tag_230\n        /* \"#utility.yul\":6268:6269   */\n      0x00\n        /* \"#utility.yul\":6257:6266   */\n      dup4\n        /* \"#utility.yul\":6253:6270   */\n      add\n        /* \"#utility.yul\":6244:6250   */\n      dup5\n        /* \"#utility.yul\":6200:6271   */\n      tag_167\n      jump\t// in\n    tag_230:\n        /* \"#utility.yul\":6056:6278   */\n      swap3\n      swap2\n      pop\n      pop\n      jump\t// out\n        /* \"#utility.yul\":6284:6494   */\n    tag_74:\n        /* \"#utility.yul\":6371:6375   */\n      0x00\n        /* \"#utility.yul\":6409:6411   */\n      0x20\n        /* \"#utility.yul\":6398:6407   */\n      dup3\n        /* \"#utility.yul\":6394:6412   */\n      add\n        /* \"#utility.yul\":6386:6412   */\n      swap1\n      pop\n        /* \"#utility.yul\":6422:6487   */\n      tag_232\n        /* \"#utility.yul\":6484:6485   */\n      0x00\n        /* \"#utility.yul\":6473:6482   */\n      dup4\n        /* \"#utility.yul\":6469:6486   */\n      add\n        /* \"#utility.yul\":6460:6466   */\n      dup5\n        /* \"#utility.yul\":6422:6487   */\n      tag_171\n      jump\t// in\n    tag_232:\n        /* \"#utility.yul\":6284:6494   */\n      swap3\n      swap2\n      pop\n      pop\n      jump\t// out\n        /* \"#utility.yul\":6500:6923   */\n    tag_54:\n        /* \"#utility.yul\":6641:6645   */\n      0x00\n        /* \"#utility.yul\":6679:6681   */\n      0x40\n        /* \"#utility.yul\":6668:6677   */\n      dup3\n        /* \"#utility.yul\":6664:6682   */\n      add\n        /* \"#utility.yul\":6656:6682   */\n      swap1\n      pop\n        /* \"#utility.yul\":6728:6737   */\n      dup2\n        /* \"#utility.yul\":6722:6726   */\n      dup2\n        /* \"#utility.yul\":6718:6738   */\n      sub\n        /* \"#utility.yul\":6714:6715   */\n      0x00\n        /* \"#utility.yul\":6703:6712   */\n      dup4\n        /* \"#utility.yul\":6699:6716   */\n      add\n        /* \"#utility.yul\":6692:6739   */\n      mstore\n        /* \"#utility.yul\":6756:6834   */\n      tag_234\n        /* \"#utility.yul\":6829:6833   */\n      dup2\n        /* \"#utility.yul\":6820:6826   */\n      dup6\n        /* \"#utility.yul\":6756:6834   */\n      tag_175\n      jump\t// in\n    tag_234:\n        /* \"#utility.yul\":6748:6834   */\n      swap1\n      pop\n        /* \"#utility.yul\":6844:6916   */\n      tag_235\n        /* \"#utility.yul\":6912:6914   */\n      0x20\n        /* \"#utility.yul\":6901:6910   */\n      dup4\n        /* \"#utility.yul\":6897:6915   */\n      add\n        /* \"#utility.yul\":6888:6894   */\n      dup5\n        /* \"#utility.yul\":6844:6916   */\n      tag_223\n      jump\t// in\n    tag_235:\n        /* \"#utility.yul\":6500:6923   */\n      swap4\n      swap3\n      pop\n      pop\n      pop\n      jump\t// out\n        /* \"#utility.yul\":6929:7236   */\n    tag_82:\n        /* \"#utility.yul\":7039:7043   */\n      0x00\n        /* \"#utility.yul\":7077:7079   */\n      0x20\n        /* \"#utility.yul\":7066:7075   */\n      dup3\n        /* \"#utility.yul\":7062:7080   */\n      add\n        /* \"#utility.yul\":7054:7080   */\n      swap1\n      pop\n        /* \"#utility.yul\":7126:7135   */\n      dup2\n        /* \"#utility.yul\":7120:7124   */\n      dup2\n        /* \"#utility.yul\":7116:7136   */\n      sub\n        /* \"#utility.yul\":7112:7113   */\n      0x00\n        /* \"#utility.yul\":7101:7110   */\n      dup4\n        /* \"#utility.yul\":7097:7114   */\n      add\n        /* \"#utility.yul\":7090:7137   */\n      mstore\n        /* \"#utility.yul\":7154:7229   */\n      tag_237\n        /* \"#utility.yul\":7224:7228   */\n      dup2\n        /* \"#utility.yul\":7215:7221   */\n      dup5\n        /* \"#utility.yul\":7154:7229   */\n      tag_185\n      jump\t// in\n    tag_237:\n        /* \"#utility.yul\":7146:7229   */\n      swap1\n      pop\n        /* \"#utility.yul\":6929:7236   */\n      swap3\n      swap2\n      pop\n      pop\n      jump\t// out\n        /* \"#utility.yul\":7242:7661   */\n    tag_31:\n        /* \"#utility.yul\":7408:7412   */\n      0x00\n        /* \"#utility.yul\":7446:7448   */\n      0x20\n        /* \"#utility.yul\":7435:7444   */\n      dup3\n        /* \"#utility.yul\":7431:7449   */\n      add\n        /* \"#utility.yul\":7423:7449   */\n      swap1\n      pop\n        /* \"#utility.yul\":7495:7504   */\n      dup2\n        /* \"#utility.yul\":7489:7493   */\n      dup2\n        /* \"#utility.yul\":7485:7505   */\n      sub\n        /* \"#utility.yul\":7481:7482   */\n      0x00\n        /* \"#utility.yul\":7470:7479   */\n      dup4\n        /* \"#utility.yul\":7466:7483   */\n      add\n        /* \"#utility.yul\":7459:7506   */\n      mstore\n        /* \"#utility.yul\":7523:7654   */\n      tag_239\n        /* \"#utility.yul\":7649:7653   */\n      dup2\n        /* \"#utility.yul\":7523:7654   */\n      tag_197\n      jump\t// in\n    tag_239:\n        /* \"#utility.yul\":7515:7654   */\n      swap1\n      pop\n        /* \"#utility.yul\":7242:7661   */\n      swap2\n      swap1\n      pop\n      jump\t// out\n        /* \"#utility.yul\":7667:8086   */\n    tag_98:\n        /* \"#utility.yul\":7833:7837   */\n      0x00\n        /* \"#utility.yul\":7871:7873   */\n      0x20\n        /* \"#utility.yul\":7860:7869   */\n      dup3\n        /* \"#utility.yul\":7856:7874   */\n      add\n        /* \"#utility.yul\":7848:7874   */\n      swap1\n      pop\n        /* \"#utility.yul\":7920:7929   */\n      dup2\n        /* \"#utility.yul\":7914:7918   */\n      dup2\n        /* \"#utility.yul\":7910:7930   */\n      sub\n        /* \"#utility.yul\":7906:7907   */\n      0x00\n        /* \"#utility.yul\":7895:7904   */\n      dup4\n        /* \"#utility.yul\":7891:7908   */\n      add\n        /* \"#utility.yul\":7884:7931   */\n      mstore\n        /* \"#utility.yul\":7948:8079   */\n      tag_241\n        /* \"#utility.yul\":8074:8078   */\n      dup2\n        /* \"#utility.yul\":7948:8079   */\n      tag_202\n      jump\t// in\n    tag_241:\n        /* \"#utility.yul\":7940:8079   */\n      swap1\n      pop\n        /* \"#utility.yul\":7667:8086   */\n      swap2\n      swap1\n      pop\n      jump\t// out\n        /* \"#utility.yul\":8092:8511   */\n    tag_17:\n        /* \"#utility.yul\":8258:8262   */\n      0x00\n        /* \"#utility.yul\":8296:8298   */\n      0x20\n        /* \"#utility.yul\":8285:8294   */\n      dup3\n        /* \"#utility.yul\":8281:8299   */\n      add\n        /* \"#utility.yul\":8273:8299   */\n      swap1\n      pop\n        /* \"#utility.yul\":8345:8354   */\n      dup2\n        /* \"#utility.yul\":8339:8343   */\n      dup2\n        /* \"#utility.yul\":8335:8355   */\n      sub\n        /* \"#utility.yul\":8331:8332   */\n      0x00\n        /* \"#utility.yul\":8320:8329   */\n      dup4\n        /* \"#utility.yul\":8316:8333   */\n      add\n        /* \"#utility.yul\":8309:8356   */\n      mstore\n        /* \"#utility.yul\":8373:8504   */\n      tag_243\n        /* \"#utility.yul\":8499:8503   */\n      dup2\n        /* \"#utility.yul\":8373:8504   */\n      tag_207\n      jump\t// in\n    tag_243:\n        /* \"#utility.yul\":8365:8504   */\n      swap1\n      pop\n        /* \"#utility.yul\":8092:8511   */\n      swap2\n      swap1\n      pop\n      jump\t// out\n        /* \"#utility.yul\":8517:8936   */\n    tag_20:\n        /* \"#utility.yul\":8683:8687   */\n      0x00\n        /* \"#utility.yul\":8721:8723   */\n      0x20\n        /* \"#utility.yul\":8710:8719   */\n      dup3\n        /* \"#utility.yul\":8706:8724   */\n      add\n        /* \"#utility.yul\":8698:8724   */\n      swap1\n      pop\n        /* \"#utility.yul\":8770:8779   */\n      dup2\n        /* \"#utility.yul\":8764:8768   */\n      dup2\n        /* \"#utility.yul\":8760:8780   */\n      sub\n        /* \"#utility.yul\":8756:8757   */\n      0x00\n        /* \"#utility.yul\":8745:8754   */\n      dup4\n        /* \"#utility.yul\":8741:8758   */\n      add\n        /* \"#utility.yul\":8734:8781   */\n      mstore\n        /* \"#utility.yul\":8798:8929   */\n      tag_245\n        /* \"#utility.yul\":8924:8928   */\n      dup2\n        /* \"#utility.yul\":8798:8929   */\n      tag_218\n      jump\t// in\n    tag_245:\n        /* \"#utility.yul\":8790:8929   */\n      swap1\n      pop\n        /* \"#utility.yul\":8517:8936   */\n      swap2\n      swap1\n      pop\n      jump\t// out\n        /* \"#utility.yul\":8942:9164   */\n    tag_37:\n        /* \"#utility.yul\":9035:9039   */\n      0x00\n        /* \"#utility.yul\":9073:9075   */\n      0x20\n        /* \"#utility.yul\":9062:9071   */\n      dup3\n        /* \"#utility.yul\":9058:9076   */\n      add\n        /* \"#utility.yul\":9050:9076   */\n      swap1\n      pop\n        /* \"#utility.yul\":9086:9157   */\n      tag_247\n        /* \"#utility.yul\":9154:9155   */\n      0x00\n        /* \"#utility.yul\":9143:9152   */\n      dup4\n        /* \"#utility.yul\":9139:9156   */\n      add\n        /* \"#utility.yul\":9130:9136   */\n      dup5\n        /* \"#utility.yul\":9086:9157   */\n      tag_223\n      jump\t// in\n    tag_247:\n        /* \"#utility.yul\":8942:9164   */\n      swap3\n      swap2\n      pop\n      pop\n      jump\t// out\n        /* \"#utility.yul\":9170:9299   */\n    tag_133:\n        /* \"#utility.yul\":9204:9210   */\n      0x00\n        /* \"#utility.yul\":9231:9251   */\n      tag_249\n      tag_250\n      jump\t// in\n    tag_249:\n        /* \"#utility.yul\":9221:9251   */\n      swap1\n      pop\n        /* \"#utility.yul\":9260:9293   */\n      tag_251\n        /* \"#utility.yul\":9288:9292   */\n      dup3\n        /* \"#utility.yul\":9280:9286   */\n      dup3\n        /* \"#utility.yul\":9260:9293   */\n      tag_252\n      jump\t// in\n    tag_251:\n        /* \"#utility.yul\":9170:9299   */\n      swap2\n      swap1\n      pop\n      jump\t// out\n        /* \"#utility.yul\":9305:9380   */\n    tag_250:\n        /* \"#utility.yul\":9338:9344   */\n      0x00\n        /* \"#utility.yul\":9371:9373   */\n      0x40\n        /* \"#utility.yul\":9365:9374   */\n      mload\n        /* \"#utility.yul\":9355:9374   */\n      swap1\n      pop\n        /* \"#utility.yul\":9305:9380   */\n      swap1\n      jump\t// out\n        /* \"#utility.yul\":9386:9694   */\n    tag_132:\n        /* \"#utility.yul\":9448:9452   */\n      0x00\n        /* \"#utility.yul\":9538:9556   */\n      0xffffffffffffffff\n        /* \"#utility.yul\":9530:9536   */\n      dup3\n        /* \"#utility.yul\":9527:9557   */\n      gt\n        /* \"#utility.yul\":9524:9580   */\n      iszero\n      tag_255\n      jumpi\n        /* \"#utility.yul\":9560:9578   */\n      tag_256\n      tag_257\n      jump\t// in\n    tag_256:\n        /* \"#utility.yul\":9524:9580   */\n    tag_255:\n        /* \"#utility.yul\":9598:9627   */\n      tag_258\n        /* \"#utility.yul\":9620:9626   */\n      dup3\n        /* \"#utility.yul\":9598:9627   */\n      tag_184\n      jump\t// in\n    tag_258:\n        /* \"#utility.yul\":9590:9627   */\n      swap1\n      pop\n        /* \"#utility.yul\":9682:9686   */\n      0x20\n        /* \"#utility.yul\":9676:9680   */\n      dup2\n        /* \"#utility.yul\":9672:9687   */\n      add\n        /* \"#utility.yul\":9664:9687   */\n      swap1\n      pop\n        /* \"#utility.yul\":9386:9694   */\n      swap2\n      swap1\n      pop\n      jump\t// out\n        /* \"#utility.yul\":9700:9841   */\n    tag_193:\n        /* \"#utility.yul\":9749:9753   */\n      0x00\n        /* \"#utility.yul\":9772:9775   */\n      dup2\n        /* \"#utility.yul\":9764:9775   */\n      swap1\n      pop\n        /* \"#utility.yul\":9795:9798   */\n      dup2\n        /* \"#utility.yul\":9792:9793   */\n      0x00\n        /* \"#utility.yul\":9785:9799   */\n      mstore\n        /* \"#utility.yul\":9829:9833   */\n      0x20\n        /* \"#utility.yul\":9826:9827   */\n      0x00\n        /* \"#utility.yul\":9816:9834   */\n      keccak256\n        /* \"#utility.yul\":9808:9834   */\n      swap1\n      pop\n        /* \"#utility.yul\":9700:9841   */\n      swap2\n      swap1\n      pop\n      jump\t// out\n        /* \"#utility.yul\":9847:9946   */\n    tag_178:\n        /* \"#utility.yul\":9899:9905   */\n      0x00\n        /* \"#utility.yul\":9933:9938   */\n      dup2\n        /* \"#utility.yul\":9927:9939   */\n      mload\n        /* \"#utility.yul\":9917:9939   */\n      swap1\n      pop\n        /* \"#utility.yul\":9847:9946   */\n      swap2\n      swap1\n      pop\n      jump\t// out\n        /* \"#utility.yul\":9952:10099   */\n    tag_215:\n        /* \"#utility.yul\":10053:10064   */\n      0x00\n        /* \"#utility.yul\":10090:10093   */\n      dup2\n        /* \"#utility.yul\":10075:10093   */\n      swap1\n      pop\n        /* \"#utility.yul\":9952:10099   */\n      swap3\n      swap2\n      pop\n      pop\n      jump\t// out\n        /* \"#utility.yul\":10105:10274   */\n    tag_180:\n        /* \"#utility.yul\":10189:10200   */\n      0x00\n        /* \"#utility.yul\":10223:10229   */\n      dup3\n        /* \"#utility.yul\":10218:10221   */\n      dup3\n        /* \"#utility.yul\":10211:10230   */\n      mstore\n        /* \"#utility.yul\":10263:10267   */\n      0x20\n        /* \"#utility.yul\":10258:10261   */\n      dup3\n        /* \"#utility.yul\":10254:10268   */\n      add\n        /* \"#utility.yul\":10239:10268   */\n      swap1\n      pop\n        /* \"#utility.yul\":10105:10274   */\n      swap3\n      swap2\n      pop\n      pop\n      jump\t// out\n        /* \"#utility.yul\":10280:10585   */\n    tag_84:\n        /* \"#utility.yul\":10320:10323   */\n      0x00\n        /* \"#utility.yul\":10339:10359   */\n      tag_264\n        /* \"#utility.yul\":10357:10358   */\n      dup3\n        /* \"#utility.yul\":10339:10359   */\n      tag_226\n      jump\t// in\n    tag_264:\n        /* \"#utility.yul\":10334:10359   */\n      swap2\n      pop\n        /* \"#utility.yul\":10373:10393   */\n      tag_265\n        /* \"#utility.yul\":10391:10392   */\n      dup4\n        /* \"#utility.yul\":10373:10393   */\n      tag_226\n      jump\t// in\n    tag_265:\n        /* \"#utility.yul\":10368:10393   */\n      swap3\n      pop\n        /* \"#utility.yul\":10527:10528   */\n      dup3\n        /* \"#utility.yul\":10459:10525   */\n      0xffffffffffffffffffffffffffffffffffffffffffffffffffffffffffffffff\n        /* \"#utility.yul\":10455:10529   */\n      sub\n        /* \"#utility.yul\":10452:10453   */\n      dup3\n        /* \"#utility.yul\":10449:10530   */\n      gt\n        /* \"#utility.yul\":10446:10553   */\n      iszero\n      tag_266\n      jumpi\n        /* \"#utility.yul\":10533:10551   */\n      tag_267\n      tag_268\n      jump\t// in\n    tag_267:\n        /* \"#utility.yul\":10446:10553   */\n    tag_266:\n        /* \"#utility.yul\":10577:10578   */\n      dup3\n        /* \"#utility.yul\":10574:10575   */\n      dup3\n        /* \"#utility.yul\":10570:10579   */\n      add\n        /* \"#utility.yul\":10563:10579   */\n      swap1\n      pop\n        /* \"#utility.yul\":10280:10585   */\n      swap3\n      swap2\n      pop\n      pop\n      jump\t// out\n        /* \"#utility.yul\":10591:10776   */\n    tag_88:\n        /* \"#utility.yul\":10631:10632   */\n      0x00\n        /* \"#utility.yul\":10648:10668   */\n      tag_270\n        /* \"#utility.yul\":10666:10667   */\n      dup3\n        /* \"#utility.yul\":10648:10668   */\n      tag_226\n      jump\t// in\n    tag_270:\n        /* \"#utility.yul\":10643:10668   */\n      swap2\n      pop\n        /* \"#utility.yul\":10682:10702   */\n      tag_271\n        /* \"#utility.yul\":10700:10701   */\n      dup4\n        /* \"#utility.yul\":10682:10702   */\n      tag_226\n      jump\t// in\n    tag_271:\n        /* \"#utility.yul\":10677:10702   */\n      swap3\n      pop\n        /* \"#utility.yul\":10721:10722   */\n      dup3\n        /* \"#utility.yul\":10711:10746   */\n      tag_272\n      jumpi\n        /* \"#utility.yul\":10726:10744   */\n      tag_273\n      tag_274\n      jump\t// in\n    tag_273:\n        /* \"#utility.yul\":10711:10746   */\n    tag_272:\n        /* \"#utility.yul\":10768:10769   */\n      dup3\n        /* \"#utility.yul\":10765:10766   */\n      dup3\n        /* \"#utility.yul\":10761:10770   */\n      div\n        /* \"#utility.yul\":10756:10770   */\n      swap1\n      pop\n        /* \"#utility.yul\":10591:10776   */\n      swap3\n      swap2\n      pop\n      pop\n      jump\t// out\n        /* \"#utility.yul\":10782:11130   */\n    tag_90:\n        /* \"#utility.yul\":10822:10829   */\n      0x00\n        /* \"#utility.yul\":10845:10865   */\n      tag_276\n        /* \"#utility.yul\":10863:10864   */\n      dup3\n        /* \"#utility.yul\":10845:10865   */\n      tag_226\n      jump\t// in\n    tag_276:\n        /* \"#utility.yul\":10840:10865   */\n      swap2\n      pop\n        /* \"#utility.yul\":10879:10899   */\n      tag_277\n        /* \"#utility.yul\":10897:10898   */\n      dup4\n        /* \"#utility.yul\":10879:10899   */\n      tag_226\n      jump\t// in\n    tag_277:\n        /* \"#utility.yul\":10874:10899   */\n      swap3\n      pop\n        /* \"#utility.yul\":11067:11068   */\n      dup2\n        /* \"#utility.yul\":10999:11065   */\n      0xffffffffffffffffffffffffffffffffffffffffffffffffffffffffffffffff\n        /* \"#utility.yul\":10995:11069   */\n      div\n        /* \"#utility.yul\":10992:10993   */\n      dup4\n        /* \"#utility.yul\":10989:11070   */\n      gt\n        /* \"#utility.yul\":10984:10985   */\n      dup3\n        /* \"#utility.yul\":10977:10986   */\n      iszero\n        /* \"#utility.yul\":10970:10987   */\n      iszero\n        /* \"#utility.yul\":10966:11071   */\n      and\n        /* \"#utility.yul\":10963:11094   */\n      iszero\n      tag_278\n      jumpi\n        /* \"#utility.yul\":11074:11092   */\n      tag_279\n      tag_268\n      jump\t// in\n    tag_279:\n        /* \"#utility.yul\":10963:11094   */\n    tag_278:\n        /* \"#utility.yul\":11122:11123   */\n      dup3\n        /* \"#utility.yul\":11119:11120   */\n      dup3\n        /* \"#utility.yul\":11115:11124   */\n      mul\n        /* \"#utility.yul\":11104:11124   */\n      swap1\n      pop\n        /* \"#utility.yul\":10782:11130   */\n      swap3\n      swap2\n      pop\n      pop\n      jump\t// out\n        /* \"#utility.yul\":11136:11327   */\n    tag_92:\n        /* \"#utility.yul\":11176:11180   */\n      0x00\n        /* \"#utility.yul\":11196:11216   */\n      tag_281\n        /* \"#utility.yul\":11214:11215   */\n      dup3\n        /* \"#utility.yul\":11196:11216   */\n      tag_226\n      jump\t// in\n    tag_281:\n        /* \"#utility.yul\":11191:11216   */\n      swap2\n      pop\n        /* \"#utility.yul\":11230:11250   */\n      tag_282\n        /* \"#utility.yul\":11248:11249   */\n      dup4\n        /* \"#utility.yul\":11230:11250   */\n      tag_226\n      jump\t// in\n    tag_282:\n        /* \"#utility.yul\":11225:11250   */\n      swap3\n      pop\n        /* \"#utility.yul\":11269:11270   */\n      dup3\n        /* \"#utility.yul\":11266:11267   */\n      dup3\n        /* \"#utility.yul\":11263:11271   */\n      lt\n        /* \"#utility.yul\":11260:11294   */\n      iszero\n      tag_283\n      jumpi\n        /* \"#utility.yul\":11274:11292   */\n      tag_284\n      tag_268\n      jump\t// in\n    tag_284:\n        /* \"#utility.yul\":11260:11294   */\n    tag_283:\n        /* \"#utility.yul\":11319:11320   */\n      dup3\n        /* \"#utility.yul\":11316:11317   */\n      dup3\n        /* \"#utility.yul\":11312:11321   */\n      sub\n        /* \"#utility.yul\":11304:11321   */\n      swap1\n      pop\n        /* \"#utility.yul\":11136:11327   */\n      swap3\n      swap2\n      pop\n      pop\n      jump\t// out\n        /* \"#utility.yul\":11333:11429   */\n    tag_170:\n        /* \"#utility.yul\":11370:11377   */\n      0x00\n        /* \"#utility.yul\":11399:11423   */\n      tag_286\n        /* \"#utility.yul\":11417:11422   */\n      dup3\n        /* \"#utility.yul\":11399:11423   */\n      tag_287\n      jump\t// in\n    tag_286:\n        /* \"#utility.yul\":11388:11423   */\n      swap1\n      pop\n        /* \"#utility.yul\":11333:11429   */\n      swap2\n      swap1\n      pop\n      jump\t// out\n        /* \"#utility.yul\":11435:11525   */\n    tag_174:\n        /* \"#utility.yul\":11469:11476   */\n      0x00\n        /* \"#utility.yul\":11512:11517   */\n      dup2\n        /* \"#utility.yul\":11505:11518   */\n      iszero\n        /* \"#utility.yul\":11498:11519   */\n      iszero\n        /* \"#utility.yul\":11487:11519   */\n      swap1\n      pop\n        /* \"#utility.yul\":11435:11525   */\n      swap2\n      swap1\n      pop\n      jump\t// out\n        /* \"#utility.yul\":11531:11657   */\n    tag_287:\n        /* \"#utility.yul\":11568:11575   */\n      0x00\n        /* \"#utility.yul\":11608:11650   */\n      0xffffffffffffffffffffffffffffffffffffffff\n        /* \"#utility.yul\":11601:11606   */\n      dup3\n        /* \"#utility.yul\":11597:11651   */\n      and\n        /* \"#utility.yul\":11586:11651   */\n      swap1\n      pop\n        /* \"#utility.yul\":11531:11657   */\n      swap2\n      swap1\n      pop\n      jump\t// out\n        /* \"#utility.yul\":11663:11740   */\n    tag_226:\n        /* \"#utility.yul\":11700:11707   */\n      0x00\n        /* \"#utility.yul\":11729:11734   */\n      dup2\n        /* \"#utility.yul\":11718:11734   */\n      swap1\n      pop\n        /* \"#utility.yul\":11663:11740   */\n      swap2\n      swap1\n      pop\n      jump\t// out\n        /* \"#utility.yul\":11746:11900   */\n    tag_138:\n        /* \"#utility.yul\":11830:11836   */\n      dup3\n        /* \"#utility.yul\":11825:11828   */\n      dup2\n        /* \"#utility.yul\":11820:11823   */\n      dup4\n        /* \"#utility.yul\":11807:11837   */\n      calldatacopy\n        /* \"#utility.yul\":11892:11893   */\n      0x00\n        /* \"#utility.yul\":11883:11889   */\n      dup4\n        /* \"#utility.yul\":11878:11881   */\n      dup4\n        /* \"#utility.yul\":11874:11890   */\n      add\n        /* \"#utility.yul\":11867:11894   */\n      mstore\n        /* \"#utility.yul\":11746:11900   */\n      pop\n      pop\n      pop\n      jump\t// out\n        /* \"#utility.yul\":11906:12213   */\n    tag_182:\n        /* \"#utility.yul\":11974:11975   */\n      0x00\n        /* \"#utility.yul\":11984:12097   */\n    tag_293:\n        /* \"#utility.yul\":11998:12004   */\n      dup4\n        /* \"#utility.yul\":11995:11996   */\n      dup2\n        /* \"#utility.yul\":11992:12005   */\n      lt\n        /* \"#utility.yul\":11984:12097   */\n      iszero\n      tag_295\n      jumpi\n        /* \"#utility.yul\":12083:12084   */\n      dup1\n        /* \"#utility.yul\":12078:12081   */\n      dup3\n        /* \"#utility.yul\":12074:12085   */\n      add\n        /* \"#utility.yul\":12068:12086   */\n      mload\n        /* \"#utility.yul\":12064:12065   */\n      dup2\n        /* \"#utility.yul\":12059:12062   */\n      dup5\n        /* \"#utility.yul\":12055:12066   */\n      add\n        /* \"#utility.yul\":12048:12087   */\n      mstore\n        /* \"#utility.yul\":12020:12022   */\n      0x20\n        /* \"#utility.yul\":12017:12018   */\n      dup2\n        /* \"#utility.yul\":12013:12023   */\n      add\n        /* \"#utility.yul\":12008:12023   */\n      swap1\n      pop\n        /* \"#utility.yul\":11984:12097   */\n      jump(tag_293)\n    tag_295:\n        /* \"#utility.yul\":12115:12121   */\n      dup4\n        /* \"#utility.yul\":12112:12113   */\n      dup2\n        /* \"#utility.yul\":12109:12122   */\n      gt\n        /* \"#utility.yul\":12106:12207   */\n      iszero\n      tag_296\n      jumpi\n        /* \"#utility.yul\":12195:12196   */\n      0x00\n        /* \"#utility.yul\":12186:12192   */\n      dup5\n        /* \"#utility.yul\":12181:12184   */\n      dup5\n        /* \"#utility.yul\":12177:12193   */\n      add\n        /* \"#utility.yul\":12170:12197   */\n      mstore\n        /* \"#utility.yul\":12106:12207   */\n    tag_296:\n        /* \"#utility.yul\":11955:12213   */\n      pop\n        /* \"#utility.yul\":11906:12213   */\n      pop\n      pop\n      pop\n      jump\t// out\n        /* \"#utility.yul\":12219:12539   */\n    tag_101:\n        /* \"#utility.yul\":12263:12269   */\n      0x00\n        /* \"#utility.yul\":12300:12301   */\n      0x02\n        /* \"#utility.yul\":12294:12298   */\n      dup3\n        /* \"#utility.yul\":12290:12302   */\n      div\n        /* \"#utility.yul\":12280:12302   */\n      swap1\n      pop\n        /* \"#utility.yul\":12347:12348   */\n      0x01\n        /* \"#utility.yul\":12341:12345   */\n      dup3\n        /* \"#utility.yul\":12337:12349   */\n      and\n        /* \"#utility.yul\":12368:12386   */\n      dup1\n        /* \"#utility.yul\":12358:12439   */\n      tag_298\n      jumpi\n        /* \"#utility.yul\":12424:12428   */\n      0x7f\n        /* \"#utility.yul\":12416:12422   */\n      dup3\n        /* \"#utility.yul\":12412:12429   */\n      and\n        /* \"#utility.yul\":12402:12429   */\n      swap2\n      pop\n        /* \"#utility.yul\":12358:12439   */\n    tag_298:\n        /* \"#utility.yul\":12486:12488   */\n      0x20\n        /* \"#utility.yul\":12478:12484   */\n      dup3\n        /* \"#utility.yul\":12475:12489   */\n      lt\n        /* \"#utility.yul\":12455:12473   */\n      dup2\n        /* \"#utility.yul\":12452:12490   */\n      eq\n        /* \"#utility.yul\":12449:12533   */\n      iszero\n      tag_299\n      jumpi\n        /* \"#utility.yul\":12505:12523   */\n      tag_300\n      tag_301\n      jump\t// in\n    tag_300:\n        /* \"#utility.yul\":12449:12533   */\n    tag_299:\n        /* \"#utility.yul\":12270:12539   */\n      pop\n        /* \"#utility.yul\":12219:12539   */\n      swap2\n      swap1\n      pop\n      jump\t// out\n        /* \"#utility.yul\":12545:12826   */\n    tag_252:\n        /* \"#utility.yul\":12628:12655   */\n      tag_303\n        /* \"#utility.yul\":12650:12654   */\n      dup3\n        /* \"#utility.yul\":12628:12655   */\n      tag_184\n      jump\t// in\n    tag_303:\n        /* \"#utility.yul\":12620:12626   */\n      dup2\n        /* \"#utility.yul\":12616:12656   */\n      add\n        /* \"#utility.yul\":12758:12764   */\n      dup2\n        /* \"#utility.yul\":12746:12756   */\n      dup2\n        /* \"#utility.yul\":12743:12765   */\n      lt\n        /* \"#utility.yul\":12722:12740   */\n      0xffffffffffffffff\n        /* \"#utility.yul\":12710:12720   */\n      dup3\n        /* \"#utility.yul\":12707:12741   */\n      gt\n        /* \"#utility.yul\":12704:12766   */\n      or\n        /* \"#utility.yul\":12701:12789   */\n      iszero\n      tag_304\n      jumpi\n        /* \"#utility.yul\":12769:12787   */\n      tag_305\n      tag_257\n      jump\t// in\n    tag_305:\n        /* \"#utility.yul\":12701:12789   */\n    tag_304:\n        /* \"#utility.yul\":12809:12819   */\n      dup1\n        /* \"#utility.yul\":12805:12807   */\n      0x40\n        /* \"#utility.yul\":12798:12820   */\n      mstore\n        /* \"#utility.yul\":12588:12826   */\n      pop\n        /* \"#utility.yul\":12545:12826   */\n      pop\n      pop\n      jump\t// out\n        /* \"#utility.yul\":12832:13065   */\n    tag_22:\n        /* \"#utility.yul\":12871:12874   */\n      0x00\n        /* \"#utility.yul\":12894:12918   */\n      tag_307\n        /* \"#utility.yul\":12912:12917   */\n      dup3\n        /* \"#utility.yul\":12894:12918   */\n      tag_226\n      jump\t// in\n    tag_307:\n        /* \"#utility.yul\":12885:12918   */\n      swap2\n      pop\n        /* \"#utility.yul\":12940:13006   */\n      0xffffffffffffffffffffffffffffffffffffffffffffffffffffffffffffffff\n        /* \"#utility.yul\":12933:12938   */\n      dup3\n        /* \"#utility.yul\":12930:13007   */\n      eq\n        /* \"#utility.yul\":12927:13030   */\n      iszero\n      tag_308\n      jumpi\n        /* \"#utility.yul\":13010:13028   */\n      tag_309\n      tag_268\n      jump\t// in\n    tag_309:\n        /* \"#utility.yul\":12927:13030   */\n    tag_308:\n        /* \"#utility.yul\":13057:13058   */\n      0x01\n        /* \"#utility.yul\":13050:13055   */\n      dup3\n        /* \"#utility.yul\":13046:13059   */\n      add\n        /* \"#utility.yul\":13039:13059   */\n      swap1\n      pop\n        /* \"#utility.yul\":12832:13065   */\n      swap2\n      swap1\n      pop\n      jump\t// out\n        /* \"#utility.yul\":13071:13251   */\n    tag_268:\n        /* \"#utility.yul\":13119:13196   */\n      0x4e487b7100000000000000000000000000000000000000000000000000000000\n        /* \"#utility.yul\":13116:13117   */\n      0x00\n        /* \"#utility.yul\":13109:13197   */\n      mstore\n        /* \"#utility.yul\":13216:13220   */\n      0x11\n        /* \"#utility.yul\":13213:13214   */\n      0x04\n        /* \"#utility.yul\":13206:13221   */\n      mstore\n        /* \"#utility.yul\":13240:13244   */\n      0x24\n        /* \"#utility.yul\":13237:13238   */\n      0x00\n        /* \"#utility.yul\":13230:13245   */\n      revert\n        /* \"#utility.yul\":13257:13437   */\n    tag_274:\n        /* \"#utility.yul\":13305:13382   */\n      0x4e487b7100000000000000000000000000000000000000000000000000000000\n        /* \"#utility.yul\":13302:13303   */\n      0x00\n        /* \"#utility.yul\":13295:13383   */\n      mstore\n        /* \"#utility.yul\":13402:13406   */\n      0x12\n        /* \"#utility.yul\":13399:13400   */\n      0x04\n        /* \"#utility.yul\":13392:13407   */\n      mstore\n        /* \"#utility.yul\":13426:13430   */\n      0x24\n        /* \"#utility.yul\":13423:13424   */\n      0x00\n        /* \"#utility.yul\":13416:13431   */\n      revert\n        /* \"#utility.yul\":13443:13623   */\n    tag_301:\n        /* \"#utility.yul\":13491:13568   */\n      0x4e487b7100000000000000000000000000000000000000000000000000000000\n        /* \"#utility.yul\":13488:13489   */\n      0x00\n        /* \"#utility.yul\":13481:13569   */\n      mstore\n        /* \"#utility.yul\":13588:13592   */\n      0x22\n        /* \"#utility.yul\":13585:13586   */\n      0x04\n        /* \"#utility.yul\":13578:13593   */\n      mstore\n        /* \"#utility.yul\":13612:13616   */\n      0x24\n        /* \"#utility.yul\":13609:13610   */\n      0x00\n        /* \"#utility.yul\":13602:13617   */\n      revert\n        /* \"#utility.yul\":13629:13809   */\n    tag_257:\n        /* \"#utility.yul\":13677:13754   */\n      0x4e487b7100000000000000000000000000000000000000000000000000000000\n        /* \"#utility.yul\":13674:13675   */\n      0x00\n        /* \"#utility.yul\":13667:13755   */\n      mstore\n        /* \"#utility.yul\":13774:13778   */\n      0x41\n        /* \"#utility.yul\":13771:13772   */\n      0x04\n        /* \"#utility.yul\":13764:13779   */\n      mstore\n        /* \"#utility.yul\":13798:13802   */\n      0x24\n        /* \"#utility.yul\":13795:13796   */\n      0x00\n        /* \"#utility.yul\":13788:13803   */\n      revert\n        /* \"#utility.yul\":13815:13932   */\n    tag_147:\n        /* \"#utility.yul\":13924:13925   */\n      0x00\n        /* \"#utility.yul\":13921:13922   */\n      dup1\n        /* \"#utility.yul\":13914:13926   */\n      revert\n        /* \"#utility.yul\":13938:14055   */\n    tag_136:\n        /* \"#utility.yul\":14047:14048   */\n      0x00\n        /* \"#utility.yul\":14044:14045   */\n      dup1\n        /* \"#utility.yul\":14037:14049   */\n      revert\n        /* \"#utility.yul\":14061:14178   */\n    tag_159:\n        /* \"#utility.yul\":14170:14171   */\n      0x00\n        /* \"#utility.yul\":14167:14168   */\n      dup1\n        /* \"#utility.yul\":14160:14172   */\n      revert\n        /* \"#utility.yul\":14184:14301   */\n    tag_156:\n        /* \"#utility.yul\":14293:14294   */\n      0x00\n        /* \"#utility.yul\":14290:14291   */\n      dup1\n        /* \"#utility.yul\":14283:14295   */\n      revert\n        /* \"#utility.yul\":14307:14409   */\n    tag_184:\n        /* \"#utility.yul\":14348:14354   */\n      0x00\n        /* \"#utility.yul\":14399:14401   */\n      0x1f\n        /* \"#utility.yul\":14395:14402   */\n      not\n        /* \"#utility.yul\":14390:14392   */\n      0x1f\n        /* \"#utility.yul\":14383:14388   */\n      dup4\n        /* \"#utility.yul\":14379:14393   */\n      add\n        /* \"#utility.yul\":14375:14403   */\n      and\n        /* \"#utility.yul\":14365:14403   */\n      swap1\n      pop\n        /* \"#utility.yul\":14307:14409   */\n      swap2\n      swap1\n      pop\n      jump\t// out\n        /* \"#utility.yul\":14415:14571   */\n    tag_201:\n        /* \"#utility.yul\":14555:14563   */\n      0x4661696c65640000000000000000000000000000000000000000000000000000\n        /* \"#utility.yul\":14551:14552   */\n      0x00\n        /* \"#utility.yul\":14543:14549   */\n      dup3\n        /* \"#utility.yul\":14539:14553   */\n      add\n        /* \"#utility.yul\":14532:14564   */\n      mstore\n        /* \"#utility.yul\":14415:14571   */\n      pop\n      jump\t// out\n        /* \"#utility.yul\":14577:14750   */\n    tag_206:\n        /* \"#utility.yul\":14717:14742   */\n      0x63616c6c6572206973206e6f7420746865206f776e6572000000000000000000\n        /* \"#utility.yul\":14713:14714   */\n      0x00\n        /* \"#utility.yul\":14705:14711   */\n      dup3\n        /* \"#utility.yul\":14701:14715   */\n      add\n        /* \"#utility.yul\":14694:14743   */\n      mstore\n        /* \"#utility.yul\":14577:14750   */\n      pop\n      jump\t// out\n        /* \"#utility.yul\":14756:14926   */\n    tag_211:\n        /* \"#utility.yul\":14896:14918   */\n      0x4d75737420626520302e3030312065746865722e000000000000000000000000\n        /* \"#utility.yul\":14892:14893   */\n      0x00\n        /* \"#utility.yul\":14884:14890   */\n      dup3\n        /* \"#utility.yul\":14880:14894   */\n      add\n        /* \"#utility.yul\":14873:14919   */\n      mstore\n        /* \"#utility.yul\":14756:14926   */\n      pop\n      jump\t// out\n        /* \"#utility.yul\":14932:15046   */\n    tag_217:\n      pop\n      jump\t// out\n        /* \"#utility.yul\":15052:15225   */\n    tag_222:\n        /* \"#utility.yul\":15192:15217   */\n      0x4d757374206265207468652066697273742074696d652e000000000000000000\n        /* \"#utility.yul\":15188:15189   */\n      0x00\n        /* \"#utility.yul\":15180:15186   */\n      dup3\n        /* \"#utility.yul\":15176:15190   */\n      add\n        /* \"#utility.yul\":15169:15218   */\n      mstore\n        /* \"#utility.yul\":15052:15225   */\n      pop\n      jump\t// out\n        /* \"#utility.yul\":15231:15353   */\n    tag_142:\n        /* \"#utility.yul\":15304:15328   */\n      tag_325\n        /* \"#utility.yul\":15322:15327   */\n      dup2\n        /* \"#utility.yul\":15304:15328   */\n      tag_170\n      jump\t// in\n    tag_325:\n        /* \"#utility.yul\":15297:15302   */\n      dup2\n        /* \"#utility.yul\":15294:15329   */\n      eq\n        /* \"#utility.yul\":15284:15347   */\n      tag_326\n      jumpi\n        /* \"#utility.yul\":15343:15344   */\n      0x00\n        /* \"#utility.yul\":15340:15341   */\n      dup1\n        /* \"#utility.yul\":15333:15345   */\n      revert\n        /* \"#utility.yul\":15284:15347   */\n    tag_326:\n        /* \"#utility.yul\":15231:15353   */\n      pop\n      jump\t// out\n        /* \"#utility.yul\":15359:15481   */\n    tag_152:\n        /* \"#utility.yul\":15432:15456   */\n      tag_328\n        /* \"#utility.yul\":15450:15455   */\n      dup2\n        /* \"#utility.yul\":15432:15456   */\n      tag_226\n      jump\t// in\n    tag_328:\n        /* \"#utility.yul\":15425:15430   */\n      dup2\n        /* \"#utility.yul\":15422:15457   */\n      eq\n        /* \"#utility.yul\":15412:15475   */\n      tag_329\n      jumpi\n        /* \"#utility.yul\":15471:15472   */\n      0x00\n        /* \"#utility.yul\":15468:15469   */\n      dup1\n        /* \"#utility.yul\":15461:15473   */\n      revert\n        /* \"#utility.yul\":15412:15475   */\n    tag_329:\n        /* \"#utility.yul\":15359:15481   */\n      pop\n      jump\t// out\n\n    auxdata: 0xa264697066735822122077aa639207f5c36214b4fb568b84b0fc723e89d49da7879b195676d814b9b71464736f6c63430008070033\n}\n",
				"bytecode": {
					"linkReferences": {},
					"object": "60806040526000600255600160055560006006553480156200002057600080fd5b5060405162001916380380620019168339818101604052810190620000469190620002a1565b336000806101000a81548173ffffffffffffffffffffffffffffffffffffffff021916908373ffffffffffffffffffffffffffffffffffffffff16021790555081600390805190602001906200009e9291906200015c565b5080600481905550620000b6620000c460201b60201c565b600281905550505062000714565b60008043426004546003604051602001620000e0919062000393565b6040516020818303038152906040528051906020012060001c6200010591906200043c565b6200011191906200043c565b6200011d91906200043c565b90506001600a808362000131919062000499565b6200013d9190620004d1565b826200014a919062000532565b6200015691906200043c565b91505090565b8280546200016a90620005ad565b90600052602060002090601f0160209004810192826200018e5760008555620001da565b82601f10620001a957805160ff1916838001178555620001da565b82800160010185558215620001da579182015b82811115620001d9578251825591602001919060010190620001bc565b5b509050620001e99190620001ed565b5090565b5b8082111562000208576000816000905550600101620001ee565b5090565b6000620002236200021d84620003e0565b620003b7565b905082815260208101848484011115620002425762000241620006da565b5b6200024f84828562000577565b509392505050565b600082601f8301126200026f576200026e620006d5565b5b8151620002818482602086016200020c565b91505092915050565b6000815190506200029b81620006fa565b92915050565b60008060408385031215620002bb57620002ba620006e4565b5b600083015167ffffffffffffffff811115620002dc57620002db620006df565b5b620002ea8582860162000257565b9250506020620002fd858286016200028a565b9150509250929050565b600081546200031681620005ad565b6200032281866200042b565b9450600182166000811462000340576001811462000353576200038a565b60ff19831686526020860193506200038a565b6200035e8562000416565b60005b83811015620003825781548189015260018201915060208101905062000361565b808801955050505b50505092915050565b60006020820190508181036000830152620003af818462000307565b905092915050565b6000620003c3620003d6565b9050620003d18282620005e3565b919050565b6000604051905090565b600067ffffffffffffffff821115620003fe57620003fd620006a6565b5b6200040982620006e9565b9050602081019050919050565b60008190508160005260206000209050919050565b600082825260208201905092915050565b600062000449826200056d565b915062000456836200056d565b9250827fffffffffffffffffffffffffffffffffffffffffffffffffffffffffffffffff038211156200048e576200048d62000619565b5b828201905092915050565b6000620004a6826200056d565b9150620004b3836200056d565b925082620004c657620004c562000648565b5b828204905092915050565b6000620004de826200056d565b9150620004eb836200056d565b9250817fffffffffffffffffffffffffffffffffffffffffffffffffffffffffffffffff048311821515161562000527576200052662000619565b5b828202905092915050565b60006200053f826200056d565b91506200054c836200056d565b92508282101562000562576200056162000619565b5b828203905092915050565b6000819050919050565b60005b83811015620005975780820151818401526020810190506200057a565b83811115620005a7576000848401525b50505050565b60006002820490506001821680620005c657607f821691505b60208210811415620005dd57620005dc62000677565b5b50919050565b620005ee82620006e9565b810181811067ffffffffffffffff8211171562000610576200060f620006a6565b5b80604052505050565b7f4e487b7100000000000000000000000000000000000000000000000000000000600052601160045260246000fd5b7f4e487b7100000000000000000000000000000000000000000000000000000000600052601260045260246000fd5b7f4e487b7100000000000000000000000000000000000000000000000000000000600052602260045260246000fd5b7f4e487b7100000000000000000000000000000000000000000000000000000000600052604160045260246000fd5b600080fd5b600080fd5b600080fd5b600080fd5b6000601f19601f8301169050919050565b62000705816200056d565b81146200071157600080fd5b50565b6111f280620007246000396000f3fe60806040526004361061008a5760003560e01c80638da5cb5b116100595780638da5cb5b1461042e5780639f8743f714610459578063a86d2e1914610484578063cf66b989146104af578063e3c16cac146104ec5761037c565b80630df516d814610381578063146ca531146103ac5780634d9b3d5d146103d757806379ed40bc146104025761037c565b3661037c5766038d7ea4c6800034146100d8576040517f08c379a00000000000000000000000000000000000000000000000000000000081526004016100cf90610cce565b60405180910390fd5b6000151560016000600554815260200190815260200160002060003373ffffffffffffffffffffffffffffffffffffffff1673ffffffffffffffffffffffffffffffffffffffff16815260200190815260200160002060009054906101000a900460ff1615151461017e576040517f08c379a000000000000000000000000000000000000000000000000000000000815260040161017590610cee565b60405180910390fd5b6001806000600554815260200190815260200160002060003373ffffffffffffffffffffffffffffffffffffffff1673ffffffffffffffffffffffffffffffffffffffff16815260200190815260200160002060006101000a81548160ff0219169083151502179055506006600081546101f790610fbd565b91905081905550600254600654141561032b5760003373ffffffffffffffffffffffffffffffffffffffff164760405161023090610bf1565b60006040518083038185875af1925050503d806000811461026d576040519150601f19603f3d011682016040523d82523d6000602084013e610272565b606091505b50509050806102b6576040517f08c379a00000000000000000000000000000000000000000000000000000000081526004016102ad90610c8e565b60405180910390fd5b60006006819055506005600081546102cd90610fbd565b919050819055506102dc610515565b6002819055503373ffffffffffffffffffffffffffffffffffffffff167fd7b5435fa0dd93954c7955210a67950d9385f8cd60631432712709e265ec99ca60405160405180910390a25061037a565b3373ffffffffffffffffffffffffffffffffffffffff167f20384c35af44ae3e0536c765e1cee107339d7ca70b092472c816a3a62e4ba659346040516103719190610d0e565b60405180910390a25b005b600080fd5b34801561038d57600080fd5b5061039661059d565b6040516103a39190610d0e565b60405180910390f35b3480156103b857600080fd5b506103c16105a3565b6040516103ce9190610d0e565b60405180910390f35b3480156103e357600080fd5b506103ec6105a9565b6040516103f99190610d0e565b60405180910390f35b34801561040e57600080fd5b506104176105b1565b604051610425929190610c3c565b60405180910390f35b34801561043a57600080fd5b506104436106dd565b6040516104509190610c06565b60405180910390f35b34801561046557600080fd5b5061046e610701565b60405161047b9190610d0e565b60405180910390f35b34801561049057600080fd5b5061049961070b565b6040516104a69190610d0e565b60405180910390f35b3480156104bb57600080fd5b506104d660048036038101906104d19190610a1c565b6107a4565b6040516104e39190610c21565b60405180910390f35b3480156104f857600080fd5b50610513600480360381019061050e91906109c0565b6107d3565b005b6000804342600454600360405160200161052f9190610c6c565b6040516020818303038152906040528051906020012060001c6105529190610dbb565b61055c9190610dbb565b6105669190610dbb565b90506001600a80836105789190610e11565b6105829190610e42565b8261058d9190610e9c565b6105979190610dbb565b91505090565b60065481565b60055481565b600047905090565b606060008060009054906101000a900473ffffffffffffffffffffffffffffffffffffffff1673ffffffffffffffffffffffffffffffffffffffff163373ffffffffffffffffffffffffffffffffffffffff1614610644576040517f08c379a000000000000000000000000000000000000000000000000000000000815260040161063b90610cae565b60405180910390fd5b600360045481805461065590610f5a565b80601f016020809104026020016040519081016040528092919081815260200182805461068190610f5a565b80156106ce5780601f106106a3576101008083540402835291602001916106ce565b820191906000526020600020905b8154815290600101906020018083116106b157829003601f168201915b50505050509150915091509091565b60008054906101000a900473ffffffffffffffffffffffffffffffffffffffff1681565b6000600554905090565b60008060009054906101000a900473ffffffffffffffffffffffffffffffffffffffff1673ffffffffffffffffffffffffffffffffffffffff163373ffffffffffffffffffffffffffffffffffffffff161461079c576040517f08c379a000000000000000000000000000000000000000000000000000000000815260040161079390610cae565b60405180910390fd5b600254905090565b60016020528160005260406000206020528060005260406000206000915091509054906101000a900460ff1681565b60008054906101000a900473ffffffffffffffffffffffffffffffffffffffff1673ffffffffffffffffffffffffffffffffffffffff163373ffffffffffffffffffffffffffffffffffffffff1614610861576040517f08c379a000000000000000000000000000000000000000000000000000000000815260040161085890610cae565b60405180910390fd5b8160039080519060200190610877929190610883565b50806004819055505050565b82805461088f90610f5a565b90600052602060002090601f0160209004810192826108b157600085556108f8565b82601f106108ca57805160ff19168380011785556108f8565b828001600101855582156108f8579182015b828111156108f75782518255916020019190600101906108dc565b5b5090506109059190610909565b5090565b5b8082111561092257600081600090555060010161090a565b5090565b600061093961093484610d4e565b610d29565b905082815260208101848484011115610955576109546110c7565b5b610960848285610f18565b509392505050565b6000813590506109778161118e565b92915050565b600082601f830112610992576109916110c2565b5b81356109a2848260208601610926565b91505092915050565b6000813590506109ba816111a5565b92915050565b600080604083850312156109d7576109d66110d1565b5b600083013567ffffffffffffffff8111156109f5576109f46110cc565b5b610a018582860161097d565b9250506020610a12858286016109ab565b9150509250929050565b60008060408385031215610a3357610a326110d1565b5b6000610a41858286016109ab565b9250506020610a5285828601610968565b9150509250929050565b610a6581610ed0565b82525050565b610a7481610ee2565b82525050565b6000610a8582610d94565b610a8f8185610daa565b9350610a9f818560208601610f27565b610aa8816110d6565b840191505092915050565b60008154610ac081610f5a565b610aca8186610daa565b94506001821660008114610ae55760018114610af757610b2a565b60ff1983168652602086019350610b2a565b610b0085610d7f565b60005b83811015610b2257815481890152600182019150602081019050610b03565b808801955050505b50505092915050565b6000610b40600683610daa565b9150610b4b826110e7565b602082019050919050565b6000610b63601783610daa565b9150610b6e82611110565b602082019050919050565b6000610b86601483610daa565b9150610b9182611139565b602082019050919050565b6000610ba9600083610d9f565b9150610bb482611162565b600082019050919050565b6000610bcc601783610daa565b9150610bd782611165565b602082019050919050565b610beb81610f0e565b82525050565b6000610bfc82610b9c565b9150819050919050565b6000602082019050610c1b6000830184610a5c565b92915050565b6000602082019050610c366000830184610a6b565b92915050565b60006040820190508181036000830152610c568185610a7a565b9050610c656020830184610be2565b9392505050565b60006020820190508181036000830152610c868184610ab3565b905092915050565b60006020820190508181036000830152610ca781610b33565b9050919050565b60006020820190508181036000830152610cc781610b56565b9050919050565b60006020820190508181036000830152610ce781610b79565b9050919050565b60006020820190508181036000830152610d0781610bbf565b9050919050565b6000602082019050610d236000830184610be2565b92915050565b6000610d33610d44565b9050610d3f8282610f8c565b919050565b6000604051905090565b600067ffffffffffffffff821115610d6957610d68611093565b5b610d72826110d6565b9050602081019050919050565b60008190508160005260206000209050919050565b600081519050919050565b600081905092915050565b600082825260208201905092915050565b6000610dc682610f0e565b9150610dd183610f0e565b9250827fffffffffffffffffffffffffffffffffffffffffffffffffffffffffffffffff03821115610e0657610e05611006565b5b828201905092915050565b6000610e1c82610f0e565b9150610e2783610f0e565b925082610e3757610e36611035565b5b828204905092915050565b6000610e4d82610f0e565b9150610e5883610f0e565b9250817fffffffffffffffffffffffffffffffffffffffffffffffffffffffffffffffff0483118215151615610e9157610e90611006565b5b828202905092915050565b6000610ea782610f0e565b9150610eb283610f0e565b925082821015610ec557610ec4611006565b5b828203905092915050565b6000610edb82610eee565b9050919050565b60008115159050919050565b600073ffffffffffffffffffffffffffffffffffffffff82169050919050565b6000819050919050565b82818337600083830152505050565b60005b83811015610f45578082015181840152602081019050610f2a565b83811115610f54576000848401525b50505050565b60006002820490506001821680610f7257607f821691505b60208210811415610f8657610f85611064565b5b50919050565b610f95826110d6565b810181811067ffffffffffffffff82111715610fb457610fb3611093565b5b80604052505050565b6000610fc882610f0e565b91507fffffffffffffffffffffffffffffffffffffffffffffffffffffffffffffffff821415610ffb57610ffa611006565b5b600182019050919050565b7f4e487b7100000000000000000000000000000000000000000000000000000000600052601160045260246000fd5b7f4e487b7100000000000000000000000000000000000000000000000000000000600052601260045260246000fd5b7f4e487b7100000000000000000000000000000000000000000000000000000000600052602260045260246000fd5b7f4e487b7100000000000000000000000000000000000000000000000000000000600052604160045260246000fd5b600080fd5b600080fd5b600080fd5b600080fd5b6000601f19601f8301169050919050565b7f4661696c65640000000000000000000000000000000000000000000000000000600082015250565b7f63616c6c6572206973206e6f7420746865206f776e6572000000000000000000600082015250565b7f4d75737420626520302e3030312065746865722e000000000000000000000000600082015250565b50565b7f4d757374206265207468652066697273742074696d652e000000000000000000600082015250565b61119781610ed0565b81146111a257600080fd5b50565b6111ae81610f0e565b81146111b957600080fd5b5056fea264697066735822122077aa639207f5c36214b4fb568b84b0fc723e89d49da7879b195676d814b9b71464736f6c63430008070033",
					"opcodes": "PUSH1 0x80 PUSH1 0x40 MSTORE PUSH1 0x0 PUSH1 0x2 SSTORE PUSH1 0x1 PUSH1 0x5 SSTORE PUSH1 0x0 PUSH1 0x6 SSTORE CALLVALUE DUP1 ISZERO PUSH3 0x20 JUMPI PUSH1 0x0 DUP1 REVERT JUMPDEST POP PUSH1 0x40 MLOAD PUSH3 0x1916 CODESIZE SUB DUP1 PUSH3 0x1916 DUP4 CODECOPY DUP2 DUP2 ADD PUSH1 0x40 MSTORE DUP2 ADD SWAP1 PUSH3 0x46 SWAP2 SWAP1 PUSH3 0x2A1 JUMP JUMPDEST CALLER PUSH1 0x0 DUP1 PUSH2 0x100 EXP DUP2 SLOAD DUP2 PUSH20 0xFFFFFFFFFFFFFFFFFFFFFFFFFFFFFFFFFFFFFFFF MUL NOT AND SWAP1 DUP4 PUSH20 0xFFFFFFFFFFFFFFFFFFFFFFFFFFFFFFFFFFFFFFFF AND MUL OR SWAP1 SSTORE POP DUP2 PUSH1 0x3 SWAP1 DUP1 MLOAD SWAP1 PUSH1 0x20 ADD SWAP1 PUSH3 0x9E SWAP3 SWAP2 SWAP1 PUSH3 0x15C JUMP JUMPDEST POP DUP1 PUSH1 0x4 DUP2 SWAP1 SSTORE POP PUSH3 0xB6 PUSH3 0xC4 PUSH1 0x20 SHL PUSH1 0x20 SHR JUMP JUMPDEST PUSH1 0x2 DUP2 SWAP1 SSTORE POP POP POP PUSH3 0x714 JUMP JUMPDEST PUSH1 0x0 DUP1 NUMBER TIMESTAMP PUSH1 0x4 SLOAD PUSH1 0x3 PUSH1 0x40 MLOAD PUSH1 0x20 ADD PUSH3 0xE0 SWAP2 SWAP1 PUSH3 0x393 JUMP JUMPDEST PUSH1 0x40 MLOAD PUSH1 0x20 DUP2 DUP4 SUB SUB DUP2 MSTORE SWAP1 PUSH1 0x40 MSTORE DUP1 MLOAD SWAP1 PUSH1 0x20 ADD KECCAK256 PUSH1 0x0 SHR PUSH3 0x105 SWAP2 SWAP1 PUSH3 0x43C JUMP JUMPDEST PUSH3 0x111 SWAP2 SWAP1 PUSH3 0x43C JUMP JUMPDEST PUSH3 0x11D SWAP2 SWAP1 PUSH3 0x43C JUMP JUMPDEST SWAP1 POP PUSH1 0x1 PUSH1 0xA DUP1 DUP4 PUSH3 0x131 SWAP2 SWAP1 PUSH3 0x499 JUMP JUMPDEST PUSH3 0x13D SWAP2 SWAP1 PUSH3 0x4D1 JUMP JUMPDEST DUP3 PUSH3 0x14A SWAP2 SWAP1 PUSH3 0x532 JUMP JUMPDEST PUSH3 0x156 SWAP2 SWAP1 PUSH3 0x43C JUMP JUMPDEST SWAP2 POP POP SWAP1 JUMP JUMPDEST DUP3 DUP1 SLOAD PUSH3 0x16A SWAP1 PUSH3 0x5AD JUMP JUMPDEST SWAP1 PUSH1 0x0 MSTORE PUSH1 0x20 PUSH1 0x0 KECCAK256 SWAP1 PUSH1 0x1F ADD PUSH1 0x20 SWAP1 DIV DUP2 ADD SWAP3 DUP3 PUSH3 0x18E JUMPI PUSH1 0x0 DUP6 SSTORE PUSH3 0x1DA JUMP JUMPDEST DUP3 PUSH1 0x1F LT PUSH3 0x1A9 JUMPI DUP1 MLOAD PUSH1 0xFF NOT AND DUP4 DUP1 ADD OR DUP6 SSTORE PUSH3 0x1DA JUMP JUMPDEST DUP3 DUP1 ADD PUSH1 0x1 ADD DUP6 SSTORE DUP3 ISZERO PUSH3 0x1DA JUMPI SWAP2 DUP3 ADD JUMPDEST DUP3 DUP2 GT ISZERO PUSH3 0x1D9 JUMPI DUP3 MLOAD DUP3 SSTORE SWAP2 PUSH1 0x20 ADD SWAP2 SWAP1 PUSH1 0x1 ADD SWAP1 PUSH3 0x1BC JUMP JUMPDEST JUMPDEST POP SWAP1 POP PUSH3 0x1E9 SWAP2 SWAP1 PUSH3 0x1ED JUMP JUMPDEST POP SWAP1 JUMP JUMPDEST JUMPDEST DUP1 DUP3 GT ISZERO PUSH3 0x208 JUMPI PUSH1 0x0 DUP2 PUSH1 0x0 SWAP1 SSTORE POP PUSH1 0x1 ADD PUSH3 0x1EE JUMP JUMPDEST POP SWAP1 JUMP JUMPDEST PUSH1 0x0 PUSH3 0x223 PUSH3 0x21D DUP5 PUSH3 0x3E0 JUMP JUMPDEST PUSH3 0x3B7 JUMP JUMPDEST SWAP1 POP DUP3 DUP2 MSTORE PUSH1 0x20 DUP2 ADD DUP5 DUP5 DUP5 ADD GT ISZERO PUSH3 0x242 JUMPI PUSH3 0x241 PUSH3 0x6DA JUMP JUMPDEST JUMPDEST PUSH3 0x24F DUP5 DUP3 DUP6 PUSH3 0x577 JUMP JUMPDEST POP SWAP4 SWAP3 POP POP POP JUMP JUMPDEST PUSH1 0x0 DUP3 PUSH1 0x1F DUP4 ADD SLT PUSH3 0x26F JUMPI PUSH3 0x26E PUSH3 0x6D5 JUMP JUMPDEST JUMPDEST DUP2 MLOAD PUSH3 0x281 DUP5 DUP3 PUSH1 0x20 DUP7 ADD PUSH3 0x20C JUMP JUMPDEST SWAP2 POP POP SWAP3 SWAP2 POP POP JUMP JUMPDEST PUSH1 0x0 DUP2 MLOAD SWAP1 POP PUSH3 0x29B DUP2 PUSH3 0x6FA JUMP JUMPDEST SWAP3 SWAP2 POP POP JUMP JUMPDEST PUSH1 0x0 DUP1 PUSH1 0x40 DUP4 DUP6 SUB SLT ISZERO PUSH3 0x2BB JUMPI PUSH3 0x2BA PUSH3 0x6E4 JUMP JUMPDEST JUMPDEST PUSH1 0x0 DUP4 ADD MLOAD PUSH8 0xFFFFFFFFFFFFFFFF DUP2 GT ISZERO PUSH3 0x2DC JUMPI PUSH3 0x2DB PUSH3 0x6DF JUMP JUMPDEST JUMPDEST PUSH3 0x2EA DUP6 DUP3 DUP7 ADD PUSH3 0x257 JUMP JUMPDEST SWAP3 POP POP PUSH1 0x20 PUSH3 0x2FD DUP6 DUP3 DUP7 ADD PUSH3 0x28A JUMP JUMPDEST SWAP2 POP POP SWAP3 POP SWAP3 SWAP1 POP JUMP JUMPDEST PUSH1 0x0 DUP2 SLOAD PUSH3 0x316 DUP2 PUSH3 0x5AD JUMP JUMPDEST PUSH3 0x322 DUP2 DUP7 PUSH3 0x42B JUMP JUMPDEST SWAP5 POP PUSH1 0x1 DUP3 AND PUSH1 0x0 DUP2 EQ PUSH3 0x340 JUMPI PUSH1 0x1 DUP2 EQ PUSH3 0x353 JUMPI PUSH3 0x38A JUMP JUMPDEST PUSH1 0xFF NOT DUP4 AND DUP7 MSTORE PUSH1 0x20 DUP7 ADD SWAP4 POP PUSH3 0x38A JUMP JUMPDEST PUSH3 0x35E DUP6 PUSH3 0x416 JUMP JUMPDEST PUSH1 0x0 JUMPDEST DUP4 DUP2 LT ISZERO PUSH3 0x382 JUMPI DUP2 SLOAD DUP2 DUP10 ADD MSTORE PUSH1 0x1 DUP3 ADD SWAP2 POP PUSH1 0x20 DUP2 ADD SWAP1 POP PUSH3 0x361 JUMP JUMPDEST DUP1 DUP9 ADD SWAP6 POP POP POP JUMPDEST POP POP POP SWAP3 SWAP2 POP POP JUMP JUMPDEST PUSH1 0x0 PUSH1 0x20 DUP3 ADD SWAP1 POP DUP2 DUP2 SUB PUSH1 0x0 DUP4 ADD MSTORE PUSH3 0x3AF DUP2 DUP5 PUSH3 0x307 JUMP JUMPDEST SWAP1 POP SWAP3 SWAP2 POP POP JUMP JUMPDEST PUSH1 0x0 PUSH3 0x3C3 PUSH3 0x3D6 JUMP JUMPDEST SWAP1 POP PUSH3 0x3D1 DUP3 DUP3 PUSH3 0x5E3 JUMP JUMPDEST SWAP2 SWAP1 POP JUMP JUMPDEST PUSH1 0x0 PUSH1 0x40 MLOAD SWAP1 POP SWAP1 JUMP JUMPDEST PUSH1 0x0 PUSH8 0xFFFFFFFFFFFFFFFF DUP3 GT ISZERO PUSH3 0x3FE JUMPI PUSH3 0x3FD PUSH3 0x6A6 JUMP JUMPDEST JUMPDEST PUSH3 0x409 DUP3 PUSH3 0x6E9 JUMP JUMPDEST SWAP1 POP PUSH1 0x20 DUP2 ADD SWAP1 POP SWAP2 SWAP1 POP JUMP JUMPDEST PUSH1 0x0 DUP2 SWAP1 POP DUP2 PUSH1 0x0 MSTORE PUSH1 0x20 PUSH1 0x0 KECCAK256 SWAP1 POP SWAP2 SWAP1 POP JUMP JUMPDEST PUSH1 0x0 DUP3 DUP3 MSTORE PUSH1 0x20 DUP3 ADD SWAP1 POP SWAP3 SWAP2 POP POP JUMP JUMPDEST PUSH1 0x0 PUSH3 0x449 DUP3 PUSH3 0x56D JUMP JUMPDEST SWAP2 POP PUSH3 0x456 DUP4 PUSH3 0x56D JUMP JUMPDEST SWAP3 POP DUP3 PUSH32 0xFFFFFFFFFFFFFFFFFFFFFFFFFFFFFFFFFFFFFFFFFFFFFFFFFFFFFFFFFFFFFFFF SUB DUP3 GT ISZERO PUSH3 0x48E JUMPI PUSH3 0x48D PUSH3 0x619 JUMP JUMPDEST JUMPDEST DUP3 DUP3 ADD SWAP1 POP SWAP3 SWAP2 POP POP JUMP JUMPDEST PUSH1 0x0 PUSH3 0x4A6 DUP3 PUSH3 0x56D JUMP JUMPDEST SWAP2 POP PUSH3 0x4B3 DUP4 PUSH3 0x56D JUMP JUMPDEST SWAP3 POP DUP3 PUSH3 0x4C6 JUMPI PUSH3 0x4C5 PUSH3 0x648 JUMP JUMPDEST JUMPDEST DUP3 DUP3 DIV SWAP1 POP SWAP3 SWAP2 POP POP JUMP JUMPDEST PUSH1 0x0 PUSH3 0x4DE DUP3 PUSH3 0x56D JUMP JUMPDEST SWAP2 POP PUSH3 0x4EB DUP4 PUSH3 0x56D JUMP JUMPDEST SWAP3 POP DUP2 PUSH32 0xFFFFFFFFFFFFFFFFFFFFFFFFFFFFFFFFFFFFFFFFFFFFFFFFFFFFFFFFFFFFFFFF DIV DUP4 GT DUP3 ISZERO ISZERO AND ISZERO PUSH3 0x527 JUMPI PUSH3 0x526 PUSH3 0x619 JUMP JUMPDEST JUMPDEST DUP3 DUP3 MUL SWAP1 POP SWAP3 SWAP2 POP POP JUMP JUMPDEST PUSH1 0x0 PUSH3 0x53F DUP3 PUSH3 0x56D JUMP JUMPDEST SWAP2 POP PUSH3 0x54C DUP4 PUSH3 0x56D JUMP JUMPDEST SWAP3 POP DUP3 DUP3 LT ISZERO PUSH3 0x562 JUMPI PUSH3 0x561 PUSH3 0x619 JUMP JUMPDEST JUMPDEST DUP3 DUP3 SUB SWAP1 POP SWAP3 SWAP2 POP POP JUMP JUMPDEST PUSH1 0x0 DUP2 SWAP1 POP SWAP2 SWAP1 POP JUMP JUMPDEST PUSH1 0x0 JUMPDEST DUP4 DUP2 LT ISZERO PUSH3 0x597 JUMPI DUP1 DUP3 ADD MLOAD DUP2 DUP5 ADD MSTORE PUSH1 0x20 DUP2 ADD SWAP1 POP PUSH3 0x57A JUMP JUMPDEST DUP4 DUP2 GT ISZERO PUSH3 0x5A7 JUMPI PUSH1 0x0 DUP5 DUP5 ADD MSTORE JUMPDEST POP POP POP POP JUMP JUMPDEST PUSH1 0x0 PUSH1 0x2 DUP3 DIV SWAP1 POP PUSH1 0x1 DUP3 AND DUP1 PUSH3 0x5C6 JUMPI PUSH1 0x7F DUP3 AND SWAP2 POP JUMPDEST PUSH1 0x20 DUP3 LT DUP2 EQ ISZERO PUSH3 0x5DD JUMPI PUSH3 0x5DC PUSH3 0x677 JUMP JUMPDEST JUMPDEST POP SWAP2 SWAP1 POP JUMP JUMPDEST PUSH3 0x5EE DUP3 PUSH3 0x6E9 JUMP JUMPDEST DUP2 ADD DUP2 DUP2 LT PUSH8 0xFFFFFFFFFFFFFFFF DUP3 GT OR ISZERO PUSH3 0x610 JUMPI PUSH3 0x60F PUSH3 0x6A6 JUMP JUMPDEST JUMPDEST DUP1 PUSH1 0x40 MSTORE POP POP POP JUMP JUMPDEST PUSH32 0x4E487B7100000000000000000000000000000000000000000000000000000000 PUSH1 0x0 MSTORE PUSH1 0x11 PUSH1 0x4 MSTORE PUSH1 0x24 PUSH1 0x0 REVERT JUMPDEST PUSH32 0x4E487B7100000000000000000000000000000000000000000000000000000000 PUSH1 0x0 MSTORE PUSH1 0x12 PUSH1 0x4 MSTORE PUSH1 0x24 PUSH1 0x0 REVERT JUMPDEST PUSH32 0x4E487B7100000000000000000000000000000000000000000000000000000000 PUSH1 0x0 MSTORE PUSH1 0x22 PUSH1 0x4 MSTORE PUSH1 0x24 PUSH1 0x0 REVERT JUMPDEST PUSH32 0x4E487B7100000000000000000000000000000000000000000000000000000000 PUSH1 0x0 MSTORE PUSH1 0x41 PUSH1 0x4 MSTORE PUSH1 0x24 PUSH1 0x0 REVERT JUMPDEST PUSH1 0x0 DUP1 REVERT JUMPDEST PUSH1 0x0 DUP1 REVERT JUMPDEST PUSH1 0x0 DUP1 REVERT JUMPDEST PUSH1 0x0 DUP1 REVERT JUMPDEST PUSH1 0x0 PUSH1 0x1F NOT PUSH1 0x1F DUP4 ADD AND SWAP1 POP SWAP2 SWAP1 POP JUMP JUMPDEST PUSH3 0x705 DUP2 PUSH3 0x56D JUMP JUMPDEST DUP2 EQ PUSH3 0x711 JUMPI PUSH1 0x0 DUP1 REVERT JUMPDEST POP JUMP JUMPDEST PUSH2 0x11F2 DUP1 PUSH3 0x724 PUSH1 0x0 CODECOPY PUSH1 0x0 RETURN INVALID PUSH1 0x80 PUSH1 0x40 MSTORE PUSH1 0x4 CALLDATASIZE LT PUSH2 0x8A JUMPI PUSH1 0x0 CALLDATALOAD PUSH1 0xE0 SHR DUP1 PUSH4 0x8DA5CB5B GT PUSH2 0x59 JUMPI DUP1 PUSH4 0x8DA5CB5B EQ PUSH2 0x42E JUMPI DUP1 PUSH4 0x9F8743F7 EQ PUSH2 0x459 JUMPI DUP1 PUSH4 0xA86D2E19 EQ PUSH2 0x484 JUMPI DUP1 PUSH4 0xCF66B989 EQ PUSH2 0x4AF JUMPI DUP1 PUSH4 0xE3C16CAC EQ PUSH2 0x4EC JUMPI PUSH2 0x37C JUMP JUMPDEST DUP1 PUSH4 0xDF516D8 EQ PUSH2 0x381 JUMPI DUP1 PUSH4 0x146CA531 EQ PUSH2 0x3AC JUMPI DUP1 PUSH4 0x4D9B3D5D EQ PUSH2 0x3D7 JUMPI DUP1 PUSH4 0x79ED40BC EQ PUSH2 0x402 JUMPI PUSH2 0x37C JUMP JUMPDEST CALLDATASIZE PUSH2 0x37C JUMPI PUSH7 0x38D7EA4C68000 CALLVALUE EQ PUSH2 0xD8 JUMPI PUSH1 0x40 MLOAD PUSH32 0x8C379A000000000000000000000000000000000000000000000000000000000 DUP2 MSTORE PUSH1 0x4 ADD PUSH2 0xCF SWAP1 PUSH2 0xCCE JUMP JUMPDEST PUSH1 0x40 MLOAD DUP1 SWAP2 SUB SWAP1 REVERT JUMPDEST PUSH1 0x0 ISZERO ISZERO PUSH1 0x1 PUSH1 0x0 PUSH1 0x5 SLOAD DUP2 MSTORE PUSH1 0x20 ADD SWAP1 DUP2 MSTORE PUSH1 0x20 ADD PUSH1 0x0 KECCAK256 PUSH1 0x0 CALLER PUSH20 0xFFFFFFFFFFFFFFFFFFFFFFFFFFFFFFFFFFFFFFFF AND PUSH20 0xFFFFFFFFFFFFFFFFFFFFFFFFFFFFFFFFFFFFFFFF AND DUP2 MSTORE PUSH1 0x20 ADD SWAP1 DUP2 MSTORE PUSH1 0x20 ADD PUSH1 0x0 KECCAK256 PUSH1 0x0 SWAP1 SLOAD SWAP1 PUSH2 0x100 EXP SWAP1 DIV PUSH1 0xFF AND ISZERO ISZERO EQ PUSH2 0x17E JUMPI PUSH1 0x40 MLOAD PUSH32 0x8C379A000000000000000000000000000000000000000000000000000000000 DUP2 MSTORE PUSH1 0x4 ADD PUSH2 0x175 SWAP1 PUSH2 0xCEE JUMP JUMPDEST PUSH1 0x40 MLOAD DUP1 SWAP2 SUB SWAP1 REVERT JUMPDEST PUSH1 0x1 DUP1 PUSH1 0x0 PUSH1 0x5 SLOAD DUP2 MSTORE PUSH1 0x20 ADD SWAP1 DUP2 MSTORE PUSH1 0x20 ADD PUSH1 0x0 KECCAK256 PUSH1 0x0 CALLER PUSH20 0xFFFFFFFFFFFFFFFFFFFFFFFFFFFFFFFFFFFFFFFF AND PUSH20 0xFFFFFFFFFFFFFFFFFFFFFFFFFFFFFFFFFFFFFFFF AND DUP2 MSTORE PUSH1 0x20 ADD SWAP1 DUP2 MSTORE PUSH1 0x20 ADD PUSH1 0x0 KECCAK256 PUSH1 0x0 PUSH2 0x100 EXP DUP2 SLOAD DUP2 PUSH1 0xFF MUL NOT AND SWAP1 DUP4 ISZERO ISZERO MUL OR SWAP1 SSTORE POP PUSH1 0x6 PUSH1 0x0 DUP2 SLOAD PUSH2 0x1F7 SWAP1 PUSH2 0xFBD JUMP JUMPDEST SWAP2 SWAP1 POP DUP2 SWAP1 SSTORE POP PUSH1 0x2 SLOAD PUSH1 0x6 SLOAD EQ ISZERO PUSH2 0x32B JUMPI PUSH1 0x0 CALLER PUSH20 0xFFFFFFFFFFFFFFFFFFFFFFFFFFFFFFFFFFFFFFFF AND SELFBALANCE PUSH1 0x40 MLOAD PUSH2 0x230 SWAP1 PUSH2 0xBF1 JUMP JUMPDEST PUSH1 0x0 PUSH1 0x40 MLOAD DUP1 DUP4 SUB DUP2 DUP6 DUP8 GAS CALL SWAP3 POP POP POP RETURNDATASIZE DUP1 PUSH1 0x0 DUP2 EQ PUSH2 0x26D JUMPI PUSH1 0x40 MLOAD SWAP2 POP PUSH1 0x1F NOT PUSH1 0x3F RETURNDATASIZE ADD AND DUP3 ADD PUSH1 0x40 MSTORE RETURNDATASIZE DUP3 MSTORE RETURNDATASIZE PUSH1 0x0 PUSH1 0x20 DUP5 ADD RETURNDATACOPY PUSH2 0x272 JUMP JUMPDEST PUSH1 0x60 SWAP2 POP JUMPDEST POP POP SWAP1 POP DUP1 PUSH2 0x2B6 JUMPI PUSH1 0x40 MLOAD PUSH32 0x8C379A000000000000000000000000000000000000000000000000000000000 DUP2 MSTORE PUSH1 0x4 ADD PUSH2 0x2AD SWAP1 PUSH2 0xC8E JUMP JUMPDEST PUSH1 0x40 MLOAD DUP1 SWAP2 SUB SWAP1 REVERT JUMPDEST PUSH1 0x0 PUSH1 0x6 DUP2 SWAP1 SSTORE POP PUSH1 0x5 PUSH1 0x0 DUP2 SLOAD PUSH2 0x2CD SWAP1 PUSH2 0xFBD JUMP JUMPDEST SWAP2 SWAP1 POP DUP2 SWAP1 SSTORE POP PUSH2 0x2DC PUSH2 0x515 JUMP JUMPDEST PUSH1 0x2 DUP2 SWAP1 SSTORE POP CALLER PUSH20 0xFFFFFFFFFFFFFFFFFFFFFFFFFFFFFFFFFFFFFFFF AND PUSH32 0xD7B5435FA0DD93954C7955210A67950D9385F8CD60631432712709E265EC99CA PUSH1 0x40 MLOAD PUSH1 0x40 MLOAD DUP1 SWAP2 SUB SWAP1 LOG2 POP PUSH2 0x37A JUMP JUMPDEST CALLER PUSH20 0xFFFFFFFFFFFFFFFFFFFFFFFFFFFFFFFFFFFFFFFF AND PUSH32 0x20384C35AF44AE3E0536C765E1CEE107339D7CA70B092472C816A3A62E4BA659 CALLVALUE PUSH1 0x40 MLOAD PUSH2 0x371 SWAP2 SWAP1 PUSH2 0xD0E JUMP JUMPDEST PUSH1 0x40 MLOAD DUP1 SWAP2 SUB SWAP1 LOG2 JUMPDEST STOP JUMPDEST PUSH1 0x0 DUP1 REVERT JUMPDEST CALLVALUE DUP1 ISZERO PUSH2 0x38D JUMPI PUSH1 0x0 DUP1 REVERT JUMPDEST POP PUSH2 0x396 PUSH2 0x59D JUMP JUMPDEST PUSH1 0x40 MLOAD PUSH2 0x3A3 SWAP2 SWAP1 PUSH2 0xD0E JUMP JUMPDEST PUSH1 0x40 MLOAD DUP1 SWAP2 SUB SWAP1 RETURN JUMPDEST CALLVALUE DUP1 ISZERO PUSH2 0x3B8 JUMPI PUSH1 0x0 DUP1 REVERT JUMPDEST POP PUSH2 0x3C1 PUSH2 0x5A3 JUMP JUMPDEST PUSH1 0x40 MLOAD PUSH2 0x3CE SWAP2 SWAP1 PUSH2 0xD0E JUMP JUMPDEST PUSH1 0x40 MLOAD DUP1 SWAP2 SUB SWAP1 RETURN JUMPDEST CALLVALUE DUP1 ISZERO PUSH2 0x3E3 JUMPI PUSH1 0x0 DUP1 REVERT JUMPDEST POP PUSH2 0x3EC PUSH2 0x5A9 JUMP JUMPDEST PUSH1 0x40 MLOAD PUSH2 0x3F9 SWAP2 SWAP1 PUSH2 0xD0E JUMP JUMPDEST PUSH1 0x40 MLOAD DUP1 SWAP2 SUB SWAP1 RETURN JUMPDEST CALLVALUE DUP1 ISZERO PUSH2 0x40E JUMPI PUSH1 0x0 DUP1 REVERT JUMPDEST POP PUSH2 0x417 PUSH2 0x5B1 JUMP JUMPDEST PUSH1 0x40 MLOAD PUSH2 0x425 SWAP3 SWAP2 SWAP1 PUSH2 0xC3C JUMP JUMPDEST PUSH1 0x40 MLOAD DUP1 SWAP2 SUB SWAP1 RETURN JUMPDEST CALLVALUE DUP1 ISZERO PUSH2 0x43A JUMPI PUSH1 0x0 DUP1 REVERT JUMPDEST POP PUSH2 0x443 PUSH2 0x6DD JUMP JUMPDEST PUSH1 0x40 MLOAD PUSH2 0x450 SWAP2 SWAP1 PUSH2 0xC06 JUMP JUMPDEST PUSH1 0x40 MLOAD DUP1 SWAP2 SUB SWAP1 RETURN JUMPDEST CALLVALUE DUP1 ISZERO PUSH2 0x465 JUMPI PUSH1 0x0 DUP1 REVERT JUMPDEST POP PUSH2 0x46E PUSH2 0x701 JUMP JUMPDEST PUSH1 0x40 MLOAD PUSH2 0x47B SWAP2 SWAP1 PUSH2 0xD0E JUMP JUMPDEST PUSH1 0x40 MLOAD DUP1 SWAP2 SUB SWAP1 RETURN JUMPDEST CALLVALUE DUP1 ISZERO PUSH2 0x490 JUMPI PUSH1 0x0 DUP1 REVERT JUMPDEST POP PUSH2 0x499 PUSH2 0x70B JUMP JUMPDEST PUSH1 0x40 MLOAD PUSH2 0x4A6 SWAP2 SWAP1 PUSH2 0xD0E JUMP JUMPDEST PUSH1 0x40 MLOAD DUP1 SWAP2 SUB SWAP1 RETURN JUMPDEST CALLVALUE DUP1 ISZERO PUSH2 0x4BB JUMPI PUSH1 0x0 DUP1 REVERT JUMPDEST POP PUSH2 0x4D6 PUSH1 0x4 DUP1 CALLDATASIZE SUB DUP2 ADD SWAP1 PUSH2 0x4D1 SWAP2 SWAP1 PUSH2 0xA1C JUMP JUMPDEST PUSH2 0x7A4 JUMP JUMPDEST PUSH1 0x40 MLOAD PUSH2 0x4E3 SWAP2 SWAP1 PUSH2 0xC21 JUMP JUMPDEST PUSH1 0x40 MLOAD DUP1 SWAP2 SUB SWAP1 RETURN JUMPDEST CALLVALUE DUP1 ISZERO PUSH2 0x4F8 JUMPI PUSH1 0x0 DUP1 REVERT JUMPDEST POP PUSH2 0x513 PUSH1 0x4 DUP1 CALLDATASIZE SUB DUP2 ADD SWAP1 PUSH2 0x50E SWAP2 SWAP1 PUSH2 0x9C0 JUMP JUMPDEST PUSH2 0x7D3 JUMP JUMPDEST STOP JUMPDEST PUSH1 0x0 DUP1 NUMBER TIMESTAMP PUSH1 0x4 SLOAD PUSH1 0x3 PUSH1 0x40 MLOAD PUSH1 0x20 ADD PUSH2 0x52F SWAP2 SWAP1 PUSH2 0xC6C JUMP JUMPDEST PUSH1 0x40 MLOAD PUSH1 0x20 DUP2 DUP4 SUB SUB DUP2 MSTORE SWAP1 PUSH1 0x40 MSTORE DUP1 MLOAD SWAP1 PUSH1 0x20 ADD KECCAK256 PUSH1 0x0 SHR PUSH2 0x552 SWAP2 SWAP1 PUSH2 0xDBB JUMP JUMPDEST PUSH2 0x55C SWAP2 SWAP1 PUSH2 0xDBB JUMP JUMPDEST PUSH2 0x566 SWAP2 SWAP1 PUSH2 0xDBB JUMP JUMPDEST SWAP1 POP PUSH1 0x1 PUSH1 0xA DUP1 DUP4 PUSH2 0x578 SWAP2 SWAP1 PUSH2 0xE11 JUMP JUMPDEST PUSH2 0x582 SWAP2 SWAP1 PUSH2 0xE42 JUMP JUMPDEST DUP3 PUSH2 0x58D SWAP2 SWAP1 PUSH2 0xE9C JUMP JUMPDEST PUSH2 0x597 SWAP2 SWAP1 PUSH2 0xDBB JUMP JUMPDEST SWAP2 POP POP SWAP1 JUMP JUMPDEST PUSH1 0x6 SLOAD DUP2 JUMP JUMPDEST PUSH1 0x5 SLOAD DUP2 JUMP JUMPDEST PUSH1 0x0 SELFBALANCE SWAP1 POP SWAP1 JUMP JUMPDEST PUSH1 0x60 PUSH1 0x0 DUP1 PUSH1 0x0 SWAP1 SLOAD SWAP1 PUSH2 0x100 EXP SWAP1 DIV PUSH20 0xFFFFFFFFFFFFFFFFFFFFFFFFFFFFFFFFFFFFFFFF AND PUSH20 0xFFFFFFFFFFFFFFFFFFFFFFFFFFFFFFFFFFFFFFFF AND CALLER PUSH20 0xFFFFFFFFFFFFFFFFFFFFFFFFFFFFFFFFFFFFFFFF AND EQ PUSH2 0x644 JUMPI PUSH1 0x40 MLOAD PUSH32 0x8C379A000000000000000000000000000000000000000000000000000000000 DUP2 MSTORE PUSH1 0x4 ADD PUSH2 0x63B SWAP1 PUSH2 0xCAE JUMP JUMPDEST PUSH1 0x40 MLOAD DUP1 SWAP2 SUB SWAP1 REVERT JUMPDEST PUSH1 0x3 PUSH1 0x4 SLOAD DUP2 DUP1 SLOAD PUSH2 0x655 SWAP1 PUSH2 0xF5A JUMP JUMPDEST DUP1 PUSH1 0x1F ADD PUSH1 0x20 DUP1 SWAP2 DIV MUL PUSH1 0x20 ADD PUSH1 0x40 MLOAD SWAP1 DUP2 ADD PUSH1 0x40 MSTORE DUP1 SWAP3 SWAP2 SWAP1 DUP2 DUP2 MSTORE PUSH1 0x20 ADD DUP3 DUP1 SLOAD PUSH2 0x681 SWAP1 PUSH2 0xF5A JUMP JUMPDEST DUP1 ISZERO PUSH2 0x6CE JUMPI DUP1 PUSH1 0x1F LT PUSH2 0x6A3 JUMPI PUSH2 0x100 DUP1 DUP4 SLOAD DIV MUL DUP4 MSTORE SWAP2 PUSH1 0x20 ADD SWAP2 PUSH2 0x6CE JUMP JUMPDEST DUP3 ADD SWAP2 SWAP1 PUSH1 0x0 MSTORE PUSH1 0x20 PUSH1 0x0 KECCAK256 SWAP1 JUMPDEST DUP2 SLOAD DUP2 MSTORE SWAP1 PUSH1 0x1 ADD SWAP1 PUSH1 0x20 ADD DUP1 DUP4 GT PUSH2 0x6B1 JUMPI DUP3 SWAP1 SUB PUSH1 0x1F AND DUP3 ADD SWAP2 JUMPDEST POP POP POP POP POP SWAP2 POP SWAP2 POP SWAP2 POP SWAP1 SWAP2 JUMP JUMPDEST PUSH1 0x0 DUP1 SLOAD SWAP1 PUSH2 0x100 EXP SWAP1 DIV PUSH20 0xFFFFFFFFFFFFFFFFFFFFFFFFFFFFFFFFFFFFFFFF AND DUP2 JUMP JUMPDEST PUSH1 0x0 PUSH1 0x5 SLOAD SWAP1 POP SWAP1 JUMP JUMPDEST PUSH1 0x0 DUP1 PUSH1 0x0 SWAP1 SLOAD SWAP1 PUSH2 0x100 EXP SWAP1 DIV PUSH20 0xFFFFFFFFFFFFFFFFFFFFFFFFFFFFFFFFFFFFFFFF AND PUSH20 0xFFFFFFFFFFFFFFFFFFFFFFFFFFFFFFFFFFFFFFFF AND CALLER PUSH20 0xFFFFFFFFFFFFFFFFFFFFFFFFFFFFFFFFFFFFFFFF AND EQ PUSH2 0x79C JUMPI PUSH1 0x40 MLOAD PUSH32 0x8C379A000000000000000000000000000000000000000000000000000000000 DUP2 MSTORE PUSH1 0x4 ADD PUSH2 0x793 SWAP1 PUSH2 0xCAE JUMP JUMPDEST PUSH1 0x40 MLOAD DUP1 SWAP2 SUB SWAP1 REVERT JUMPDEST PUSH1 0x2 SLOAD SWAP1 POP SWAP1 JUMP JUMPDEST PUSH1 0x1 PUSH1 0x20 MSTORE DUP2 PUSH1 0x0 MSTORE PUSH1 0x40 PUSH1 0x0 KECCAK256 PUSH1 0x20 MSTORE DUP1 PUSH1 0x0 MSTORE PUSH1 0x40 PUSH1 0x0 KECCAK256 PUSH1 0x0 SWAP2 POP SWAP2 POP SWAP1 SLOAD SWAP1 PUSH2 0x100 EXP SWAP1 DIV PUSH1 0xFF AND DUP2 JUMP JUMPDEST PUSH1 0x0 DUP1 SLOAD SWAP1 PUSH2 0x100 EXP SWAP1 DIV PUSH20 0xFFFFFFFFFFFFFFFFFFFFFFFFFFFFFFFFFFFFFFFF AND PUSH20 0xFFFFFFFFFFFFFFFFFFFFFFFFFFFFFFFFFFFFFFFF AND CALLER PUSH20 0xFFFFFFFFFFFFFFFFFFFFFFFFFFFFFFFFFFFFFFFF AND EQ PUSH2 0x861 JUMPI PUSH1 0x40 MLOAD PUSH32 0x8C379A000000000000000000000000000000000000000000000000000000000 DUP2 MSTORE PUSH1 0x4 ADD PUSH2 0x858 SWAP1 PUSH2 0xCAE JUMP JUMPDEST PUSH1 0x40 MLOAD DUP1 SWAP2 SUB SWAP1 REVERT JUMPDEST DUP2 PUSH1 0x3 SWAP1 DUP1 MLOAD SWAP1 PUSH1 0x20 ADD SWAP1 PUSH2 0x877 SWAP3 SWAP2 SWAP1 PUSH2 0x883 JUMP JUMPDEST POP DUP1 PUSH1 0x4 DUP2 SWAP1 SSTORE POP POP POP JUMP JUMPDEST DUP3 DUP1 SLOAD PUSH2 0x88F SWAP1 PUSH2 0xF5A JUMP JUMPDEST SWAP1 PUSH1 0x0 MSTORE PUSH1 0x20 PUSH1 0x0 KECCAK256 SWAP1 PUSH1 0x1F ADD PUSH1 0x20 SWAP1 DIV DUP2 ADD SWAP3 DUP3 PUSH2 0x8B1 JUMPI PUSH1 0x0 DUP6 SSTORE PUSH2 0x8F8 JUMP JUMPDEST DUP3 PUSH1 0x1F LT PUSH2 0x8CA JUMPI DUP1 MLOAD PUSH1 0xFF NOT AND DUP4 DUP1 ADD OR DUP6 SSTORE PUSH2 0x8F8 JUMP JUMPDEST DUP3 DUP1 ADD PUSH1 0x1 ADD DUP6 SSTORE DUP3 ISZERO PUSH2 0x8F8 JUMPI SWAP2 DUP3 ADD JUMPDEST DUP3 DUP2 GT ISZERO PUSH2 0x8F7 JUMPI DUP3 MLOAD DUP3 SSTORE SWAP2 PUSH1 0x20 ADD SWAP2 SWAP1 PUSH1 0x1 ADD SWAP1 PUSH2 0x8DC JUMP JUMPDEST JUMPDEST POP SWAP1 POP PUSH2 0x905 SWAP2 SWAP1 PUSH2 0x909 JUMP JUMPDEST POP SWAP1 JUMP JUMPDEST JUMPDEST DUP1 DUP3 GT ISZERO PUSH2 0x922 JUMPI PUSH1 0x0 DUP2 PUSH1 0x0 SWAP1 SSTORE POP PUSH1 0x1 ADD PUSH2 0x90A JUMP JUMPDEST POP SWAP1 JUMP JUMPDEST PUSH1 0x0 PUSH2 0x939 PUSH2 0x934 DUP5 PUSH2 0xD4E JUMP JUMPDEST PUSH2 0xD29 JUMP JUMPDEST SWAP1 POP DUP3 DUP2 MSTORE PUSH1 0x20 DUP2 ADD DUP5 DUP5 DUP5 ADD GT ISZERO PUSH2 0x955 JUMPI PUSH2 0x954 PUSH2 0x10C7 JUMP JUMPDEST JUMPDEST PUSH2 0x960 DUP5 DUP3 DUP6 PUSH2 0xF18 JUMP JUMPDEST POP SWAP4 SWAP3 POP POP POP JUMP JUMPDEST PUSH1 0x0 DUP2 CALLDATALOAD SWAP1 POP PUSH2 0x977 DUP2 PUSH2 0x118E JUMP JUMPDEST SWAP3 SWAP2 POP POP JUMP JUMPDEST PUSH1 0x0 DUP3 PUSH1 0x1F DUP4 ADD SLT PUSH2 0x992 JUMPI PUSH2 0x991 PUSH2 0x10C2 JUMP JUMPDEST JUMPDEST DUP2 CALLDATALOAD PUSH2 0x9A2 DUP5 DUP3 PUSH1 0x20 DUP7 ADD PUSH2 0x926 JUMP JUMPDEST SWAP2 POP POP SWAP3 SWAP2 POP POP JUMP JUMPDEST PUSH1 0x0 DUP2 CALLDATALOAD SWAP1 POP PUSH2 0x9BA DUP2 PUSH2 0x11A5 JUMP JUMPDEST SWAP3 SWAP2 POP POP JUMP JUMPDEST PUSH1 0x0 DUP1 PUSH1 0x40 DUP4 DUP6 SUB SLT ISZERO PUSH2 0x9D7 JUMPI PUSH2 0x9D6 PUSH2 0x10D1 JUMP JUMPDEST JUMPDEST PUSH1 0x0 DUP4 ADD CALLDATALOAD PUSH8 0xFFFFFFFFFFFFFFFF DUP2 GT ISZERO PUSH2 0x9F5 JUMPI PUSH2 0x9F4 PUSH2 0x10CC JUMP JUMPDEST JUMPDEST PUSH2 0xA01 DUP6 DUP3 DUP7 ADD PUSH2 0x97D JUMP JUMPDEST SWAP3 POP POP PUSH1 0x20 PUSH2 0xA12 DUP6 DUP3 DUP7 ADD PUSH2 0x9AB JUMP JUMPDEST SWAP2 POP POP SWAP3 POP SWAP3 SWAP1 POP JUMP JUMPDEST PUSH1 0x0 DUP1 PUSH1 0x40 DUP4 DUP6 SUB SLT ISZERO PUSH2 0xA33 JUMPI PUSH2 0xA32 PUSH2 0x10D1 JUMP JUMPDEST JUMPDEST PUSH1 0x0 PUSH2 0xA41 DUP6 DUP3 DUP7 ADD PUSH2 0x9AB JUMP JUMPDEST SWAP3 POP POP PUSH1 0x20 PUSH2 0xA52 DUP6 DUP3 DUP7 ADD PUSH2 0x968 JUMP JUMPDEST SWAP2 POP POP SWAP3 POP SWAP3 SWAP1 POP JUMP JUMPDEST PUSH2 0xA65 DUP2 PUSH2 0xED0 JUMP JUMPDEST DUP3 MSTORE POP POP JUMP JUMPDEST PUSH2 0xA74 DUP2 PUSH2 0xEE2 JUMP JUMPDEST DUP3 MSTORE POP POP JUMP JUMPDEST PUSH1 0x0 PUSH2 0xA85 DUP3 PUSH2 0xD94 JUMP JUMPDEST PUSH2 0xA8F DUP2 DUP6 PUSH2 0xDAA JUMP JUMPDEST SWAP4 POP PUSH2 0xA9F DUP2 DUP6 PUSH1 0x20 DUP7 ADD PUSH2 0xF27 JUMP JUMPDEST PUSH2 0xAA8 DUP2 PUSH2 0x10D6 JUMP JUMPDEST DUP5 ADD SWAP2 POP POP SWAP3 SWAP2 POP POP JUMP JUMPDEST PUSH1 0x0 DUP2 SLOAD PUSH2 0xAC0 DUP2 PUSH2 0xF5A JUMP JUMPDEST PUSH2 0xACA DUP2 DUP7 PUSH2 0xDAA JUMP JUMPDEST SWAP5 POP PUSH1 0x1 DUP3 AND PUSH1 0x0 DUP2 EQ PUSH2 0xAE5 JUMPI PUSH1 0x1 DUP2 EQ PUSH2 0xAF7 JUMPI PUSH2 0xB2A JUMP JUMPDEST PUSH1 0xFF NOT DUP4 AND DUP7 MSTORE PUSH1 0x20 DUP7 ADD SWAP4 POP PUSH2 0xB2A JUMP JUMPDEST PUSH2 0xB00 DUP6 PUSH2 0xD7F JUMP JUMPDEST PUSH1 0x0 JUMPDEST DUP4 DUP2 LT ISZERO PUSH2 0xB22 JUMPI DUP2 SLOAD DUP2 DUP10 ADD MSTORE PUSH1 0x1 DUP3 ADD SWAP2 POP PUSH1 0x20 DUP2 ADD SWAP1 POP PUSH2 0xB03 JUMP JUMPDEST DUP1 DUP9 ADD SWAP6 POP POP POP JUMPDEST POP POP POP SWAP3 SWAP2 POP POP JUMP JUMPDEST PUSH1 0x0 PUSH2 0xB40 PUSH1 0x6 DUP4 PUSH2 0xDAA JUMP JUMPDEST SWAP2 POP PUSH2 0xB4B DUP3 PUSH2 0x10E7 JUMP JUMPDEST PUSH1 0x20 DUP3 ADD SWAP1 POP SWAP2 SWAP1 POP JUMP JUMPDEST PUSH1 0x0 PUSH2 0xB63 PUSH1 0x17 DUP4 PUSH2 0xDAA JUMP JUMPDEST SWAP2 POP PUSH2 0xB6E DUP3 PUSH2 0x1110 JUMP JUMPDEST PUSH1 0x20 DUP3 ADD SWAP1 POP SWAP2 SWAP1 POP JUMP JUMPDEST PUSH1 0x0 PUSH2 0xB86 PUSH1 0x14 DUP4 PUSH2 0xDAA JUMP JUMPDEST SWAP2 POP PUSH2 0xB91 DUP3 PUSH2 0x1139 JUMP JUMPDEST PUSH1 0x20 DUP3 ADD SWAP1 POP SWAP2 SWAP1 POP JUMP JUMPDEST PUSH1 0x0 PUSH2 0xBA9 PUSH1 0x0 DUP4 PUSH2 0xD9F JUMP JUMPDEST SWAP2 POP PUSH2 0xBB4 DUP3 PUSH2 0x1162 JUMP JUMPDEST PUSH1 0x0 DUP3 ADD SWAP1 POP SWAP2 SWAP1 POP JUMP JUMPDEST PUSH1 0x0 PUSH2 0xBCC PUSH1 0x17 DUP4 PUSH2 0xDAA JUMP JUMPDEST SWAP2 POP PUSH2 0xBD7 DUP3 PUSH2 0x1165 JUMP JUMPDEST PUSH1 0x20 DUP3 ADD SWAP1 POP SWAP2 SWAP1 POP JUMP JUMPDEST PUSH2 0xBEB DUP2 PUSH2 0xF0E JUMP JUMPDEST DUP3 MSTORE POP POP JUMP JUMPDEST PUSH1 0x0 PUSH2 0xBFC DUP3 PUSH2 0xB9C JUMP JUMPDEST SWAP2 POP DUP2 SWAP1 POP SWAP2 SWAP1 POP JUMP JUMPDEST PUSH1 0x0 PUSH1 0x20 DUP3 ADD SWAP1 POP PUSH2 0xC1B PUSH1 0x0 DUP4 ADD DUP5 PUSH2 0xA5C JUMP JUMPDEST SWAP3 SWAP2 POP POP JUMP JUMPDEST PUSH1 0x0 PUSH1 0x20 DUP3 ADD SWAP1 POP PUSH2 0xC36 PUSH1 0x0 DUP4 ADD DUP5 PUSH2 0xA6B JUMP JUMPDEST SWAP3 SWAP2 POP POP JUMP JUMPDEST PUSH1 0x0 PUSH1 0x40 DUP3 ADD SWAP1 POP DUP2 DUP2 SUB PUSH1 0x0 DUP4 ADD MSTORE PUSH2 0xC56 DUP2 DUP6 PUSH2 0xA7A JUMP JUMPDEST SWAP1 POP PUSH2 0xC65 PUSH1 0x20 DUP4 ADD DUP5 PUSH2 0xBE2 JUMP JUMPDEST SWAP4 SWAP3 POP POP POP JUMP JUMPDEST PUSH1 0x0 PUSH1 0x20 DUP3 ADD SWAP1 POP DUP2 DUP2 SUB PUSH1 0x0 DUP4 ADD MSTORE PUSH2 0xC86 DUP2 DUP5 PUSH2 0xAB3 JUMP JUMPDEST SWAP1 POP SWAP3 SWAP2 POP POP JUMP JUMPDEST PUSH1 0x0 PUSH1 0x20 DUP3 ADD SWAP1 POP DUP2 DUP2 SUB PUSH1 0x0 DUP4 ADD MSTORE PUSH2 0xCA7 DUP2 PUSH2 0xB33 JUMP JUMPDEST SWAP1 POP SWAP2 SWAP1 POP JUMP JUMPDEST PUSH1 0x0 PUSH1 0x20 DUP3 ADD SWAP1 POP DUP2 DUP2 SUB PUSH1 0x0 DUP4 ADD MSTORE PUSH2 0xCC7 DUP2 PUSH2 0xB56 JUMP JUMPDEST SWAP1 POP SWAP2 SWAP1 POP JUMP JUMPDEST PUSH1 0x0 PUSH1 0x20 DUP3 ADD SWAP1 POP DUP2 DUP2 SUB PUSH1 0x0 DUP4 ADD MSTORE PUSH2 0xCE7 DUP2 PUSH2 0xB79 JUMP JUMPDEST SWAP1 POP SWAP2 SWAP1 POP JUMP JUMPDEST PUSH1 0x0 PUSH1 0x20 DUP3 ADD SWAP1 POP DUP2 DUP2 SUB PUSH1 0x0 DUP4 ADD MSTORE PUSH2 0xD07 DUP2 PUSH2 0xBBF JUMP JUMPDEST SWAP1 POP SWAP2 SWAP1 POP JUMP JUMPDEST PUSH1 0x0 PUSH1 0x20 DUP3 ADD SWAP1 POP PUSH2 0xD23 PUSH1 0x0 DUP4 ADD DUP5 PUSH2 0xBE2 JUMP JUMPDEST SWAP3 SWAP2 POP POP JUMP JUMPDEST PUSH1 0x0 PUSH2 0xD33 PUSH2 0xD44 JUMP JUMPDEST SWAP1 POP PUSH2 0xD3F DUP3 DUP3 PUSH2 0xF8C JUMP JUMPDEST SWAP2 SWAP1 POP JUMP JUMPDEST PUSH1 0x0 PUSH1 0x40 MLOAD SWAP1 POP SWAP1 JUMP JUMPDEST PUSH1 0x0 PUSH8 0xFFFFFFFFFFFFFFFF DUP3 GT ISZERO PUSH2 0xD69 JUMPI PUSH2 0xD68 PUSH2 0x1093 JUMP JUMPDEST JUMPDEST PUSH2 0xD72 DUP3 PUSH2 0x10D6 JUMP JUMPDEST SWAP1 POP PUSH1 0x20 DUP2 ADD SWAP1 POP SWAP2 SWAP1 POP JUMP JUMPDEST PUSH1 0x0 DUP2 SWAP1 POP DUP2 PUSH1 0x0 MSTORE PUSH1 0x20 PUSH1 0x0 KECCAK256 SWAP1 POP SWAP2 SWAP1 POP JUMP JUMPDEST PUSH1 0x0 DUP2 MLOAD SWAP1 POP SWAP2 SWAP1 POP JUMP JUMPDEST PUSH1 0x0 DUP2 SWAP1 POP SWAP3 SWAP2 POP POP JUMP JUMPDEST PUSH1 0x0 DUP3 DUP3 MSTORE PUSH1 0x20 DUP3 ADD SWAP1 POP SWAP3 SWAP2 POP POP JUMP JUMPDEST PUSH1 0x0 PUSH2 0xDC6 DUP3 PUSH2 0xF0E JUMP JUMPDEST SWAP2 POP PUSH2 0xDD1 DUP4 PUSH2 0xF0E JUMP JUMPDEST SWAP3 POP DUP3 PUSH32 0xFFFFFFFFFFFFFFFFFFFFFFFFFFFFFFFFFFFFFFFFFFFFFFFFFFFFFFFFFFFFFFFF SUB DUP3 GT ISZERO PUSH2 0xE06 JUMPI PUSH2 0xE05 PUSH2 0x1006 JUMP JUMPDEST JUMPDEST DUP3 DUP3 ADD SWAP1 POP SWAP3 SWAP2 POP POP JUMP JUMPDEST PUSH1 0x0 PUSH2 0xE1C DUP3 PUSH2 0xF0E JUMP JUMPDEST SWAP2 POP PUSH2 0xE27 DUP4 PUSH2 0xF0E JUMP JUMPDEST SWAP3 POP DUP3 PUSH2 0xE37 JUMPI PUSH2 0xE36 PUSH2 0x1035 JUMP JUMPDEST JUMPDEST DUP3 DUP3 DIV SWAP1 POP SWAP3 SWAP2 POP POP JUMP JUMPDEST PUSH1 0x0 PUSH2 0xE4D DUP3 PUSH2 0xF0E JUMP JUMPDEST SWAP2 POP PUSH2 0xE58 DUP4 PUSH2 0xF0E JUMP JUMPDEST SWAP3 POP DUP2 PUSH32 0xFFFFFFFFFFFFFFFFFFFFFFFFFFFFFFFFFFFFFFFFFFFFFFFFFFFFFFFFFFFFFFFF DIV DUP4 GT DUP3 ISZERO ISZERO AND ISZERO PUSH2 0xE91 JUMPI PUSH2 0xE90 PUSH2 0x1006 JUMP JUMPDEST JUMPDEST DUP3 DUP3 MUL SWAP1 POP SWAP3 SWAP2 POP POP JUMP JUMPDEST PUSH1 0x0 PUSH2 0xEA7 DUP3 PUSH2 0xF0E JUMP JUMPDEST SWAP2 POP PUSH2 0xEB2 DUP4 PUSH2 0xF0E JUMP JUMPDEST SWAP3 POP DUP3 DUP3 LT ISZERO PUSH2 0xEC5 JUMPI PUSH2 0xEC4 PUSH2 0x1006 JUMP JUMPDEST JUMPDEST DUP3 DUP3 SUB SWAP1 POP SWAP3 SWAP2 POP POP JUMP JUMPDEST PUSH1 0x0 PUSH2 0xEDB DUP3 PUSH2 0xEEE JUMP JUMPDEST SWAP1 POP SWAP2 SWAP1 POP JUMP JUMPDEST PUSH1 0x0 DUP2 ISZERO ISZERO SWAP1 POP SWAP2 SWAP1 POP JUMP JUMPDEST PUSH1 0x0 PUSH20 0xFFFFFFFFFFFFFFFFFFFFFFFFFFFFFFFFFFFFFFFF DUP3 AND SWAP1 POP SWAP2 SWAP1 POP JUMP JUMPDEST PUSH1 0x0 DUP2 SWAP1 POP SWAP2 SWAP1 POP JUMP JUMPDEST DUP3 DUP2 DUP4 CALLDATACOPY PUSH1 0x0 DUP4 DUP4 ADD MSTORE POP POP POP JUMP JUMPDEST PUSH1 0x0 JUMPDEST DUP4 DUP2 LT ISZERO PUSH2 0xF45 JUMPI DUP1 DUP3 ADD MLOAD DUP2 DUP5 ADD MSTORE PUSH1 0x20 DUP2 ADD SWAP1 POP PUSH2 0xF2A JUMP JUMPDEST DUP4 DUP2 GT ISZERO PUSH2 0xF54 JUMPI PUSH1 0x0 DUP5 DUP5 ADD MSTORE JUMPDEST POP POP POP POP JUMP JUMPDEST PUSH1 0x0 PUSH1 0x2 DUP3 DIV SWAP1 POP PUSH1 0x1 DUP3 AND DUP1 PUSH2 0xF72 JUMPI PUSH1 0x7F DUP3 AND SWAP2 POP JUMPDEST PUSH1 0x20 DUP3 LT DUP2 EQ ISZERO PUSH2 0xF86 JUMPI PUSH2 0xF85 PUSH2 0x1064 JUMP JUMPDEST JUMPDEST POP SWAP2 SWAP1 POP JUMP JUMPDEST PUSH2 0xF95 DUP3 PUSH2 0x10D6 JUMP JUMPDEST DUP2 ADD DUP2 DUP2 LT PUSH8 0xFFFFFFFFFFFFFFFF DUP3 GT OR ISZERO PUSH2 0xFB4 JUMPI PUSH2 0xFB3 PUSH2 0x1093 JUMP JUMPDEST JUMPDEST DUP1 PUSH1 0x40 MSTORE POP POP POP JUMP JUMPDEST PUSH1 0x0 PUSH2 0xFC8 DUP3 PUSH2 0xF0E JUMP JUMPDEST SWAP2 POP PUSH32 0xFFFFFFFFFFFFFFFFFFFFFFFFFFFFFFFFFFFFFFFFFFFFFFFFFFFFFFFFFFFFFFFF DUP3 EQ ISZERO PUSH2 0xFFB JUMPI PUSH2 0xFFA PUSH2 0x1006 JUMP JUMPDEST JUMPDEST PUSH1 0x1 DUP3 ADD SWAP1 POP SWAP2 SWAP1 POP JUMP JUMPDEST PUSH32 0x4E487B7100000000000000000000000000000000000000000000000000000000 PUSH1 0x0 MSTORE PUSH1 0x11 PUSH1 0x4 MSTORE PUSH1 0x24 PUSH1 0x0 REVERT JUMPDEST PUSH32 0x4E487B7100000000000000000000000000000000000000000000000000000000 PUSH1 0x0 MSTORE PUSH1 0x12 PUSH1 0x4 MSTORE PUSH1 0x24 PUSH1 0x0 REVERT JUMPDEST PUSH32 0x4E487B7100000000000000000000000000000000000000000000000000000000 PUSH1 0x0 MSTORE PUSH1 0x22 PUSH1 0x4 MSTORE PUSH1 0x24 PUSH1 0x0 REVERT JUMPDEST PUSH32 0x4E487B7100000000000000000000000000000000000000000000000000000000 PUSH1 0x0 MSTORE PUSH1 0x41 PUSH1 0x4 MSTORE PUSH1 0x24 PUSH1 0x0 REVERT JUMPDEST PUSH1 0x0 DUP1 REVERT JUMPDEST PUSH1 0x0 DUP1 REVERT JUMPDEST PUSH1 0x0 DUP1 REVERT JUMPDEST PUSH1 0x0 DUP1 REVERT JUMPDEST PUSH1 0x0 PUSH1 0x1F NOT PUSH1 0x1F DUP4 ADD AND SWAP1 POP SWAP2 SWAP1 POP JUMP JUMPDEST PUSH32 0x4661696C65640000000000000000000000000000000000000000000000000000 PUSH1 0x0 DUP3 ADD MSTORE POP JUMP JUMPDEST PUSH32 0x63616C6C6572206973206E6F7420746865206F776E6572000000000000000000 PUSH1 0x0 DUP3 ADD MSTORE POP JUMP JUMPDEST PUSH32 0x4D75737420626520302E3030312065746865722E000000000000000000000000 PUSH1 0x0 DUP3 ADD MSTORE POP JUMP JUMPDEST POP JUMP JUMPDEST PUSH32 0x4D757374206265207468652066697273742074696D652E000000000000000000 PUSH1 0x0 DUP3 ADD MSTORE POP JUMP JUMPDEST PUSH2 0x1197 DUP2 PUSH2 0xED0 JUMP JUMPDEST DUP2 EQ PUSH2 0x11A2 JUMPI PUSH1 0x0 DUP1 REVERT JUMPDEST POP JUMP JUMPDEST PUSH2 0x11AE DUP2 PUSH2 0xF0E JUMP JUMPDEST DUP2 EQ PUSH2 0x11B9 JUMPI PUSH1 0x0 DUP1 REVERT JUMPDEST POP JUMP INVALID LOG2 PUSH5 0x6970667358 0x22 SLT KECCAK256 PUSH24 0xAA639207F5C36214B4FB568B84B0FC723E89D49DA7879B19 JUMP PUSH23 0xD814B9B71464736F6C6343000807003300000000000000 "
				},
				"gasEstimates": {
					"creation": {
						"codeDepositCost": "918800",
						"executionCost": "infinite",
						"totalCost": "infinite"
					},
					"external": {
						"getRound()": "2459",
						"getSecretKey()": "infinite",
						"getWinnerNumber()": "4651",
						"getbalance()": "384",
						"owner()": "2511",
						"paidAddressList(uint256,address)": "3153",
						"playNumber()": "2430",
						"round()": "2452",
						"setSecretKe(string,uint256)": "infinite"
					},
					"internal": {
						"randomNumber()": "infinite"
					}
				},
				"methodIdentifiers": {
					"getRound()": "9f8743f7",
					"getSecretKey()": "79ed40bc",
					"getWinnerNumber()": "a86d2e19",
					"getbalance()": "4d9b3d5d",
					"owner()": "8da5cb5b",
					"paidAddressList(uint256,address)": "cf66b989",
					"playNumber()": "0df516d8",
					"round()": "146ca531",
					"setSecretKe(string,uint256)": "e3c16cac"
				}
			},
			"storageLayout": {
				"storage": [
					{
						"astId": 3,
						"contract": "src/main/java/org/example/sol/contrack01/randomGame.sol:randomGame",
						"label": "owner",
						"offset": 0,
						"slot": "0",
						"type": "t_address"
					},
					{
						"astId": 9,
						"contract": "src/main/java/org/example/sol/contrack01/randomGame.sol:randomGame",
						"label": "paidAddressList",
						"offset": 0,
						"slot": "1",
						"type": "t_mapping(t_uint256,t_mapping(t_address,t_bool))"
					},
					{
						"astId": 12,
						"contract": "src/main/java/org/example/sol/contrack01/randomGame.sol:randomGame",
						"label": "winnerNumber",
						"offset": 0,
						"slot": "2",
						"type": "t_uint256"
					},
					{
						"astId": 14,
						"contract": "src/main/java/org/example/sol/contrack01/randomGame.sol:randomGame",
						"label": "key1",
						"offset": 0,
						"slot": "3",
						"type": "t_string_storage"
					},
					{
						"astId": 16,
						"contract": "src/main/java/org/example/sol/contrack01/randomGame.sol:randomGame",
						"label": "key2",
						"offset": 0,
						"slot": "4",
						"type": "t_uint256"
					},
					{
						"astId": 19,
						"contract": "src/main/java/org/example/sol/contrack01/randomGame.sol:randomGame",
						"label": "round",
						"offset": 0,
						"slot": "5",
						"type": "t_uint256"
					},
					{
						"astId": 22,
						"contract": "src/main/java/org/example/sol/contrack01/randomGame.sol:randomGame",
						"label": "playNumber",
						"offset": 0,
						"slot": "6",
						"type": "t_uint256"
					}
				],
				"types": {
					"t_address": {
						"encoding": "inplace",
						"label": "address",
						"numberOfBytes": "20"
					},
					"t_bool": {
						"encoding": "inplace",
						"label": "bool",
						"numberOfBytes": "1"
					},
					"t_mapping(t_address,t_bool)": {
						"encoding": "mapping",
						"key": "t_address",
						"label": "mapping(address => bool)",
						"numberOfBytes": "32",
						"value": "t_bool"
					},
					"t_mapping(t_uint256,t_mapping(t_address,t_bool))": {
						"encoding": "mapping",
						"key": "t_uint256",
						"label": "mapping(uint256 => mapping(address => bool))",
						"numberOfBytes": "32",
						"value": "t_mapping(t_address,t_bool)"
					},
					"t_string_storage": {
						"encoding": "bytes",
						"label": "string",
						"numberOfBytes": "32"
					},
					"t_uint256": {
						"encoding": "inplace",
						"label": "uint256",
						"numberOfBytes": "32"
					}
				}
			},
			"userdoc": {
				"kind": "user",
				"methods": {},
				"version": 1
			}
		}
	}
}